:020000040800F2
:1000000000060020E1020008E3020008E302000805
:10001000E3020008E3020008E3020008E30200082C
:10002000E3020008E3020008E302000831250008AB
:10003000E3020008E3020008E3020008E30200080C
:10004000E3020008E3020008E3020008E3020008FC
:10005000E3020008E3020008E3020008E3020008EC
:10006000E3020008E3020008E3020008D9100008D8
:10007000011100082D110008591100088511000810
:10008000AD110008D9110008E3020008E3020008DE
:10009000E3020008E3020008E3020008E3020008AC
:1000A000E3020008E3020008E3020008E30200089C
:1000B000E3020008E3020008E3020008E30200088C
:1000C000E3020008E3020008E3020008E30200087C
:1000D000E3020008E3020008E3020008E30200086C
:1000E000E3020008E3020008E3020008E30200085C
:1000F000E3020008E3020008E3020008051200081A
:10010000E3020008E30200080D2F0008E3020008E4
:10011000E3020008E3020008E3020008E30200082B
:10012000311200085912000885120008B1120008A7
:10013000DD120008E3020008E3020008E302000801
:10014000E3020008E3020008E3020008E3020008FB
:1001500005130008311300085D130008E3020008CE
:10016000E3020008E3020008E3020008E3020008DB
:10017000E3020008E3020008E3020008E3020008CB
:10018000E3020008E3020008E3020008F92E000879
:10019000E3020008E3020008E3020008E3020008AB
:1001A000E3020008E3020008E3020008E30200089B
:1001B000E3020008E3020008E3020008E30200088B
:1001C000E3020008E3020008E3020008E30200087B
:1001D000E3020008E3020008E3020008E30200086B
:1001E000E3020008E3020008E3020008E30200085B
:1001F000E3020008E3020008E3020008E30200084B
:10020000E3020008E3020008E3020008E30200083A
:10021000E3020008E3020008E3020008E30200082A
:10022000E3020008E3020008E3020008E30200081A
:10023000E3020008E3020008E3020008E30200080A
:10024000E3020008E3020008E3020008E3020008FA
:10025000E3020008E3020008E3020008E3020008EA
:10026000E3020008E3020008E3020008E3020008DA
:10027000E3020008E3020008E3020008E3020008CA
:10028000E3020008E3020008E3020008E3020008BA
:10029000E3020008E3020008E3020008E3020008AA
:1002A000E3020008E3020008E3020008E30200089A
:1002B000E3020008E3020008E3020008E30200088A
:1002C000E3020008E3020008E3020008E30200087A
:1002D000E3020008E3020008E3020008E30200086A
:1002E00002E000F000F8FEE772B6374880F30888B5
:1002F000364880F3098836483649086040F20000E5
:10030000CCF200004EF63471CEF200010860BFF36B
:100310004F8FBFF36F8F40F20000C0F2F0004EF637
:100320008851CEF200010860BFF34F8FBFF36F8F8B
:100330004FF00000E1EE100A4EF63C71CEF20001E3
:100340000860062080F31488BFF36F8F02F052F923
:1003500002F090FB4FF055301F491B4A91423CBFC1
:1003600041F8040BFAE71D49184A91423CBF41F895
:10037000040BFAE71A491B4A1B4B9A423EBF51F83D
:10038000040B42F8040BF8E700201849184A914280
:100390003CBF41F8040BFAE702F06AF902F0ECFB0B
:1003A000144C154DAC4203DA54F8041B8847F9E7A6
:1003B00000F070F8114C124DAC4203DA54F8041BF3
:1003C0008847F9E702F052B9000600200022002019
:1003D0000000000808ED00E00000002000060020FA
:1003E000903200080022002030220020302200201D
:1003F000D82B0020E0020008E0020008E00200081C
:10040000E00200082DE9F04F2DED108AC1F80CD064
:10041000D0F80CD0BDEC108ABDE8F08F002383F338
:1004200011882846A047002001F08EFCFEE701F06D
:1004300023FC00DFFEE70000032A30B415D941EAAF
:100440000004A40784460B4604D0541E0FE0043A6F
:10045000032A08D91946604653F8044B5CF8045B3C
:10046000A542F4D0F1E760461946541E7AB1431E06
:100470000139021901E09A4209D013F8010F11F86D
:1004800001CF6045F7D0A0EB0C0030BC70470020D6
:1004900030BC704738B500F09FFC00F0F5FD02F06D
:1004A00007F8054602F03AF80446C0B90E4B9D42E3
:1004B00018D001339D4241F2883512BF0446002511
:1004C0000124002001F0FEFF0CB100F073F800F0F1
:1004D000B5FD284600F0FEF800F06CF8F9E70025BD
:1004E0000124EEE70546ECE7010007B008B500F08F
:1004F00041FCA0F120035842584108BD07B5042132
:1005000001900DEB010000F051FC03B05DF804FB1D
:1005100038B5302383F31188174803680BB101F015
:10052000D1FC0023154A4FF47A71134801F0C0FC46
:10053000002383F31188124C236813B12368013B15
:100540002360636813B16368013B63600D4D2B78D2
:1005500033B963687BB9022000F006FD3223636083
:100560002B78032B07D163682BB9022000F0FCFC29
:100570004FF47A73636038BD4023002011050008F2
:10058000342300203C230020084B187003280CD88B
:10059000DFE800F008050208022000F0DBBC0220C2
:1005A00000F0CEBC024B00225A6070473C23002072
:1005B00034230020F8B5414B414A1C4619680131EB
:1005C0007AD004339342F9D162683E4B9A4273D990
:1005D0003D4B9B6803F1006303F500339A426BD2F5
:1005E000002000F01FFC0220FFF7CEFF374B002158
:1005F000D3F8E820C3F8E810D3F81021C3F810119D
:10060000D3F81021D3F8EC20C3F8EC10D3F8142160
:10061000C3F81411D3F81421D3F8F020C3F8F01064
:10062000D3F81821C3F81811D3F8183172B64FF067
:10063000E023C3F8084DD4E90004BFF34F8FBFF3A4
:100640006F8F234AC2F88410BFF34F8F536923F48E
:1006500080335361BFF34F8FD2F8803043F6E0769A
:10066000C3F3C905C3F34E335B0103EA060C294605
:100670004CEA81770139C2F87472F9D2203B13F148
:10068000200FF2D1BFF34F8FBFF36F8FBFF34F8FA8
:10069000BFF36F8F536923F4003353610023C2F813
:1006A0005032BFF34F8FBFF36F8F302383F3118826
:1006B000854680F308882047F8BD00BF0000020887
:1006C00020000208FFFF0108002200200044025819
:1006D00000ED00E02DE9F04F95B0DFF81C832022FB
:1006E000FF21019004A8D8F8086000F051FCB94A35
:1006F0001378A3B90121B84811700360302383F344
:10070000118803680BB101F0DDFB0023B34A4FF4FD
:100710007A71B14801F0CCFB002383F31188019B6F
:1007200013B1AF4B019A1A60AE4A1378032B03D072
:1007300000231370AA4A53604FF0000A019DD3466C
:100740005446D146012000F005FC25B1A44B1B689E
:10075000002B00F02282002000F00CFB071EF4DBCF
:10076000012000F0EDFBA7F121031F2BEAD801A225
:1007700052F823F0F5070008110800089B0800084C
:100780004507000845070008450700082709000835
:100790000D0B0008FD0900085B0A0008810A00082B
:1007A000A70A000845070008B90A0008DD0A000882
:1007B000550B00087B08000845070008A10B00083E
:1007C000010800087B080008450700085B0A0008CC
:1007D00045070008450700084507000845070008C9
:1007E00045070008450700084507000845070008B9
:1007F0009B0800080220FFF779FE002840F0E78000
:10080000019B02217848BAF1000F08BF1D463EE067
:100810004FF47A7000F0AEFA071EF1DB0220FFF70A
:1008200065FE0028ECD0013F052F00F2E381DFE8F0
:1008300007F003070A0D10310520FFF75FFE14E0F3
:10084000D8F80000F9E7D8F80400F6E7D8F808006F
:10085000F3E74FF01C09484609F1040900F0E4FAF7
:10086000FFF74CFEB9F12C0FF5D101234FF0000931
:10087000BB404BEA03035FFA83FB00F0D5FB24B1D6
:100880000BF00B030B2B08BF00250221574800F08B
:100890008DFA57E7D8F80C00CFE7002CB0D00BF05A
:1008A0000B030B2B61D10220FFF720FE044600282A
:1008B0005BD001204FF0000A00F0B4FA0220FFF7ED
:1008C00063FE1FFA8AF31846029300F0BBFA029BFC
:1008D000054688B9434B01222E4602201A7000F0CB
:1008E0002FFBD8F80830B34216D800263D4BA2465D
:1008F0001E703B4B5E60C0E7A7F1400218460AF14C
:10090000010A5142514100F0ADFA05460028D8D104
:10091000A24602213648BAE7304600F085FA013097
:10092000F6D10436DDE7002C3FF46AAF0BF00B0381
:100930000B2B1AD10220FFF727FE322000F01AFA03
:10094000071E12DB17F003030FD1BA19D8F80810ED
:100950008A420AD8B7F5807F07D8264A9F4206DC2C
:10096000C820FFF7C3FD044680B9012448E74FF4CF
:100970007A70CDE9023200F0FDF90028FFF640AFB1
:10098000039A029B02F8010B0133E7E71F2E11D8EF
:10099000C6F1200204AB26F003001649BA421844FF
:1009A00028BF3A46029200F0E9FA029AFF21114864
:1009B00000F0EEFABB10C7F387020E4930460293EF
:1009C00000F0EEFA0028A4D0029B06EB8306044652
:1009D00053E700BF3023002040230020110500080A
:1009E000342300203C230020AC2F0008B02F000847
:1009F000A82F000830220020002200200220FFF74C
:100A000075FD00283FF4FCAE00F04AFA00283FF4E0
:100A1000F7AE00273B4612E01F2F18D8049A013288
:100A200015D027F0030250326A4452F8400C0C9063
:100A3000042218460CA900F039FB04370346D8F805
:100A40000820BA42E8D81846FFF758FD15E738469F
:100A5000029300F0E9F9029BE9E7002364210CA866
:100A60000C9300F09BF900287FF4CAAE0220FFF738
:100A70003DFD00283FF4C4AE0C9800F007FAE3E710
:100A8000002364210CA80C9300F088F900287FF45F
:100A9000B7AE0220FFF72AFD00283FF4B1AE0C9854
:100AA00000F0F6F9D0E70220FFF720FD00283FF420
:100AB000A7AE00F005FAC7E70220FFF717FD0028F0
:100AC0003FF49EAE0CA9142000F000FA0746FFF791
:100AD00015FD39460CA800F069F9CEE60220FFF7B3
:100AE00005FD00283FF48CAE444B0CAF03F1100C15
:100AF0001868083353F8041C3A46634503C2174686
:100B0000F6D11020FFF7FAFC1021E3E7322000F0C5
:100B100031F9071EFFF674AEBB077FF471AE07EB29
:100B20000903D8F8082093423FF66AAE0220FFF787
:100B3000DDFC00283FF464AE27F003074F44B945BD
:100B40003FF49BAE484609F1040900F06DF9FFF748
:100B5000D5FCF4E74FF47A70FFF7C8FC00283FF4A7
:100B60004FAE00F09DF900283FF4D3AE049B013353
:100B70000CD0082204A9002000F012FA00283FF44B
:100B8000C8AE2022FF2104A800F002FA1C4802216E
:100B900000F00CF91B4801F0DDF815B0BDE8F08F4E
:100BA000002C3FF42DAE0BF00B030B2B7FF428AE83
:100BB000002364210CA80C9300F0F0F807460028ED
:100BC0007FF41EAE0220FFF791FC029000283FF454
:100BD00017AE02210A4800F0E9F841F2883001F02E
:100BE000B9F80C9800F036FA3D4600F01DFA029B69
:100BF0001C46A7E54FF0000902E600BF5C2F000885
:100C0000B02F0008A0860100104B70B51B78054678
:100C10000C460133DBB2012B11D80D4B18684FF491
:100C20007A730168A2FB033222460E6A2946B04756
:100C3000844204D1074B002201201A7070BD4FF48A
:100C4000FA7001F087F80020F8E700BF10220020BA
:100C5000142200208823002000232DE9F0471A46A3
:100C6000054688460120194600F01EFC04468020F7
:100C700001F0AEFB074668B364B33C4E28464FF024
:100C8000800A736943F0C0637361D6F8143143F08E
:100C9000C063C6F8143101F017FA05EB080200FB37
:100CA00005F34FF03D0C00FB02FE4FF4D06073459E
:100CB00012D3204600F038FC384601F0BFFB2B4B26
:100CC0005A6942F0C0625A61D3F8142142F0C062FE
:100CD000C3F81421BDE8F08731694A012CD4D6F855
:100CE0001011490128D4226803F100619160216844
:100CF000CF602168C1F804A021680860D4F8009092
:100D0000D9F8001041F00101C9F80010D4F80090A2
:100D1000D9F8001021F01E01C9F80010D4F8009095
:100D2000D9F80010CA07FBD494F80C90803362689D
:100D30000CFA09F11160BAE70D4B9A6A42F400729D
:100D40009A629A6A42F400429A6261B600260120D1
:100D500001F0A0FAB04503D8002001F09BFAA8E703
:100D6000A819013601F0CAF9F4E700BF00200052CB
:100D700000ED00E0002307B5024601210DF1070058
:100D80008DF80730FFF740FF20B19DF8070003B052
:100D90005DF804FB4FF0FF30F9E700000A4604213C
:100DA00008B5FFF731FF013808BD0000074B0A46C0
:100DB00030B419780546064B53F8210029460368DC
:100DC000DC69044BA44630BC604700BF8823002088
:100DD00014220020A086010070B5104C0026104D92
:100DE00001F076F9208028682388834208D901F031
:100DF0006BF92B6806440133B6F5003F2B60F2D344
:100E000000252088013801F05FF923880544013B63
:100E1000B5F5802F2380F4D370BD00BF8023002060
:100E20008423002001F036BA00F1006000F50030A4
:100E30000068704700F10060920000F5003001F09A
:100E4000A5B90000054B1A68054B1B889B1A834205
:100E500002D9104401F038B90020704784230020E3
:100E60008023002038B5084D0446286829B1286839
:100E70002044BDE8384001F041B9204401F02AF98E
:100E80000028F4D038BD00BF842300200020704724
:100E900000F1FF5000F58F10D0F8000870470000F7
:100EA000064991F8243033B100230822086A81F8FA
:100EB0002430FFF7BFBF0120704700BF5823002038
:100EC000014B1868704700BF0010005C194B1A4AAC
:100ED00070B51D68431E0420C5F30B040B442D0C94
:100EE000013808D19942084610D30524134A013C21
:100EF00015D1401A70BD1688A6420ED15268084618
:100F0000013A9842F1D212F9014F1CB92C2200F893
:100F1000012BEAE700F8014BF3E70832E0E7168817
:100F2000AE4204D198423CBF967800F8016B04327F
:100F3000DDE700BF0010005C18220020B42F00087D
:100F4000022803D1024B4FF000529A61704700BF54
:100F500000080258022803D1024B4FF400529A6154
:100F6000704700BF00080258022804D1024A5369A2
:100F700083F400535361704700080258002310B5F2
:100F8000934200D110BDCC5CC4540133F8E700009B
:100F900002440346934200D1704703F8011BF9E76E
:100FA0002DE9F8431F4D14460746884695F824203E
:100FB00022B9DFF870906CB9012009E02B6A03EBCD
:100FC00082038342F5D0FFF76BFF0028F1D10020A8
:100FD000BDE8F88395F824302BB92022FF2148463C
:100FE0002F62FFF7D5FF95F824004146C0F10802B3
:100FF00005EB8000A24228BF2246D6B29200FFF73E
:10100000BDFF95F82430A41B17441E449044E4B25D
:10101000F6B2082E85F82460CDD1FFF741FF0028F5
:10102000C9D1D4E758230020024B1A78024B1A701A
:10103000704700BF88230020102200204FF4E133C6
:1010400002490B60024B186800F05CBD8C23002045
:101050001422002038B5094C0546182200212046EC
:10106000FFF796FF064B214625601A78054B53F88B
:101070002200BDE8384000F045BD00BF8C230020B1
:10108000882300201422002008B571B6054B19886A
:10109000054B1888FFF7E0FD02210E20FFF7DCFD6D
:1010A00061B608BD802300208423002030B50A44A7
:1010B000084D914200D130BD11F8013B5840082342
:1010C00040F30004013B2C4013F0FF0384EA50007E
:1010D000F6D1EEE72083B8ED08B5074B074A19684B
:1010E00001F03D01996053680BB190689847BDE8E5
:1010F000084001F055BA00BF00000240A4230020C0
:1011000008B5084B1968890901F03D018A019A6008
:10111000054AD3680BB110699847BDE8084001F053
:101120003FBA00BF00000240A423002008B5084BCE
:101130001968090C01F03D010A049A60054A5369D7
:101140000BB190699847BDE8084001F029BA00BF8B
:1011500000000240A423002008B5084B1968890D3F
:1011600001F03D018A059A60054AD3690BB1106A06
:101170009847BDE8084001F013BA00BF00000240E4
:10118000A423002008B5074B074A596801F03D0128
:10119000D960536A0BB1906A9847BDE8084001F0E6
:1011A000FFB900BF00000240A423002008B5084B8F
:1011B0005968890901F03D018A01DA60054AD36A5C
:1011C0000BB1106B9847BDE8084001F0E9B900BFCA
:1011D00000000240A423002008B5084B5968090C00
:1011E00001F03D010A04DA60054A536B0BB1906BC4
:1011F0009847BDE8084001F0D3B900BF00000240A5
:10120000A423002008B5084B5968890D01F03D0161
:101210008A05DA60054AD36B0BB1106C9847BDE8BC
:10122000084001F0BDB900BF00000240A423002027
:1012300008B5074B074A196801F03D019960536CE6
:101240000BB1906C9847BDE8084001F0A9B900BF08
:1012500000040240A423002008B5084B196889093E
:1012600001F03D018A019A60054AD36C0BB1106D03
:101270009847BDE8084001F093B900BF0004024060
:10128000A423002008B5084B1968090C01F03D01A2
:101290000A049A60054A536D0BB1906D9847BDE8FA
:1012A000084001F07DB900BF00040240A4230020E3
:1012B00008B5084B1968890D01F03D018A059A604F
:1012C000054AD36D0BB1106E9847BDE8084001F098
:1012D00067B900BF00040240A423002008B5074BF3
:1012E000074A596801F03D01D960536E0BB1906E09
:1012F0009847BDE8084001F053B900BF0004024020
:10130000A423002008B5084B5968890901F03D0164
:101310008A01DA60054AD36E0BB1106F9847BDE8B9
:10132000084001F03DB900BF00040240A4230020A2
:1013300008B5084B5968090C01F03D010A04DA6050
:10134000054A536F0BB1906F9847BDE8084001F014
:1013500027B900BF00040240A423002008B5084BB1
:101360005968890D01F03D018A05DA60054AD36F9D
:1013700013B1D2F880009847BDE8084001F010B9D9
:1013800000040240A423002000230C4A10B5194693
:101390000B4C42F8043B54F82300016042F8131050
:1013A0000433402BF7D1074A4FF0FF339360D360EB
:1013B000C2F80834C2F80C3410BD00BFA4230020CA
:1013C000C42F00080000024011282DE9F041884692
:1013D00011D004D8102810D10F24002003E01228C7
:1013E00007D10F2407202D4F4FF0010C3D68A0427C
:1013F00005D900204DE00724EFE70446F3E70CFA97
:1014000000F6354247D107EBC0043543C4E9012358
:10141000F3B23D6073B1224BD3F8D84044F00104DD
:10142000C3F8D840D3F8004144F00104C3F80041A8
:10143000D3F8003116F47F4F0ED0194BD3F8D840B3
:1014400044F00204C3F8D840D3F8004144F0020449
:10145000C3F80041D3F800310501124C63591868F4
:1014600020F01F001860186810F00100FBD1661909
:101470004FF03D0C96F80CE071680CFA0EF70F6017
:101480001860212058611AB14146B07B00F068F91C
:101490006019BDE8F0810130A9E700BFA423002056
:1014A00000440258C42F000810B5302484F311887A
:1014B000FFF78AFF002383F3118810BD10B504469F
:1014C000807B00F063F91649637B01229A400B6828
:1014D00023EA0203DAB20B6072B9124AD2F8D810CA
:1014E00021F00101C2F8D810D2F8001121F0010159
:1014F000C2F80011D2F8002113F47F4F0ED1094B2E
:10150000D3F8D82022F00202C3F8D820D3F8002163
:1015100022F00202C3F80021D3F8003110BD00BF51
:10152000A42300200044025808B5302383F3118817
:10153000FFF7C4FF002383F3118808BD02684368E6
:101540000A43026003B1184770470000024A13685B
:1015500043F0C00313607047007C004013B50E4C8D
:10156000204600F0C3FA04F1140000234FF4007287
:101570000A49009400F080F9094B4FF400720949C0
:1015800004F13800009400F0F9F9074A074BC4E968
:10159000172302B010BD00BF2828002028260020F5
:1015A0004D15000828240020007C004000E1F505CE
:1015B000264B30B5002914BF0C461C46037C012B7A
:1015C00011D1234B98420ED1224BD3F8E82042F0A0
:1015D0000042C3F8E820D3F8102142F00042C3F8DB
:1015E0001021D3F810312268036EC16D03EB520352
:1015F0008466B3FBF2F36268150442BF23F007056B
:1016000003F0070343EA4503CB60A36843F04003BC
:101610004B60E36843F001038B6042F4967343F040
:1016200001030B604FF0FF330B6251050AD512F036
:10163000102209D0B2F1805F14BFFF233F2380F84E
:10164000643030BDFF23FAE77F23F8E7C430000899
:1016500028280020004402582DE9F047C66D0446B2
:101660003768F5692A07356219D045F30001C5F3DB
:10167000C00301F0200141EA0321AB074FF0300322
:1016800048BF41F04001680748BF41F0800183F343
:101690001188201DFFF752FF002383F31188EA050C
:1016A0000AD5302383F311884FF48061201DFFF7A2
:1016B00045FF002383F311884FF030094FF0000AF3
:1016C0000BE089F31188736A204694F8641019407E
:1016D00000F026FA8AF31188F56915F02008F0D198
:1016E0003B0616D54FF0300A04F13809280610D50C
:1016F0008AF31188484600F075F9002829DA082194
:10170000201DFFF71BFF27F080033360002383F3C6
:101710001188790614D56A0612D5302383F311880F
:10172000D4E913239A4208D1236C33B127F0400740
:101730001021201DFFF702FF3760002383F311887B
:10174000EB060BD5A26E136943B15069BDE8F047B3
:101750001847B06288F31188F569C7E7BDE8F087DC
:10176000090100F16043012203F56143C9B283F826
:10177000001300F01F039A4043099B0003F16043EC
:1017800003F56143C3F880211A60704700F01F031E
:1017900001229A40430900F160409B0000F561403E
:1017A00003F1604303F56143C3F88020C3F880214F
:1017B000002380F800337047F8B515468268044668
:1017C0000B46AA4200D28568A1692669761AB542FD
:1017D0000BD22A461846FFF7D1FBA2692A44A36818
:1017E0002846A2615B1BA360F8BD0CD9AF1B18464D
:1017F0003246FFF7C3FB3A46E1683044FFF7BEFBD1
:10180000E368DA19EBE72A461846FFF7B7FBE26808
:10181000E5E70000836893422DE9F04104460E4657
:10182000154600D28568D4E904703F1ABD420CD237
:101830002A463146FFF7A2FB62692A44A36828467C
:1018400062615B1BA360BDE8F0810ED9A5EB0708C0
:101850003A463146FFF792FB4246F119E068FFF73E
:101860008DFBE36803EB0802E8E72A463146FFF701
:1018700085FBE268E2E7000010B5C1600024C361A7
:10188000029B84600362C0E905111144C0E90000B5
:10189000016110BD08B5D0E90532934201D18268DB
:1018A00082B98268013282605A1C4261197000213B
:1018B000D0E904329A4224BFC368436100F066FA5B
:1018C000002008BD4FF0FF30FBE7000070B530236B
:1018D00004460D4683F31188A668A6B1A368A269E1
:1018E000013BA360531CA36115782269934224BF76
:1018F000E368A361E3690BB120469847002383F3B3
:101900001188284607E02946204600F02FFA0028D3
:10191000E2DA86F3118870BD2DE9F74F05460F46D0
:1019200014469946D0F81CA04FF0300888F311886F
:101930004FF0000B164666B1324639462846FFF78F
:101940003BFF034660B94946284600F00FFA0028DD
:10195000F2D0002383F31188A01B03B0BDE8F08F01
:10196000BAF1000F03D001902846D047019B8BF3BA
:101970001188F61A1F4488F31188DCE7C160C3613F
:10198000009B82600362C0E905111144C0E90000B8
:1019900001617047F8B504460D461646302383F3BF
:1019A0001188A768A7B1A368013BA36063695A1CAB
:1019B00062611D70D4E904329A4224BFE368636116
:1019C000E3690BB120469847002080F3118807E0B7
:1019D0003146204600F0CAF90028E2DA87F3118880
:1019E000F8BD0000D0E9052310B59A4201D1826804
:1019F0007AB982680021013282605A1C82611C78A7
:101A000003699A4224BFC368836100F0BFF920468E
:101A100010BD4FF0FF30FBE72DE9F74F05460F46AD
:101A200014469946D0F81CA04FF0300888F311886E
:101A30004FF0000B164666B1324639462846FFF78E
:101A4000E9FE034660B94946284600F08FF90028B0
:101A5000F2D0002383F31188A01B03B0BDE8F08F00
:101A6000BAF1000F03D001902846D047019B8BF3B9
:101A70001188F61A1F4488F31188DCE7026843686E
:101A80000A43026003B11847704700001430FFF7A3
:101A900043BF00004FF0FF331430FFF73DBF00009D
:101AA0003830FFF7B9BF00004FF0FF333830FFF791
:101AB000B3BF00001430FFF709BF00004FF0FF3143
:101AC0001430FFF703BF00003830FFF763BF00009A
:101AD0004FF0FF323830FFF75DBF0000012914BF1F
:101AE0006FF0130000207047FFF738BD044B036010
:101AF00000234360C0E9023301230374704700BF31
:101B0000DC30000810B53023044683F31188FFF75A
:101B10004FFD02230020237480F3118810BD0000C4
:101B200038B5C36904460D461BB904210844FFF7C4
:101B3000A5FF294604F11400FFF7ACFE002806DAE1
:101B4000201D4FF40061BDE83840FFF797BF38BD56
:101B500000238268037503691B6899689142FBD270
:101B60005A680360426010605860704700238268C2
:101B7000037503691B6899689142FBD85A68036032
:101B8000426010605860704708B50846302383F300
:101B900011880A7D0023052A06D8DFE802F00B052C
:101BA0000503120E826913604FF0FF338361FFF764
:101BB000CFFF002383F3118808BD82699368013346
:101BC0009360D0E9003213605A60EDE7FFF7C0BFC1
:101BD000054BD96808751868026853601A600122BD
:101BE000D8600275FEF70EBCA82A00200C4B30B559
:101BF000DD684B1C87B004460FD02B46094A684667
:101C000000F056F92046FFF7E3FF009B13B168464A
:101C100000F058F9A86907B030BDFFF7D9FFF9E720
:101C2000A82A0020891B000838B50C4D04468161A4
:101C3000EB6881689A68914203D8BDE83840FFF7A5
:101C400087BF1846FFF792FF01230146EC6020464C
:101C50002375BDE83840FEF7D5BB00BFA82A002099
:101C6000044B1A68DB6890689B68984294BF002018
:101C700001207047A82A0020084B10B51C68D868BE
:101C8000226853601A600122DC602275FFF76EFF44
:101C900001462046BDE81040FEF7B4BBA82A00204C
:101CA00038B50123084C00252370656000F04CFD19
:101CB00000F072FD0549064800F048FE022323703B
:101CC00085F3118838BD00BF002B002004310008C7
:101CD000A82A002000F02CB98B6002230861084676
:101CE0008B8270478368A3F1840243F8142C026945
:101CF00043F8442C426943F8402C094A43F8242C09
:101D0000C268A3F1200043F8182C022203F80C2C1F
:101D1000002203F80B2C034A43F8102C704700BF35
:101D20001D040008A82A002008B5FFF7DBFFBDE866
:101D30000840FFF74BBF0000024BDB6898610F20A3
:101D4000FFF746BFA82A0020302383F31188FFF74E
:101D5000F3BF000008B50146302383F31188082043
:101D6000FFF744FF002383F3118808BD064BDB68AF
:101D700039B1426818605A60136043600420FFF76D
:101D800035BF4FF0FF307047A82A00200346006897
:101D9000834205D002681A6053608161FFF716BF65
:101DA00070470000036810B59C68A2420CD85C68BC
:101DB0000B608A604C60216059609968891A99604B
:101DC0004FF0FF33836010BD121B1B68ECE700006F
:101DD0000A2938BF0A2170B504460D460A26601943
:101DE00000F0ACFC00F094FC041BA54203D8751C69
:101DF00004462E46F3E70A2E04D90120BDE87040C0
:101E000000F0E4BD70BD0000F8B5144B14460A277D
:101E10000D46D9610A2C826003F1100238BF0A24F2
:101E200042601A69026050601861081900F076FC7F
:101E300000F06EFC431B0646A34206D37C1C281907
:101E40002746354600F07AFCF2E70A2F04D9012034
:101E5000BDE8F84000F0BABDF8BD00BFA82A0020D8
:101E600070B50D46064600F053FC0F490B4653F87B
:101E7000102F9A4206D12A4601463046BDE87040EE
:101E8000FFF7C2BFCB69C41A93682C1928BF2C4630
:101E9000A34202D92946FFF79BFF22463146034859
:101EA000BDE87040FFF77EBFA82A0020B82A0020B6
:101EB000C0E90323002310B45DF8044B4361FFF72E
:101EC000CFBF000010B5194C236998420DD081682E
:101ED000D0E9003213605A609A680A449A6000237D
:101EE00003604FF0FF33A36110BD0268234643F83F
:101EF000102F53600022026022699A4203D1BDE88C
:101F0000104000F015BC936881680B44936000F0AA
:101F1000FFFB2269E1699268441AA242E4D91144A4
:101F2000BDE81040091AFFF753BF00BFA82A0020E0
:101F30002DE9F047DFF8B88008F110072B4ED8F8EC
:101F4000105000F0E5FBD8F81C40AA68011B8A423B
:101F50003DD81444D5E90032C8F81C4013605A60DB
:101F600000232B609946D8F81020B24201D100F02E
:101F7000DFFB89F31188D5E90331284698473023E0
:101F800083F311886B69002BD9D000F0C1FB6A691B
:101F9000A0EB040982464A450DD2022000F016FD4E
:101FA0000022D8F81030B34208D151462846BDE887
:101FB000F047FFF729BF2244121AF2E712EB090992
:101FC0002946384638BF4A46FFF7ECFEB6E7D8F850
:101FD0001010B14208D01444C8F81C00211AA9609E
:101FE000BDE8F047FFF7F4BEBDE8F087B82A00204F
:101FF000A82A002000207047FEE70000704700007C
:102000004FF0FF3070470000BFF34F8F044B1A6949
:102010005107FCD1D3F810215207F8D1704700BF07
:102020000020005208B50D4B1B78ABB9FFF7ECFF51
:102030000B4BDA68D10704D50A4A5A6002F188329C
:102040005A60D3F80C21D20706D5064AC3F80421FA
:1020500002F18832C3F8042108BD00BF082B00201C
:10206000002000522301674508B5114B1B78F3B9D6
:10207000104B1A69510703D5DA6842F04002DA6062
:10208000D3F81021520705D5D3F80C2142F04002B5
:10209000C3F80C21FFF7B8FF064BDA6842F00102E3
:1020A000DA60D3F80C2142F00102C3F80C2108BD1C
:1020B000082B0020002000520F289ABF00F58060F6
:1020C00040040020704700004FF4003070470000CB
:1020D000102070470F2808B50ED8FFF7EDFF0368F2
:1020E000013309D100F500330430834201D10120CE
:1020F00008BD02680132F7D00020F9E70F2838B593
:1021000005463FD8FFF780FF1F4CFFF78BFF4FF0CE
:10211000FF3307286361C4F814311DD82361FFF72A
:1021200073FF030243F02403E360E36843F080039A
:10213000E36023695A07FCD42846FFF765FFFFF7E1
:10214000BBFF4FF4003100F0CBF92846FFF78CFFBE
:10215000BDE83840FFF7BEBFC4F81031FFF754FFA9
:10216000A0F108031B0243F02403C4F80C31D4F897
:102170000C3143F08003C4F80C31D4F810315B0704
:10218000FBD4D9E7002038BD002000522DE9F84FDC
:1021900004460D46104644EA0203DB0602D0002046
:1021A000BDE8F88F20F01F00DFF8E0A0DFF8E0B016
:1021B000FFF738FF05EB0008454503D10120FFF785
:1021C00053FFEDE7202229462046FEF735F910B9E6
:1021D00020342035F0E723680133E0D1234604F1B1
:1021E00020020433934244D104F17843234E24481F
:1021F000B3F5801F234B28BF9946A3F582732EBFEA
:102200005846D1461E46FFF7FFFE4FF0FF33A4EBC2
:10221000050C05F11C010360336843F002033360D1
:102220002B1FD9F8007017F00507FAD153F8042FC7
:102230008B424CF80320F4D1BFF34F8FFFF7E4FE3D
:102240004FF0FF330360336823F002033360BFF3C2
:102250004F8F0D4BC3F85C42BFF34F8FBFF36F8FAF
:10226000202229462046FEF7E7F80028B0D038465D
:10227000A5E719680131B4D091E700BF0C210052E5
:10228000142000521021005200ED00E010200052F6
:102290001421005210B5084C237828B11BB9FFF760
:1022A000C1FE0123237010BD002BFCD02070BDE8BF
:1022B0001040FFF7D9BE00BF082B00202DE9F74FD3
:1022C0000D468246002878D011F00D070CBF082675
:1022D000202611F0080300933BD0431E03426CD12B
:1022E00006460AF11F0121F01F0A4FF00109DFF82D
:1022F000DC8005F0040305EA090BBBF1000F38D0C0
:10230000D8F81420D20734D409F1010908F10C08D7
:10231000B9F1060FF1D187B9294D32465146E81976
:1023200000F05CFA044600BB1837782FF5D132462E
:10233000514600F053FA0446B8B932465146214896
:1023400000F04CFA0446002832D1204603B0BDE824
:10235000F08F002FC5D10029C7D10146324628464B
:1023600000F03CFA04460028BFD052460021204627
:1023700020E01BB1D8F814205407C5D5A80703D511
:10238000D8F814209107BFD5009A1AB1D8F81420B4
:102390001207B9D5019318200B4B3246514600FB6A
:1023A000093000F01BFA019B04460028ACD0DCE7A2
:1023B00052460021FEF7ECFDC7E70024C5E700BF49
:1023C0003C2B00200C2B0020242B00201031000877
:1023D0000121FFF773BF0000F8B500231A461A6009
:1023E0000433B3F5806FFAD1114D01241827114E33
:1023F00007FB046001342A6955F80C1F00F0DAF974
:10240000062CF5D137254FF4C0542046FFF7E0FFE6
:10241000014628B122460848BDE8F84000F0CAB994
:10242000C4EBC404013D4FEAD404EED1F8BD00BFB3
:1024300010310008242B00200C2B002008B100F0E4
:1024400041BA70470244074BD2B210B5904200D156
:1024500010BD441C00B253F8200041F8040BE0B258
:10246000F4E700BF504000580E4B30B51C6F2404F9
:1024700005D41C6F1C671C6F44F400441C670A4C95
:1024800002442368D2B243F480732360074B904226
:1024900000D130BD441C51F8045B00B243F8205019
:1024A000E0B2F4E700440258004802585040005897
:1024B00007B5012201A90020FFF7C4FF019803B06E
:1024C0005DF804FB13B50446FFF7F2FFA04205D008
:1024D000012201A900200194FFF7C6FF02B010BD40
:1024E0000144BFF34F8F064B884204D3BFF34F8F95
:1024F000BFF36F8F7047C3F85C022030F4E700BF72
:1025000000ED00E0034B1A681AB9034AD2F8D02450
:102510001A607047B42B00200040025808B5FFF73E
:10252000F1FF024B1868C0F3806008BDB42B002097
:10253000EFF30983054968334A6B22F001024A63CD
:1025400083F30988002383F31188704700EF00E0CC
:10255000302080F3118862B60D4B0E4AD96821F401
:10256000E0610904090C0A430B49DA60D3F8FC2046
:1025700042F08072C3F8FC20084AC2F8B01F11680C
:1025800041F0010111602022DA7783F822007047C0
:1025900000ED00E00003FA0555CEACC5001000E0E8
:1025A000302310B583F311880E4B5B6813F400637E
:1025B00014D0F1EE103AEFF309844FF08073683CC9
:1025C000E361094BDB6B236684F30988FFF748FB63
:1025D00010B1064BA36110BD054BFBE783F31188D7
:1025E000F9E700BF00ED00E000EF00E02F04000875
:1025F0003204000870B5BFF34F8FBFF36F8F1A4AD4
:102600000021C2F85012BFF34F8FBFF36F8F536991
:1026100043F400335361BFF34F8FBFF36F8FC2F8A2
:102620008410BFF34F8FD2F8803043F6E074C3F3C9
:10263000C900C3F34E335B0103EA0406014646EAD0
:1026400081750139C2F86052F9D2203B13F1200F95
:10265000F2D1BFF34F8F536943F480335361BFF31B
:102660004F8FBFF36F8F70BD00ED00E0FEE70000FD
:10267000214B2248224A70B5904237D3214BC11ECC
:10268000DA1C121A22F003028B4238BF002200210A
:10269000FEF77EFC1C4A0023C2F88430BFF34F8F44
:1026A000D2F8803043F6E074C3F3C900C3F34E336D
:1026B0005B0103EA0406014646EA81750139C2F866
:1026C0006C52F9D2203B13F1200FF2D1BFF34F8FA0
:1026D000BFF36F8FBFF34F8FBFF36F8F0023C2F82D
:1026E0005032BFF34F8FBFF36F8F70BD53F8041B91
:1026F00040F8041BC0E700BFC0320008D82B002000
:10270000D82B0020D82B002000ED00E000F05EBAAE
:10271000014B586A704700BF000C0040034B002279
:1027200058631A610222DA60704700BF000C004053
:10273000014B0022DA607047000C0040014B5863E7
:10274000704700BF000C0040024B034A1A60034A66
:102750005A607047B82B0020D82B002000000220C0
:10276000074B494210B55C68201A08401968821A64
:102770008A4203D3A24201D85A6010BD0020FCE770
:10278000B82B002008B5302383F31188FFF7E8FF4A
:10279000002383F3118808BD04480121044B036022
:1027A0000023C0E901330C3000F018B9C02B002021
:1027B00085270008CB1D083A23F00703591A521A3F
:1027C000012110B4D2080024C0E9004384600C3019
:1027D0001C605A605DF8044B00F000B92DE9F84F19
:1027E000374BCD1D0F46002814BF80469846082A57
:1027F0004FEAD50538BF082208F10C0A9146504629
:1028000000F008F908F1040209F10701C9F1000C10
:10281000146874B9504600F007F9D8F80030CBB30B
:1028200008224946E8009847044698B340E90287E1
:1028300030E06618D4F804E006EA0C060EF1010355
:10284000A6F1080004EBC303834237D99E1BB5EB06
:10285000E60F4FEAE60B31D884421ED204F108039A
:10286000AB45A0EB03034FEAE30363600BD9691C9C
:10287000ABEB050B00EBC1020BF1FF335360236898
:1028800040F83130226004464760504644F8088BD7
:1028900000F0CAF82046BDE8F88FAE4521680AD09E
:1028A000013504EBC50044F8351000F108015B1A4E
:1028B0000146DB10436020461160E4E72246A7E7AB
:1028C000C02B0020F8B550F8043C044650F8085CD2
:1028D000A0F1080607332F1D0C35DB0840F8043C37
:1028E000284600F097F83B469F421A6801D0B34251
:1028F00028D20AB1964225D244F8082C54F8042C68
:102900001E60013254F8081C06EBC200814206D159
:10291000486810440A6844F8040C44F8082C5968C4
:102920004A1C03EBC202964207D154F8042C013230
:102930000A445A6054F8082C1A602846BDE8F8404A
:1029400000F072B81346CFE7FEE7000070B500252F
:1029500004461A4B86B085620E4601635860FFF745
:10296000F7FD04F11003A560E562C4E904334FF0FC
:10297000FF33C4E90044C4E90635FFF7C9FE2B461E
:10298000024604F134012046C4E9082380230C4A9E
:102990002565FFF7A1F901230A4AE060009203755B
:1029A000684672680192B268CDE90223064BCDE910
:1029B0000435FFF7B9F906B070BD00BF002B002049
:1029C0009B2F0008A02F000849290008024AD36A5B
:1029D0000343D362704700BFA82A0020C0E900006B
:1029E000816070478368013B002B10B583600CDA6F
:1029F000074BDC684368A061206063601C60446032
:102A00000520FFF7E5F8A06910BD0020FCE700BF36
:102A1000A82A002008B5302383F31188FFF7E2FFCE
:102A2000002383F3118808BD08B53022034682F3E2
:102A3000118882680132002A826006DC0068002169
:102A400002681A605360FFF7EFF8002383F31188E0
:102A500008BD00004B6843608B688360CB68C3602F
:102A60000B6943614B6903628B6943620B680360C6
:102A70007047000008B53B4B40F2FF713A48D3F86D
:102A800088200A43C3F88820D3F888206FF30A020D
:102A9000C3F88820D3F88820D3F8E0200A43C3F88D
:102AA000E020D3F808210A43C3F808212F4AD3F8BD
:102AB00008311146FFF7CEFF00F5806002F11C01DE
:102AC000FFF7C8FF00F5806002F13801FFF7C2FF91
:102AD00000F5806002F15401FFF7BCFF00F5806053
:102AE00002F17001FFF7B6FF00F5806002F18C0182
:102AF000FFF7B0FF00F5806002F1A801FFF7AAFF21
:102B000000F5806002F1C401FFF7A4FF00F58060CA
:102B100002F1E001FFF79EFF00F5806002F1FC0189
:102B2000FFF798FF02F58C7100F58060FFF792FFC8
:102B300000F018F90E4BD3F8902242F00102C3F8CE
:102B40009022D3F8942242F00102C3F89422052285
:102B5000C3F898204FF06052C3F89C20054AC3F890
:102B6000A02008BD00440258000002585831000857
:102B700000ED00E01F00080308B500F0DFF9FFF7E3
:102B80008FF80F4BD3F8DC2042F04002C3F8DC2072
:102B9000D3F8042122F04002C3F80421D3F8043111
:102BA000084B1A6842F008021A601A6842F00402E0
:102BB0001A60FFF7A7FCBDE80840FFF70DBC00BF97
:102BC000004402580018024870470000114BD3F827
:102BD000E82042F00802C3F8E820D3F8102142F0C0
:102BE0000802C3F810210C4AD3F81031D36B43F01C
:102BF0000803D363C722094B9A624FF0FF32DA62AF
:102C000000229A615A63DA605A6001225A611A609E
:102C1000704700BF004402580010005C000C0040E8
:102C2000094A08B51169D3680B40D9B29B076FEA0E
:102C30000101116107D5302383F31188FFF74AF8AA
:102C4000002383F3118808BD000C0040064BD3F825
:102C5000DC200243C3F8DC20D3F804211043C3F87E
:102C60000401D3F8043170470044025808B53C4BC6
:102C70004FF0FF31D3F8802062F00042C3F880208B
:102C8000D3F8802002F00042C3F88020D3F88020DF
:102C9000D3F88420C3F88410D3F884200022C3F82A
:102CA0008420D3F88400D86F40F0FF4040F4FF0048
:102CB00040F4DF4040F07F00D867D86F20F0FF403D
:102CC00020F4FF0020F4DF4020F07F00D867D86FA9
:102CD000D3F888006FEA40506FEA5050C3F888007C
:102CE000D3F88800C0F30A00C3F88800D3F888003E
:102CF000D3F89000C3F89010D3F89000C3F8902058
:102D0000D3F89000D3F89400C3F89410D3F894004B
:102D1000C3F89420D3F89400D3F89800C3F898101F
:102D2000D3F89800C3F89820D3F89800D3F88C0013
:102D3000C3F88C10D3F88C00C3F88C20D3F88C0027
:102D4000D3F89C00C3F89C10D3F89C10C3F89C20C7
:102D5000D3F89C30FEF718FBBDE8084000F0DEB861
:102D60000044025808B50122534BC3F80821534BC5
:102D7000D3F8F42042F00202C3F8F420D3F81C2167
:102D800042F00202C3F81C210222D3F81C314C4B42
:102D9000DA605A689104FCD54A4A1A6001229A60A6
:102DA000494ADA6000221A614FF440429A61444B6A
:102DB0009A699204FCD51A6842F480721A603F4BFB
:102DC0001A6F12F4407F04D04FF480321A67002249
:102DD0001A671A6842F001021A60384B1A685007E5
:102DE000FCD500221A611A6912F03802FBD10121C8
:102DF00019604FF0804159605A67344ADA62344AA8
:102E00001A611A6842F480321A602C4B1A689103D6
:102E1000FCD51A6842F480521A601A689204FCD5F4
:102E20002C4A2D499A6200225A63196301F57C01EC
:102E3000DA6301F5E77199635A64284A1A64284AEB
:102E4000DA621A6842F0A8521A601C4B1A6802F043
:102E50002852B2F1285FF9D148229A614FF4886272
:102E6000DA6140221A621F4ADA641F4A1A651F4A51
:102E70005A651F4A9A6532231E4A1360136803F08D
:102E80000F03022BFAD10D4A136943F003031361B8
:102E9000136903F03803182BFAD14FF00050FFF7F5
:102EA000D5FE4FF08040FFF7D1FE4FF00040BDE867
:102EB0000840FFF7CBBE00BF00800051004402581D
:102EC0000048025800C000F0020000010000FF01AD
:102ED000008890083220600063020901470E05084F
:102EE000DD0BBF0120000020000001100910E000F0
:102EF000000101100020005208B50348FEF7ACFBAA
:102F0000BDE80840FFF74CBB2828002008B5FFF7B4
:102F100087FEBDE80840FFF743BB000008B5092164
:102F20007A20FEF71DFC07213220FEF719FC0C2148
:102F30005320BDE80840FEF713BC000008B5FFF7BA
:102F400095FE00F009F8FEF7CFFDFFF73DFEBDE866
:102F50000840FFF7DBBB00007047000033633965B2
:102F60006231373435333766326634330053544D6B
:102F7000333248373F3F3F0053544D3332483733A5
:102F8000782F3732780053544D3332483734332F4B
:102F90003735332F373530006330006D61696E008F
:102FA00069646C650000000012110000121300003B
:102FB0001210000001105A0003105900012058009F
:102FC00003205600100002400800024000080240A2
:102FD00000000B00280002400800024004080240E4
:102FE00006010C00400002400800024008080240B0
:102FF00010020D0058000240080002400C08024078
:1030000016030E00700002400C000240100802403F
:1030100000040F00880002400C0002401408024027
:1030200006051000A00002400C00024018080240F3
:1030300010061100B80002400C0002401C080240BB
:1030400016072F0010040240080402402008024026
:103050000008380028040240080402402408024006
:1030600006093900400402400804024028080240D2
:10307000100A3A0058040240080402402C0802409A
:10308000160B3B00700402400C0402403008024062
:10309000000C3C00880402400C040240340802404A
:1030A000060D4400A00402400C040240380802400F
:1030B000100E4500B80402400C0402403C080240D7
:1030C000160F4600009600000000000000000000FF
:1030D00000000000000000000000000000000000F0
:1030E000A91A0008951A0008D11A0008BD1A00088C
:1030F000C91A0008B51A0008A11A00088D1A00089C
:10310000DD1A0008982F000898280020A82A00201F
:10311000000000200000020002000000000000305B
:103120000000040008000000000000240000080067
:10313000040000000004000000FC00000200000089
:10314000000004300080000008000000000000388B
:103150000000010001000000000000280000000045
:10316000AAAAAAAA00000024FFFF00000000000095
:10317000000000000000000000000000AAAAAAAAA7
:1031800000000000FFFF0000000000000000000041
:103190000000000400000000AAAAAAAA0000000083
:1031A000FFFF0000000000000000000040010000E0
:1031B00000000000AAAAAAAA40010000FFFF000028
:1031C00000000000000000000A00100000000000E5
:1031D000AAAAAAAA05001000FFFF000088000000AC
:1031E000000000000000000000000000AAAAAAAA37
:1031F00000000000FFFF00000000000000000000D1
:103200000000000000000000AAAAAAAA0000000016
:10321000FFFF0000000000000000000000000000B0
:1032200000000000AAAAAAAA00000000FFFF0000F8
:10323000000000000000000000000000000000008E
:10324000AAAAAAAA00000000FFFF000000000000D8
:10325000000000000000000000000000AAAAAAAAC6
:1032600000000000FFFF0000000000000000000060
:103270000000000000000000AAAAAAAA00000000A6
:10328000FFFF000000000000000000000000000040
:10329000DB1B00000000000000001A00000000001E
:1032A000FF00000028280020000000006D2F00080B
:1032B00083040000782F000850040000862F0008C7
:00000001FF
