:020000040800F2
:1000000000060020E1020008E3020008E302000805
:10001000E3020008E3020008E3020008E30200082C
:10002000E3020008E3020008E30200087D6C000818
:10003000E3020008E3020008E3020008E30200080C
:10004000E3020008E3020008E3020008E3020008FC
:10005000E3020008E3020008E3020008E3020008EC
:10006000E3020008E3020008E3020008C1470008B9
:10007000E947000815480008414800086D48000895
:1000800095480008C1480008E3020008E3020008A0
:10009000E3020008E3020008E3020008E3020008AC
:1000A000E3020008E3020008E3020008E30200089C
:1000B000E3020008E3020008E3020008E30200088C
:1000C000E3020008E3020008E3020008E30200087C
:1000D000E3020008E3020008E3020008E30200086C
:1000E000E3020008E3020008E3020008E30200085C
:1000F000E3020008E3020008E3020008ED480008FC
:10010000E3020008057100082D710008E3020008F1
:10011000E3020008E3020008E3020008E30200082B
:1001200019490008414900086D490008994900082B
:10013000C5490008E3020008E3020008E3020008E2
:10014000E3020008E3020008E3020008E3020008FB
:10015000ED490008194A0008454A0008E302000872
:10016000E3020008E3020008E3020008E3020008DB
:10017000E3020008E3020008E3020008E3020008CB
:10018000E3020008E3020008E30200081971000816
:10019000E3020008E3020008E3020008E3020008AB
:1001A000E3020008E3020008E3020008E30200089B
:1001B000E3020008E3020008E3020008E30200088B
:1001C000E3020008E3020008E3020008E30200087B
:1001D000E3020008E3020008E3020008E30200086B
:1001E000E3020008E3020008E3020008E30200085B
:1001F000E3020008E3020008E3020008E30200084B
:10020000E3020008E3020008E3020008E30200083A
:10021000E3020008E3020008E3020008E30200082A
:10022000E3020008E3020008E3020008E30200081A
:10023000E3020008E3020008E3020008E30200080A
:10024000E3020008E3020008E3020008E3020008FA
:10025000E3020008E3020008E3020008E3020008EA
:10026000E3020008E3020008E3020008E3020008DA
:10027000E3020008E3020008E3020008E3020008CA
:10028000E3020008E3020008E3020008E3020008BA
:10029000E3020008E3020008E3020008E3020008AA
:1002A000E3020008E3020008E3020008E30200089A
:1002B000E3020008E3020008E3020008E30200088A
:1002C000E3020008E3020008E3020008E30200087A
:1002D000E3020008E3020008E3020008E30200086A
:1002E00002E000F000F8FEE772B6374880F30888B5
:1002F000364880F3098836483649086040F20000E5
:10030000CCF200004EF63471CEF200010860BFF36B
:100310004F8FBFF36F8F40F20000C0F2F0004EF637
:100320008851CEF200010860BFF34F8FBFF36F8F8B
:100330004FF00000E1EE100A4EF63C71CEF20001E3
:100340000860062080F31488BFF36F8F06F0F8FC76
:1003500005F0BEFF4FF055301F491B4A91423CBF8C
:1003600041F8040BFAE71D49184A91423CBF41F895
:10037000040BFAE71A491B4A1B4B9A423EBF51F83D
:10038000040B42F8040BF8E700201849184A914280
:100390003CBF41F8040BFAE706F010FD06F01AF82E
:1003A000144C154DAC4203DA54F8041B8847F9E7A6
:1003B00000F004FB114C124DAC4203DA54F8041B5C
:1003C0008847F9E706F0F8BC00060020002200206C
:1003D0000000000808ED00E00000002000060020FA
:1003E000907F0008002200203822002038220020C0
:1003F0001C410020E0020008E0020008E0020008C2
:10040000E00200082DE9F04F2DED108AC1F80CD064
:10041000D0F80CD0BDEC108ABDE8F08F002383F338
:1004200011882846A047002005F044FDFEE705F0AE
:10043000A5FC00DFFEE7000053B94AB9002908BF58
:1004400000281CBF4FF0FF314FF0FF3000F06AB9B9
:10045000ADF1080C6DE904CE00F006F8DDF804E01B
:10046000DDE9022304B070472DE9F047089D0E46F0
:1004700004460F46002B4AD194468C45B2FA82F2CC
:1004800060D942B1C2F12003974020FA03F30CFA7D
:1004900002FC1F4394404FEA1C4E1FFA8CF6B7FB38
:1004A000FEF1230C0EFB117743EA074301FB06F034
:1004B00098420AD91CEB030301F1FF3780F0158144
:1004C000984240F21281023963441B1AA4B2B3FB72
:1004D000FEF00EFB103344EA034400FB06F6A6428E
:1004E0000AD91CEB040400F1FF3380F00081A6421E
:1004F00040F2FD806444023840EA0140A41B002120
:100500001DB1D4400023C5E90043BDE8F0878B420C
:1005100005D90DB1C5E9000100210846F5E7B3FA98
:1005200083F1002946D1B34202D3824200F2F58022
:10053000841A66EB030201201746002DE5D0C5E9B9
:100540000047E2E7002A40F09380A1EB0C034FEA5A
:100550001C471FFA8CFE0121B3FBF7F607FB163090
:10056000230C43EA00430EFB06F0984208D91CEB2B
:10057000030306F1FF3802D2984200F2D0804646CB
:100580001B1AA4B2B3FBF7F007FB103344EA034491
:100590000EFB00FEA64508D91CEB040400F1FF3356
:1005A00002D2A64500F2B6801846A4EB0E0440EA3B
:1005B0000640A5E7C1F120078B4022FA07FC4CEA70
:1005C000030C06FA01FE20FA07F426FA07F344EAC0
:1005D0000E0400FA01F84FEA1C404FEA1449B3FB3D
:1005E000F0FE1FFA8CF600FB1E3349EA03430EFBB4
:1005F00006F9994502FA01F20BD91CEB03030EF13F
:10060000FF3A80F08580994540F28280AEF1020E7B
:100610006344A3EB0909A4B2B9FBF0F300FB1399FF
:1006200044EA094403FB06F6A64208D91CEB04047D
:1006300003F1FF3068D2A64266D9023B644443EA24
:100640000E40A41BA0FB02E6B4427346B14652D34F
:100650004FD05DB1B8EB030264EB090404FA07F76D
:1006600022FA01F31F43CC40C5E9007400214CE796
:10067000C2F1200120FA01F30CFA02FC26FA01F182
:10068000964033434FEA1C471FFA8CFEB1FBF7F04C
:1006900007FB1016190C41EA064100FB0EF68E42CC
:1006A00004FA02F408D91CEB010100F1FF382DD245
:1006B0008E422BD902386144891B9BB2B1FBF7F6FD
:1006C00007FB161143EA014306FB0EF1994208D9D4
:1006D0001CEB030306F1FF3814D2994212D9023EF3
:1006E00063445B1A46EA004136E73946EDE61846B0
:1006F00002E7F045ADD2BEEB020366EB0C06013813
:10070000B146A6E74646ECE7034698E74046D3E7FE
:10071000D6467EE76444023847E708460DE7023EC6
:1007200063442DE7704700BF11F0FF01034600F05E
:10073000030239D08ABB026810B501EB012E0EEB23
:100740000E4E8EEA0204A2F1013323EA0203A4F161
:10075000013222EA0402134313F0803F0FD150F814
:10076000044F84EA0E0CA4F10133ACF1013223EA08
:10077000040322EA0C02134313F0803FEFD0037806
:1007800023B936E010F8013F002B32D09942F9D15D
:1007900010BD8A4228D09A0729D01A78184601330A
:1007A000002AF6D110467047CAB90268A2F1013397
:1007B00023EA020313F0803F08D150F8042FA2F17E
:1007C000013323EA020313F0803FF6D003785BB1D4
:1007D00010F8013F002BFBD17047990705D0184650
:1007E00013F8012B002AF8D170471846DDE71846A8
:1007F000A1E7184610BD00BF88420ED98B1883426E
:100800000BD900EB020C002A6ED0624613F801CD22
:1008100002F801CD9942F9D170470F2A0FD803464B
:1008200002F1FF3C002A5FD00CF1010C013B8C442B
:1008300011F8012B03F8012F6145F9D1704740EA07
:1008400001039B0751D1A2F1100370B501F1200CF7
:1008500023F00F0501F1100E00F11004AC441B0948
:100860005EF8105C44F8105C5EF80C5C44F80C5CBC
:100870005EF8085C44F8085C5EF8045C44F8045CCC
:100880000EF1100EE64504F11004E9D1013312F027
:100890000C0F01EB031102F00F0400EB031328D03F
:1008A000043C24F003064FEA940C1E441C1F8E46A1
:1008B0005EF8045B44F8045FB442F9D10CF1010422
:1008C00002F0030203EB840301EB840102F1FF3C1D
:1008D0004AB10CF1010C013B8C4411F8012B03F8D7
:1008E000012F6145F9D170BD704702F1FF3C03460D
:1008F0009AE72246EAE700BF40EA01039B0710B5EA
:1009000001D1032A17D8844601F1FF3E07E01EF803
:10091000011F03F8011B541E29B19C462246634661
:10092000002AF4D110BD9444002CFBD003F8011B25
:100930006345FBD110BD8E468446DEF80040A4F12D
:10094000013323EA040313F0803F71460EF1040ED5
:10095000DAD1043A032A4CF8044BEED87146D3E7B7
:10096000032A30B415D941EA0004A40784460B4693
:1009700004D0541E0FE0043A032A08D919466046F1
:1009800053F8044B5CF8045BA542F4D0F1E76046F1
:100990001946541E7AB1431E0139021901E09A42E8
:1009A00009D013F8010F11F801CF6045F7D0A0EB83
:1009B0000C0030BC7047002030BC704738B501F0E7
:1009C0004DFA01F0B7FB06F05FF8054606F04CF96A
:1009D0000446D0B90F4B9D421AD001339D4241F2DB
:1009E000883504BF01240025002006F057F80CB11B
:1009F00000F076F801F078FB00F000FD08B100F09F
:100A00006FF8284600F0FCF8F9E700250124EBE731
:100A10000546E9E7010007B008B501F0EDF9A0F1DE
:100A200020035842584108BD07B5042101900DEB41
:100A3000010001F0FDF903B05DF804FB38B5302387
:100A400083F31188174803680BB105F009FB0023F5
:100A5000154A4FF47A71134805F0F8FA002383F32E
:100A60001188124C236813B12368013B236063682B
:100A700013B16368013B63600D4D2B7833B9636834
:100A80007BB9022001F0B2FA322363602B78032B8A
:100A900007D163682BB9022001F0A8FA4FF47A73EA
:100AA000636038BD482300203D0A00083C23002035
:100AB00044230020084B187003280CD8DFE800F00E
:100AC00008050208022001F087BA022001F07ABA74
:100AD000024B00225A607047442300203C23002030
:100AE000F8B5414B414A1C46196801317AD00433AC
:100AF0009342F9D162683E4B9A4273D93D4B9B6851
:100B000003F1006303F500339A426BD2002001F039
:100B1000CBF90220FFF7CEFF374B0021D3F8E820B6
:100B2000C3F8E810D3F81021C3F81011D3F810213E
:100B3000D3F8EC20C3F8EC10D3F81421C3F8141147
:100B4000D3F81421D3F8F020C3F8F010D3F818210B
:100B5000C3F81811D3F8183172B64FF0E023C3F878
:100B6000084DD4E90004BFF34F8FBFF36F8F234AC2
:100B7000C2F88410BFF34F8F536923F4803353615D
:100B8000BFF34F8FD2F8803043F6E076C3F3C90548
:100B9000C3F34E335B0103EA060C29464CEA817726
:100BA0000139C2F87472F9D2203B13F1200FF2D14F
:100BB000BFF34F8FBFF36F8FBFF34F8FBFF36F8FB5
:100BC000536923F4003353610023C2F85032BFF35A
:100BD0004F8FBFF36F8F302383F31188854680F3E7
:100BE00008882047F8BD00BF000002082000020866
:100BF000FFFF0108002200200044025800ED00E041
:100C00002DE9F04F95B0DFF81C832022FF210190E1
:100C100004A8D8F8086001F011FAB94A1378A3B90A
:100C20000121B84811700360302383F311880368F1
:100C30000BB105F015FA0023B34A4FF47A71B148AD
:100C400005F004FA002383F31188019B13B1AF4B25
:100C5000019A1A60AE4A1378032B03D00023137055
:100C6000AA4A53604FF0000A019DD3465446D1462C
:100C7000012001F0B1F925B1A44B1B68002B00F055
:100C80002282002001F0B8F8071EF4DB012001F0F9
:100C900099F9A7F121031F2BEAD801A252F823F0FA
:100CA000210D00083D0D0008C70D0008710C00085B
:100CB000710C0008710C0008530E00083910000870
:100CC000290F0008870F0008AD0F0008D30F000898
:100CD000710C0008E50F00080910000881100008D9
:100CE000A70D0008710C0008CD1000082D0D00089C
:100CF000A70D0008710C0008870F0008710C000890
:100D0000710C0008710C0008710C0008710C0008CF
:100D1000710C0008710C0008710C0008C70D000868
:100D20000220FFF779FE002840F0E780019B0221B6
:100D30007848BAF1000F08BF1D463EE04FF47A70C4
:100D400001F05AF8071EF1DB0220FFF765FE0028CC
:100D5000ECD0013F052F00F2E381DFE807F0030745
:100D60000A0D10310520FFF75FFE14E0D8F80000EF
:100D7000F9E7D8F80400F6E7D8F80800F3E74FF0F1
:100D80001C09484609F1040901F090F8FFF74CFEF0
:100D9000B9F12C0FF5D101234FF00009BB404BEA0C
:100DA00003035FFA83FB01F095F924B10BF00B0309
:100DB0000B2B08BF00250221574801F039F857E7EF
:100DC000D8F80C00CFE7002CB0D00BF00B030B2BA6
:100DD00061D10220FFF720FE044600285BD00120ED
:100DE0004FF0000A01F060F80220FFF763FE1FFADF
:100DF0008AF31846029301F067F8029B054688B90A
:100E0000434B01222E4602201A7001F0DBF8D8F87D
:100E10000830B34216D800263D4BA2461E703B4B0D
:100E20005E60C0E7A7F1400218460AF1010A51428C
:100E3000514101F059F805460028D8D1A2460221B7
:100E40003648BAE7304601F031F80130F6D10436C1
:100E5000DDE7002C3FF46AAF0BF00B030B2B1AD12C
:100E60000220FFF727FE322000F0C6FF071E12DB2C
:100E700017F003030FD1BA19D8F808108A420AD81C
:100E8000B7F5807F07D8264A9F4206DCC820FFF7C7
:100E9000C3FD044680B9012448E74FF47A70CDE9D8
:100EA000023200F0A9FF0028FFF640AF039A029B30
:100EB00002F8010B0133E7E71F2E11D8C6F120021B
:100EC00004AB26F003001649BA42184428BF3A463C
:100ED000029201F095F8029AFF21114801F0AEF854
:100EE000BB10C7F387020E493046029301F0AEF8FB
:100EF0000028A4D0029B06EB8306044653E700BFFC
:100F000038230020482300203D0A00083C2300200D
:100F100044230020B8770008BC770008B4770008A5
:100F200038220020002200200220FFF775FD002853
:100F30003FF4FCAE00F0F6FF00283FF4F7AE0027C8
:100F40003B4612E01F2F18D8049A013215D027F023
:100F5000030250326A4452F8400C0C9004221846A6
:100F60000CA901F0F9F804370346D8F80820BA4272
:100F7000E8D81846FFF758FD15E73846029300F009
:100F800095FF029BE9E7002364210CA80C9300F075
:100F900047FF00287FF4CAAE0220FFF73DFD00287E
:100FA0003FF4C4AE0C9800F0B3FFE3E700236421E4
:100FB0000CA80C9300F034FF00287FF4B7AE022099
:100FC000FFF72AFD00283FF4B1AE0C9800F0A2FF15
:100FD000D0E70220FFF720FD00283FF4A7AE00F085
:100FE000B1FFC7E70220FFF717FD00283FF49EAED0
:100FF0000CA9142000F0ACFF0746FFF715FD394699
:101000000CA800F015FFCEE60220FFF705FD002832
:101010003FF48CAE444B0CAF03F1100C186808334E
:1010200053F8041C3A46634503C21746F6D1102014
:10103000FFF7FAFC1021E3E7322000F0DDFE071E87
:10104000FFF674AEBB077FF471AE07EB0903D8F867
:10105000082093423FF66AAE0220FFF7DDFC00282D
:101060003FF464AE27F003074F44B9453FF49BAE0D
:10107000484609F1040900F019FFFFF7D5FCF4E731
:101080004FF47A70FFF7C8FC00283FF44FAE00F031
:1010900049FF00283FF4D3AE049B01330CD0082253
:1010A00004A9002000F0D2FF00283FF4C8AE20229F
:1010B000FF2104A800F0C2FF1C48022100F0B8FE86
:1010C0001B4804F0FDFE15B0BDE8F08F002C3FF486
:1010D0002DAE0BF00B030B2B7FF428AE0023642105
:1010E0000CA80C9300F09CFE074600287FF41EAE6F
:1010F0000220FFF791FC029000283FF417AE022176
:101100000A4800F095FE41F2883004F0D9FE0C98B0
:1011100000F0F6FF3D4600F0DDFF029B1C46A7E510
:101120004FF0000902E600BFC0760008BC77000857
:10113000A086010070470000704700007047000063
:101140002DE9F04100F58037044616463B7C5BB93B
:10115000C0681030204400F053FFE5683544B5F511
:10116000004FE56002D816B1BDE8F081DEB905F0A8
:101170007F0605F110000021C6F180062044F6B27A
:1011800032462E4400F05AFFA06804F1100832469F
:1011900000F10060414600F5003005F00BFA30B96F
:1011A00001233B74E0E74FF400463546ECE7A368C3
:1011B00005F11001E268404633442144521BA3600C
:1011C000E26000F01DFF0220BDE8F04100F00EBF1C
:1011D000183000F0DFBC000010B5044600F0D8FF66
:1011E000204610BD10B5044600F0D2FF204610BDC9
:1011F000C0B2A0F14103052B02D83738C0B2704706
:10120000A0F16103052B94BF57383038F6E7000092
:1012100070B504461546084603220C4900F0FAFE54
:10122000014688B907346E1C15F91100FFF7E0FF7D
:10123000024616F911000131FFF7DAFF102940EAE2
:10124000021004F8010FEFD170BD00BFD176000885
:101250002DE9F04FADF53F7D4168074601222AA8F0
:1012600002F068FE064600287BD1824681461125A1
:10127000DFF80C81DFF80CB101AB4FF4805241462E
:101280002AA802F0A7FF044600286AD1019AB2F505
:10129000805F66D8002A69D0019A9442ECD2282D4A
:1012A0000FD008DC132D2DD01E2D39D0112D13D0C9
:1012B0000134A4B2F0E7322D2DD0372D2FD02D2DB3
:1012C000F6D13B68121B08EB040138461B692D253B
:1012D0009847BDF80440EBE7121B022A09D959468A
:1012E00008EB040000F096FE18B902342825A4B2D9
:1012F000DEE718F804303A2B33D00A2B1CBFA14686
:101300001325D5E718F804300A2B2AD03A2B04BF4E
:10131000A2463225CCE718F80430202BC8D0264648
:1013200018F804300A2B1AD1AAEB090208EB0901BC
:1013300002A811254F2A28BF4F22FFF7DDFAA21B72
:1013400008EB060116A84F2A28BF4F22FFF7D4FA50
:101350003B6816AA02A9DB6838469847A8E71E250D
:10136000A6E700200DF53F7DBDE8F08F3B683846CD
:1013700002491B6998470120F4E700BF8577000800
:1013800060230020D576000830B500F1180504462A
:1013900085B0284600F0E8FB2046FFF759FF60B112
:1013A0002946684600F03EFC102204F10801684618
:1013B000FFF7D6FAB0FA80F0400905B030BD000062
:1013C00070B504460025EEB2304600F07DFD48B908
:1013D0002046FFF73DFF58B104F58034207C80F0B3
:1013E000010006E000213046013500F07DFD08B91E
:1013F000002070BD022000F0F9FDE4E7F0B5C9B0AF
:1014000005F05AFB00F0E0FE18B90025284649B067
:10141000F0BD69462A4802F0A3FF00284BD1294CB1
:10142000204602F0CDFF284802F0CAFF274802F00C
:10143000C7FF2146224803F03FF80028E5D170207D
:1014400000F0A0FE064610B1214B446003603368F3
:1014500030469B689847054600282ED01A4F1948F9
:10146000394603F029F805460028CED1194800F086
:1014700089FE044638B1184B4760036000F580339D
:10148000C0E902551D74236820469B6898470546AD
:1014900028B10E490C4803F00FF80028B5D1336885
:1014A00030465B6898471CB1236820465B689847C4
:1014B00000F072FEAAE70025FAE70446EFE700BF56
:1014C000D9760008E976000800770008167700084A
:1014D000C877000814000100E47700082DE9F04FF8
:1014E000D34A8DB0D1F800A003685244D0F804E08C
:1014F000D04E1A44D1F81C90DFF8B0C3DFF8B0B377
:10150000D0E90234634003EA0E03634013444A689F
:1015100001920EEB7363019CC74A2244C4682244C3
:1015200084688EEA04051D40654015448A6802926D
:1015300003EB3555029CC14A2244846822448EEA5A
:1015400003042C4084EA0E041444CA6805EBF43406
:101550000392164483EA0502224076445A403244FC
:101560000E69049604EBB222049FB54E3E441E441D
:1015700085EA040313406B4033444E69059602EB41
:101580007363059FAF4E3E442E4484EA02051D401E
:10159000654035448E69069603EB3555069FAA4E85
:1015A0003E44264482EA03042C4054403444A74E6F
:1015B0004E4405EBF434164483EA050222405A40B7
:1015C00032440E6A079604EBB222079FA04E3E44B7
:1015D0001E4485EA040313406B4033444E6A089668
:1015E00002EB7363089F9B4ED1F838803E442E4433
:1015F00084EA02051D40654035448E6AA6F52447FD
:1016000003EB355509964F3F274482EA03042C40EB
:1016100054403C44CF6A0A9705EBF4340A9E8E4F3F
:1016200037440E6B174483EA05020B9622405A405A
:101630003A448A4F374404EBB222019E1F4485EAA4
:10164000040313406B403B444F6BBC4402EB736399
:10165000AC4484EA02051D4065406544DFF854C28D
:10166000C44403EB3555A44482EA03042C4054409F
:101670006444D1F83CC07A4905EBF4346144114428
:1016800083EA050222405A400A44764904EBB2221A
:101690003144069E194484EA02032B4063400B4404
:1016A000714902EBF36331440A9E0D4482EA03015F
:1016B0002140514029446D4D03EBF1513544059EC5
:1016C000254483EA010414405C402C44684D01EB3E
:1016D000B4445544154481EA04021A404A402A445D
:1016E000644D04EB32323544099E1D4484EA020302
:1016F0000B4063402B44604D02EBF3633544049E82
:101700000D4482EA03012140514029445B4D03EB23
:10171000F1516544254483EA010414405C402C44A3
:10172000574D01EBB4443544089E154481EA040248
:101730001A404A402A44534D04EB32323544039E4A
:101740001D4484EA02030B4063402B444E4D02EBE0
:10175000F36345440D4482EA03012140514029448A
:101760004A4D03EBF1513544079E254483EA0104B9
:1017700014405C402C44464D01EBB4443544029E79
:10178000154481EA04021A404A402A44414D04EBC0
:1017900032323D441D4484EA02030B4063402B4433
:1017A0003D4D02EBF36335440B9E0D4482EA030189
:1017B000B344059E2140934451402944374D03EBE7
:1017C000F1514D442C4483EA010515405D40254408
:1017D00001EBB54581EA050404EA03024A405A4494
:1017E000A6F5B82B079E05EB3232ABF2BE6B544028
:1017F0009B442B4B5C4433440A9E02EB34740B44F1
:1018000085EA020161401944264B334404EB7151CF
:10181000019E2B4482EA04054D401D44224B434463
:1018200001EB35451A4484EA01036B40134443E05D
:1018300078A46AD7EECEBDC156B7C7E8DB702024C6
:10184000AF0F7CF52AC68747134630A8019546FDA1
:10185000D8988069AFF7448BBED75C892211906B12
:101860002108B44962251EF640B340C0515A5E2695
:10187000AAC7B6E95D102FD65314440281E6A1D859
:10188000C8FBD3E7E6CDE121D60737C3870DD5F4F2
:10189000ED145A4505E9E3A9F8A3EFFCD9026F67F7
:1018A00081F6718722619D6D0C38E5FD937198FD7D
:1018B0008A4C2A8D8E4379A6904A324405EB7323D5
:1018C000049E224481EA05045C4014448C4A32445C
:1018D00003EB3474099E0A4485EA03016140114414
:1018E000884A4A4404EB7151154483EA04024A4091
:1018F0002A44854D354401EB3242039E2B4484EA51
:10190000010555401D44814B3B4402EB75252344A2
:1019100081EA02046C401C447D4B534405EB347453
:10192000194482EA050363400B447A49314404EBCD
:101930007353069E0A4485EA040159401144764ACD
:10194000324403EB3141089E2A4484EA03054D40AA
:101950001544724A324401EB75250B9E144483EA08
:1019600001026A4022446E4C344405EB3272029EFE
:10197000234481EA050454401C446A4B634402EB4F
:1019800074540B4485EA020161401944664B3344A8
:1019900004EB3141059E1D4482EA04034B402B4475
:1019A000624D01EB73235544154463EA04024A4037
:1019B0002A445F4D03EBB2624D44254462EA0104C0
:1019C0005C402C445B4D02EBB45445440D4464EA46
:1019D000030151402944584D04EB714135440B9E9D
:1019E0001D4461EA020363402B44544D01EBF32391
:1019F0003544039E154463EA04024A402A44504D8C
:101A000003EBB2623544254462EA01045C402C4495
:101A1000099DA5F5801602EBB4544A4DA6F683360F
:101A20000E4464EA030151403144019E04EB7141CC
:101A30003544079E1D4461EA020363402B44424D36
:101A400001EBF3233544069E154463EA04024A4041
:101A50002A443E4D03EBB2626544254462EA010428
:101A60005C402C443A4D02EBB4543544049E0D4482
:101A700064EA030151402944364D04EB71413D4471
:101A80002B4461EA020565401D44334B01EBF5250B
:101A900033440A9E1A4465EA04034B4013442F4A18
:101AA00005EBB3633244029E144463EA01026A40C8
:101AB00022442B4C03EBB2523444089E0C4462EA9D
:101AC000050159402144274C02EB7141344425441F
:101AD00061EA030454402C4405682B4403600EEB78
:101AE000010303EBF423436083681944C3681A4479
:101AF0008160C2600DB0BDE8F08F00BF44EABEA4B3
:101B0000A9CFDE4B604BBBF670BCBFBEC67E9B2828
:101B1000FA27A1EA8530EFD4051D880439D0D4D93D
:101B2000E599DBE6F87CA21F6556ACC4442229F493
:101B300097FF2A43A72394AB39A093FCC3595B6555
:101B400092CC0C8FD15D84854F7EA86FE0E62CFE91
:101B5000144301A3A111084E827E53F735F23ABD1A
:101B6000BBD2D72A91D386EB094B036003F18833AC
:101B7000436003F12943A3F59613A3F68B638360B7
:101B8000A3F18833C3600023C0E90433704700BF6A
:101B9000012345672DE9F8431446026905460E46C0
:101BA000E300C2F3C50800F118079B18036122BFC8
:101BB00043690133436112F4FC7F436903EB5473BF
:101BC000436114D0C8F1400907EB08004C4504D22A
:101BD0002246BDE8F843FEF70FBE403C4A464E445D
:101BE000FEF70AFE444439462846FFF777FCA04634
:101BF00006EB0409B8F13F0FA9EB080106D824F061
:101C00003F0104F03F0238463144E2E740223846C3
:101C1000FEF7F2FD39462846A8F14008FFF75EFCC2
:101C2000E8E7000070B50B6901F1180506460C469F
:101C3000C3F3C503EA18501C8022EA54C3F13F02E3
:101C4000072A1FD8002100F0F9F929462046FFF79E
:101C500045FC38220021284600F0F0F92369294686
:101C60002046236563696365FFF738FC214610222F
:101C70003046FEF7C1FD204658220021BDE87040E5
:101C800000F0DCB9C3F137020021E5E7104B70B575
:101C90001B7805460C460133DBB2012B11D80D4BE6
:101CA00018684FF47A730168A2FB033222460E6A69
:101CB0002946B047844204D1074B002201201A7004
:101CC00070BD4FF4FA7004F0FBF80020F8E700BF95
:101CD00010220020142200209033002000232DE940
:101CE000F0471A46054688460120194602F050FF83
:101CF0000446802004F082FD074668B364B33C4E7E
:101D000028464FF0800A736943F0C0637361D6F8C8
:101D1000143143F0C063C6F8143104F0E9FB05EB5D
:101D2000080200FB05F34FF03D0C00FB02FE4FF4F0
:101D3000D060734512D3204602F06AFF384604F0A3
:101D400099FD2B4B5A6942F0C0625A61D3F81421B5
:101D500042F0C062C3F81421BDE8F08731694A013E
:101D60002CD4D6F81011490128D4226803F100615F
:101D700091602168CF602168C1F804A021680860E3
:101D8000D4F80090D9F8001041F00101C9F8001012
:101D9000D4F80090D9F8001021F01E01C9F8001005
:101DA000D4F80090D9F80010CA07FBD494F80C902E
:101DB000803362680CFA09F11160BAE70D4B9A6A38
:101DC00042F400729A629A6A42F400429A6261B6E0
:101DD0000026012004F072FCB04503D8002004F076
:101DE0006DFCA8E7A819013604F09CFBF4E700BFDE
:101DF0000020005200ED00E0002307B5024601215B
:101E00000DF107008DF80730FFF740FF20B19DF876
:101E1000070003B05DF804FB4FF0FF30F9E7000066
:101E20000A46042108B5FFF731FF013808BD00005C
:101E3000074B0A4630B419780546064B53F8210083
:101E400029460368DC69044BA44630BC604700BFE8
:101E50009033002014220020A086010070B5104CA1
:101E60000026104D04F048FB208028682388834218
:101E700008D904F03DFB2B6806440133B6F5003F5A
:101E80002B60F2D300252088013804F031FB238831
:101E90000544013BB5F5802F2380F4D370BD00BF0E
:101EA000883300208C33002004F008BC00F100606F
:101EB00000F500300068704700F10060920000F506
:101EC000003004F077BB0000054B1A68054B1B88F7
:101ED0009B1A834202D9104404F00ABB00207047C9
:101EE0008C3300208833002038B5084D044628681C
:101EF00029B128682044BDE8384004F013BB2044D1
:101F000004F0FCFA0028F4D038BD00BF8C33002068
:101F10000020704700F1FF5000F58F10D0F8000846
:101F200070470000064991F8243033B1002308229D
:101F3000086A81F82430FFF7BFBF0120704700BF57
:101F400060330020014B1868704700BF0010005C30
:101F5000194B1A4A70B51D68431E0420C5F30B04C3
:101F60000B442D0C013808D19942084610D30524A2
:101F7000134A013C15D1401A70BD1688A6420ED1F5
:101F800052680846013A9842F1D212F9014F1CB941
:101F90002C2200F8012BEAE700F8014BF3E70832A6
:101FA000E0E71688AE4204D198423CBF967800F82C
:101FB000016B0432DDE700BF0010005C1822002036
:101FC000F8770008022803D1024B4FF000529A61C3
:101FD000704700BF00080258022803D1024B4FF49B
:101FE00000529A61704700BF00080258022804D1CD
:101FF000024A536983F40053536170470008025842
:10200000002310B5934200D110BDCC5CC454013301
:10201000F8E70000013810B510F9013F3BB191F924
:1020200000409C4203D11AB10131013AF4E71AB1E0
:1020300091F90020981A10BD1046FCE702440346AF
:10204000934200D1704703F8011BF9E72DE9F843EB
:102050001F4D14460746884695F8242022B9DFF81C
:1020600070906CB9012009E02B6A03EB8203834274
:10207000F5D0FFF757FF0028F1D10020BDE8F88325
:1020800095F824302BB92022FF2148462F62FFF714
:10209000D5FF95F824004146C0F1080205EB800009
:1020A000A24228BF2246D6B29200FFF7A9FF95F8B8
:1020B0002430A41B17441E449044E4B2F6B2082E08
:1020C00085F82460CDD1FFF72DFF0028C9D1D4E7D2
:1020D00060330020024B1A78024B1A70704700BF21
:1020E00090330020102200204FF4E13302490B60AE
:1020F000024B186803F092BD943300201422002094
:1021000038B5094C0546182200212046FFF796FFF6
:10211000064B214625601A78054B53F82200BDE88E
:10212000384003F07BBD00BF943300209033002083
:102130001422002008B571B6054B1988054B188884
:10214000FFF7CCFD02210E20FFF7C8FD61B608BDE8
:10215000883300208C33002030B50A44084D91426A
:1021600000D130BD11F8013B5840082340F3000472
:10217000013B2C4013F0FF0384EA5000F6D1EEE758
:102180002083B8ED0121884238BF084604F06EBBB9
:1021900008B104F06FBB704710B5084C0122084924
:1021A000002001F0A3FE23783BB1064803F0A6FC13
:1021B000044803F0E1FC0023237010BDAC33002081
:1021C000597700088C3800201C482DE9F041036D38
:1021D0002BB901224FF48051503004F093FC184D7C
:1021E0002B780BB1FFF7D8FF0324164F4FF00008F0
:1021F000124E14493046C7F8048003F0AFFC304655
:1022000003F0DEFA40B1013C0C4803F0B5FC14F0D9
:10221000FF04EED120460EE00B4901220B4801F0ED
:1022200065FE014618B1054803F068FCEBE7084875
:1022300000F010F801202870BDE8F0818C380020F3
:10224000AC3300203022002059770008B033002042
:102250005B7700080FB4002004B070470068704737
:1022600003460068596870470B0A017043700B0CF5
:10227000090E8370C1707047110A027003714170BA
:10228000110C120E8170C2701A0A42711A0C1B0EC8
:102290008271C37170470000C36A0239023B8B42EE
:1022A00083BF4389006C01FB0300002070470000DE
:1022B000034600F10B010020C20142EA500213F86C
:1022C000010B50FA82F28B42D0B2F5D17047000078
:1022D00010B5427804460020013203465201022B19
:1022E00017BFC103032341EA5001E05C03F101037E
:1022F0001CBF10FA81F188B29A42F0D810BD0000DC
:10230000036893B11A4612F8011B1F290AD93A290A
:10231000F9D11978302908D102339A4205D10260E7
:1023200000207047024B187870474FF0FF3070471D
:10233000FC35002038B50D46044618B909200023A5
:102340002B6038BD0368002BF8D01A78002AF5D02E
:102350008188DA889142F1D1587803F03DFF10F07E
:102360000100EBD12368EBE738B5C3780446C3B16D
:1023700000F14C05826C01234078294603F052FF9E
:1023800088B9A16CA36B226BCB1AE070934208D280
:10239000A378022B05D10A4401232946607803F073
:1023A00041FF002038BD0120FCE7000038B50D4694
:1023B00040F25231144602F089F9FF2807D9012C66
:1023C0000BD9030A022468702B70204638BD30B147
:1023D000002CFAD001242870F7E70024F5E7044622
:1023E000F3E700002DE9F8430025076806460C4690
:1023F0008D76836B002B48D03B78042B4AD12B463B
:102400002E464FF0400821E0B8F5187F25D218F08D
:102410001F0F05F1010508BF08F1020832F8080096
:1024200008F102082BB900F5205292B2B2F5006F04
:102430000BD306F11A01C6F1FF0240EA0340214422
:10244000FFF7B4FF48B10644002003463A6992F80A
:102450002310A942D8D803B916B93F230126A37681
:1024600000232644B37663733A69137903F0370186
:10247000DB0621730BD402F13800FFF7F1FEC4E94B
:10248000000193896381D3892381BDE8F88300200B
:102490000146F4E7C36C01334ED1F16B00232E26C5
:1024A0004D1E184615F8012F0130202A0CD0052AA0
:1024B00008BFE522092804D10B2B9EBFE718013382
:1024C0007E73E71801337A730B28EBD1E2180020F2
:1024D0005073A27E002A3BD18BB304F10C03082574
:1024E0005A78581C002A42D11B1B0C3B2AE0B9F138
:1024F000000F05D100F520539BB2B3F5006F0BD34D
:1025000008F11A01C8F1FF0240EA09402144FFF72F
:102510004DFF40B18044002002358146FB68585B86
:102520000028E4D14046B9F1000F4FF0000218BF77
:10253000002023189A76B0E7A946A846EEE73F2385
:10254000A3760123234400229A760B7B03B963739D
:10255000CB7A01F11C0003F03F0323730023FFF744
:102560007DFE20606360CB8A63810B8B8CE72E2A13
:10257000134609D0413A192A03D80A7B154200D0E4
:10258000203343730346ABE71025FAE738B5054619
:10259000002435F8020B08B9204638BD02F0C8F80F
:1025A000E303C2B2C0F3072043EA540312FA83F3F1
:1025B000C3F34E0444EAC33410FA84F4A4B2E8E747
:1025C000C2F307238A76CB760378032B01BF120C64
:1025D0000A75120A4A75704738B5836C05460C4671
:1025E0008B4210D0FFF7C0FE60B92246012305F1EF
:1025F0004C01687803F0F2FD00281CBF4FF0FF3457
:102600000120AC6438BD0020FCE7000038B5002391
:102610000446C3704FF0FF338364FFF7DDFF0028EB
:102620004BD1B4F84A524AF655239D4207D10B22AA
:10263000254904F14C00FEF793F900283FD094F8A7
:102640004C30EB2B03D01833DBB2012B2ED84AF6DB
:1026500055239D4206D108221C4904F19E00FEF735
:102660007FF948B3B4F85730B3F5007F1ED194F822
:102670005930DBB15A1E1A4218D1B4F85A30ABB1F6
:1026800094F85C30013B012B10D8B4F85D306BB18D
:10269000B4F85F307F2B06D804F16C00FFF7DEFD45
:1026A000B0F5803F02D3B4F8623053B94AF65520F2
:1026B000854214BF0320022038BD0420FCE701201E
:1026C000FAE70020F8E700BF867700089277000855
:1026D00002392DE9F04701F007044FF0010A466C7A
:1026E00005460AFA04F41746984606EB1136C1F37C
:1026F000C809E4B2314628460136FFF76DFF18B12C
:102700000120BDE8F087994605EB090292F84C30AC
:10271000234214BF01210021414513D06340013FF2
:1027200082F84C3085F803A0EBD0640014F0FF046D
:10273000EAD109F1010301244FF00009B3F5007F4C
:10274000E1D3D7E70220DCE70129F8B50C4640F2D7
:102750008C800668F36A8B4240F287803378013BB5
:10276000032B00F28280DFE803F00229384B01EBF3
:102770005105B16B304601EB5521FFF72DFF10B12C
:102780004FF0FF30F8BD6F1CC5F30805B16B304644
:10279000354401EB572195F84C50FFF71DFF0028F9
:1027A000EED1C7F30807374497F84C3045EA0320C9
:1027B000E3074CBF0009C0F30B00E3E7B16B304601
:1027C00001EB1421FFF708FF0028D9D1640004F4BD
:1027D000FF743444B4F84C00D4E7B16B304601EBDD
:1027E000D411FFF7F9FE0028CAD1A40006F14C006D
:1027F00004F4FE742044FFF731FD20F07040C1E77F
:10280000D0E90431C57953EA010201D0826802B9E6
:102810005DBB8268022D7789A4EB02020CD1013BDB
:1028200041F1FF315B0A43EAC153B3FBF7F39A422C
:102830001BD81CD0601CA5E7032D02D183699342ED
:10284000F8D8C3699BB9B16B304601EBD411FFF7DF
:10285000C3FE002894D1A0004C3600F4FE70304432
:10286000FFF7FCFC20F000408CE701208AE76FF0C6
:10287000004087E7F8B5056806460C462B78042B20
:1028800014BF4FF400124FF080528A4201D8022048
:10289000F8BDCA06FBD18268016312BB022B12D8B5
:1028A0002B89B3EB541FF2D9E86BC6E90D20002841
:1028B000EDD000EB54204C35C4F30804B063002085
:1028C0002544F563E4E7EB6BC271002BE8D06F8918
:1028D0001A467F02BC42114605D22846FFF7DCFCAF
:1028E000E3E71346F3E73046FFF72EFF431C0246AB
:1028F00006D00128CBD9EB6A8342C8D9E41BE9E7AB
:102900000120C5E701292DE9F84306460C46154686
:1029100008D9C36A8B4205D90378022B5BD003D850
:10292000012B20D0022068E0033B012BFAD8816BF9
:1029300001EBD411FFF750FE00285ED13346A4000E
:1029400013F84C2B04F4FE74042A07D0181925F050
:102950007045FFF783FC00F07040054329461819C5
:10296000FFF782FC2BE001EB5107816B01EB572154
:10297000FFF732FE002840D114F0010406F14C08A4
:1029800007F10109C7F30807EBB230461FBF18F87B
:10299000072002F00F0242EA0313DBB208F8073007
:1029A0000123B16BF37001EB5921FFF715FE20BB3A
:1029B000C9F308093CB1C5F3071508F8095001230C
:1029C0000020F37019E018F80930C5F3032523F04F
:1029D0000F031D43F1E7816B01EB1421FFF7FCFDB1
:1029E00058B9640006F14C0304F4FF741D551A191C
:1029F000C5F3072501235570F370BDE8F883000087
:102A0000F8B504460E461746E3690BB91846F8BDFB
:102A1000012BA6EB0305206814BFAA1C3A46691CCB
:102A2000FFF770FF0028F2D1E369013BE361EBE7B8
:102A300070B5C3790446032B01D0002070BD8168B6
:102A40008369CD18A94202D10023E371F5E74E1C3A
:102A500020683246FFF756FF0028EFD13146F1E7F4
:102A600001292DE9F84306460C461746056802D8A9
:102A70000220BDE8F883EB6A8B42F9D97AB9A14606
:102A800021463046A046FFF75FFE0446B0B92B78DA
:102A9000042B02D1002F44D1F7710020E9E72B78F5
:102AA000042B02D1C379022BE9D04FF0FF32394613
:102AB0002846FFF727FF0028E1D0DAE70128D7D022
:102AC000421C01D10120D4E72B78042B10D1EA6AF3
:102AD000AB69023A934213D308F10102A24203D038
:102AE0002B78042B13D0A146EB6AA342C8D8CEE7BB
:102AF000002241462846FFF705FF0028E7D0B8E747
:102B00000133AB612B7943F001032B71E4E7002320
:102B1000A2EB090249462846FFF7DAFD0028E2D079
:102B2000A7E7F3798BB9B468BC4202D10223F371F1
:102B3000B3E721463046FFF707FE012898D9431C2A
:102B4000C0D001348442EFD0A7E7032BA5D1B368EE
:102B5000BB42A2D8B2691344BB42E7D29DE7000052
:102B60002DE9F84305460E46FFF7FEFB0446002814
:102B700049D105F14C09314628464FF40072FFF760
:102B80008BFB2146A86407464846FFF757FA6C8935
:102B90006402B4F5004F28BF4FF40044B4F5007F41
:102BA0002FD9204603F06AFE804688B122460026CF
:102BB000640A0021FFF742FA6B899E420AD340461D
:102BC00003F06CFE6889801B18BF0120BDE8F88304
:102BD0006408E3E72346BA194146687803F022FB0C
:102BE0000028ECD12644E7E701366B899E42E9D202
:102BF0000123BA194946687803F014FB0028F3D082
:102C0000E0E70026F1E70120E0E70000F8B5044620
:102C1000FFF7AAFB0546002842D12378032B37D1C2
:102C20002779012F34D104F14C0601464FF400728C
:102C30003046FFF703FA55234122722184F84A32C5
:102C4000AA2304F50D7084F84F2084F84B325223E8
:102C500084F8301284F84C3084F84D30612384F8C5
:102C6000311284F84E3084F83332A16984F832226C
:102C7000FFF7FAFA616904F50E70FFF7F5FA626B77
:102C80003B46314601326078A26403F0CBFA2571ED
:102C900000226078114603F0E9FA003818BF0120DD
:102CA000F8BD00002DE9FF4100230F4616460B60DA
:102CB000FFF726FB051EC0F2B5817E4B53F8254079
:102CC000002C00F0B1813C6006F0FE0623786BB169
:102CD000607803F081FAC70708D40EB1460703D421
:102CE000002004B0BDE8F0810A20FAE7E8B2002332
:102CF0006070237003F05CFAC50700F197810EB194
:102D00004107F1D400212046FFF780FC022840F063
:102D100095806E4604F2122304F252213246184680
:102D20001033FFF79BFA42F8040B8B42F7D10025D2
:102D300056F8041B002978D02046FFF767FC0128CD
:102D400074D80128A26C40F0BB8004F156010B231B
:102D500011F8015F002D76D10133402BF8D1B4F882
:102D6000B430B3F5807F6ED194F8B830092B6AD1B6
:102D700004F19400FFF774FA4FF0FF33161841F195
:102D80000001B34275EB01035DD304F1A000FFF72E
:102D900065FA94F8BA302063012BA37053D194F8EC
:102DA000B900834098B2608100284CD004F1A8009B
:102DB000FFF754FA80464048804544D808F10200A5
:102DC00062639BB2E06204F1A400FFF747FA871840
:102DD00004F19C002764FFF741FA024408FB03F06A
:102DE000A263C01945EB0503864271EB03032AD3A6
:102DF0002E4604F1AC00FFF731FAE06365B9638950
:102E0000B34220D9E16B2046FFF746FA81192046EC
:102E1000FFF7E2FB80B90136631993F84C30812B40
:102E200013D02035C5F30805E8E703200135042D4C
:102E30007FF47EAF042806D1012052E70428FBD09E
:102E400001287FF67EAF0D204BE705F1140004F159
:102E50004C063044FFF702FA01280546F3D9E36A2D
:102E60008342F0D96189821E236C02FB01336364C3
:102E7000A16B204601EBD511FFF7AEFB0028DBD19B
:102E800005F07F0006EB8000FFF7E8F9421C03D055
:102E90000135A842ECD0D6E70425C4E90500074A6D
:102EA0002570138801339BB21380E3800023E36114
:102EB00016E700BF00360020FDFFFF7FFE35002033
:102EC000B4F85730B3F5007FBDD1B4F8621021B922
:102ED00004F17000FFF7C2F9014694F85C502163D9
:102EE0006B1EA570012BAED894F85980A4F80A8007
:102EF000B8F1000FA7D008F1FF3313EA080FA2D1F1
:102F0000B4F85D703B0727819DD1B4F85F0018B914
:102F100004F16C00FFF7A2F9B4F85A30002B92D0FC
:102F200001FB05FC03EB171EE64470458BD3A0EBB9
:102F30000E054545B5FBF8F685D33D48864282D857
:102F40004FF6F57086425CD840F6F575AE428CBF00
:102F5000022501250236134402EB0E00032DE66222
:102F60006263A36320644ED1B4F876303B437FF4B0
:102F70006AAFB30004F17800FFF770F903F2FF13B2
:102F8000E063B1EB532FFFF45EAF4FF0FF33032D3F
:102F9000C4E905334FF08003237180D1B4F87C304D
:102FA000012B7FF47CAF511C2046FFF715FB002856
:102FB0007FF475AFB4F84A224AF6552320719A423D
:102FC0007FF46DAF1B4B04F14C00FFF747F99842BB
:102FD0007FF465AF03F1FF5304F50C70FFF73EF982
:102FE00003F50053203398427FF459AF04F50D7078
:102FF000FFF734F9A06104F50E70FFF72FF9606157
:103000004DE70325A6E7002F3FF41DAF022D03EB8C
:103010000C004FEA46031EBF9B1906F0010606EBA3
:103020005303ABE70B205CE60C205AE6032058E67E
:10303000F5FFFF0F525261412DE9F84F0646056832
:10304000884649B96F69C7B1EB6ABB4298BF01278F
:10305000AB69A3B9002405E0FFF776FB012804461D
:1030600003D801242046BDE8F88F421C00F0D5802B
:10307000EB6A8342F6D84746EAE70127E8E72A7871
:10308000EB6A042A40F08380A7F1020A023B4FF06A
:10309000010B9A4528BF4FF0000AD146696C2846BB
:1030A00001EB1931FFF798FA00283BD109F007032B
:1030B000EA6AC9F3C8010BFA03F3901EDBB26A187F
:1030C0004C4609F1010992F84C20814502EA0302BD
:1030D00033BF5B0000234FF40071DBB228BF994679
:1030E000B2B90234631E0333BCD8012321462846FB
:1030F0001A46FFF7EDFA0228B3D0012800F08D80C0
:10310000B8F1000F13D10223F3710028A9D130E0E8
:10311000CA450AD0002BD2D10131B1F5007FBDD212
:103120000123CCE74FF0FF34DCE70024DAE7F37942
:10313000022B07D17B1CA342E7D0B368FB1AB36113
:103140000323F37108F10102F369A24205D113B11F
:103150000133F361D9E70223FBE70BB90123F361E4
:10316000224641463046FFF74BFC002852D101234E
:10317000F361EA6AAB69023A6C6193429CBF03F166
:10318000FF33AB612B7943F001032B716AE74745AD
:1031900015D17C1C3046A34298BF02242146FFF77C
:1031A000D3FA01283FF45DAF431C36D0F8B1D5F80F
:1031B0001490B9F1010F02D9EB6A994500D3B946D1
:1031C0004C460134EB6AA34204D8B9F1010F3FF435
:1031D00041AF022421463046FFF7B6FA48B1012834
:1031E0003FF43FAF013018D04C45EAD132E7002C14
:1031F000E5D04FF0FF3221462846FFF783FB48B960
:10320000B8F1000FB5D0224641462846FFF77AFBB9
:103210000028AED001287FF424AF4FF0FF3421E71F
:103220002DE9F84306680446076B89463378203752
:10323000042B14BF4FF400134FF08053BB429CBFCC
:1032400000238363836B73B1C7F30808B8F1000FE1
:103250003CD10133416B836341B93389B3EB571FD1
:1032600034D80023A3630420BDE8F8837389013BAD
:1032700013EA57232AD1FFF767FA0128054601D838
:103280000220F1E7421C01D10120EDE7F36A8342FD
:1032900016D8B9F1000FE4D0616B2046FFF7CCFEE1
:1032A0000546C8B10128EBD0431CEDD0014630469D
:1032B000FFF756FC0028E7D1E37943F00403E371FC
:1032C000294630466563FEF7E7FFA0634C360020D1
:1032D00027634644E663C7E70720C5E7F8B50E460F
:1032E000002104460768FFF7C5FA98B90546A16BA7
:1032F0003846FFF771F968B93A78E36B042A1B780E
:103300000CD11B060ED5054601212046FFF788FF8C
:103310000028ECD0042808BF072006E0E52B01D0E8
:10332000002BF0D10135B542EED1F8BDC16CF8B536
:103330004B1C04460568066B1CD10127A16B28466F
:10334000FFF74AF990B92B78E26B042B0ABF137888
:10335000E52303F07F031370EF70236BB3420DD2AC
:1033600000212046FFF75CFF0028E7D0042808BFB3
:10337000022003E0FFF77EFA0028DED0F8BD00004F
:10338000F8B504460068A16B0569FFF725F920B977
:10339000E36B1A78852A01D00220F8BD2A4603F192
:1033A000200153F8040B8B4242F8040BF9D16E78DC
:1033B00001367601A6F16003B3F5007FECD8002159
:1033C0002046FFF72DFF0428E6D00028E5D1A16BA9
:1033D0002068FFF701F90028DFD1E36B1A78C02AD3
:1033E000DAD105F1200203F1200153F8040B8B42DE
:1033F00042F8040BF9D195F823300F222C33B3FB9C
:10340000F2F3B6EB431FC7D3402700212046FFF756
:1034100007FF0428C0D00028BFD1A16B2068FFF7A8
:10342000DBF80028B9D1E36B1A78C12AB4D1EA19C4
:1034300003F1200153F8040B8B4242F8040BF9D13D
:103440002037BE42E1D82846FEF742FF6B88181AA3
:1034500018BF01204000A0E70B68002210B50360F0
:1034600004460B6A83604B6AC261C37123F0FF0399
:10347000896AC0E90432C164FFF7FCF920B920462B
:10348000BDE81040FFF77CBF10BD0000F8B5036831
:10349000054601271C692046FEF71AFFA070000AA6
:1034A0006678E0702846E96CFFF7E4F920B102285D
:1034B00028BF0220C0B2F8BDA96B2868FFF78CF8BE
:1034C0000028F4D1EB6B04F1200254F8041B944261
:1034D00043F8041BF9D12B68DF70002EE7D00021E0
:1034E0002846013EFFF79CFEE0E700002DE9F84387
:1034F000FF270446066804203D46A16B11B9D8B1E8
:10350000042062E03046FFF767F800285DD1E06BE9
:103510000378002BF4D03278042A10D1852B4ED1B9
:10352000236B2046E364FFF72BFF00284DD133695E
:103530001B7903F03F03A3710020BDE8F883C27A32
:10354000E52B02F03F02A27144D02E2B42D022F094
:10355000200108293ED00F2A41D1590638D503F061
:10356000BF05236B477BE364437BBB4232D1428B75
:1035700082BB03780D21D6F80CE04FF6FF7923F0DB
:103580004003DFF86C80013B4B43012118F801CB6D
:1035900030F80CC001B3FF2B1CD82EF813C06146C5
:1035A000013301320D2AF1D10278520605D521B13D
:1035B000FF2B0FD800222EF81320013DEDB2002181
:1035C0002046FFF72DFE002897D00023A363B4E721
:1035D000AB42C9D0FF25F2E7CC45E2D0FAE71DB9EE
:1035E000FEF766FEB842A7D04FF0FF33E364A3E7CF
:1035F000887800082DE9F04F002187B00446D0F804
:103600000090FFF737F9804698BB99F80030042BFB
:1036100036D1D9F80C00FEF7B9FF07462046FFF770
:1036200065FF054608B1804623E0D9F810309A8C32
:10363000BA42F3D193F823B040265D4510D0F1068D
:10364000D9F8103008BF0236985B01F071F8D9F84C
:103650000C30824633F8150001F06AF882450CD030
:10366000EBB29B45DAD1D9F80C3033F81530002B8A
:10367000D4D1404607B0BDE8F08F02360135DCE713
:103680004FF0FF334FF0FF0AE364554604F1400367
:103690000293A16B4846FEF79FFF00285DD1E66BC1
:1036A0003778002F77D0F27AE52F02F03F03A3712D
:1036B00003D0120705D50F2B05D04FF0FF33E3647D
:1036C0004FE00F2B54D194F84B305B063FD4780673
:1036D00045D5236B07F0BF0796F80DA0E364737B15
:1036E00053453ED1738B002B3BD135780122D9F85D
:1036F0000C3005F03F05DFF8A8B001930D23013D24
:103700005D431BF8013BF35A6AB3FF2D29D81846D5
:10371000059301F00DF8019B691C049033F8150026
:10372000039101F005F8049A82421AD1059B03998E
:103730001A460D46194B9B45E3D13378590604D5FB
:103740001AB1019B33F815305BB9013FFDB200217E
:103750002046FFF765FD00289BD0804689E7BD42E3
:10376000BDD0FF25F3E74FF6FF718B42E2D0F8E7BB
:103770002DB93046FEF79CFD50453FF47AAF94F8E2
:103780004B30DB0799D40B2202993046FDF7E8F85D
:10379000002892D16DE74FF004086AE79578000899
:1037A000887800082DE9F04F90F84BB099B00446A6
:1037B0001BF0A00540F06B810668F26832F8153006
:1037C000002B4AD13378042B40F086800F230E352E
:1037D0002046B5FBF3F5A91CFFF780FD81460028C4
:1037E00074D10135236BA3EB4513E364E3795F07E1
:1037F00035D523F004032046E371FFF719F950BBD8
:103800004FF0FF32616B2046FFF7FAF818BBA36850
:103810002BB3214604A8FFF71FFEE0B970894FF4CF
:103820000071D4E90423E0FB01233069C4E90423D7
:103830003830FEF721FD3069D4E904232830FEF743
:103840001BFDE379326904A843F0010382F82130BB
:10385000FFF71CFE18B1814638E00135AEE7D6E926
:1038600003543F220021671C3846FEF7E7FB8523FF
:10387000012040222370C0234FF0C10E84F8203075
:10388000002319469846561C04F802E0023204F858
:10389000068020B135F8130008B10133DBB2060A07
:1038A000A054BE540232D606F3D135F8136001F1AC
:1038B000010C7EB90231284684F823306170FEF78E
:1038C00065FE84F82400000A84F82500484619B0F3
:1038D000BDE8F08F6146D6E704F140070DF110080E
:1038E0001BF0010F97E8070088E8070000F0D78079
:1038F00040234FF0010A84F84B30BC46F368BAF11C
:10390000050F98E80700ACE803002CF8022B4FEAFB
:1039100012428CF800205DD9981E524630F8021FE2
:10392000002946D1C446072102F00F0E9146120924
:103930000EF13000392888BF0EF1370001390CF83C
:10394000010D02D0B9F10F0FEED801F160037E2016
:103950000DEB030202F8580C04F13F0000228A42EA
:1039600006D010F801CF02F1010EBCF1200F33D1C7
:103970003F3204F1470C2244072997BF01F160034D
:10398000202001310DEB030098BF10F8580C02F80D
:10399000010F9445F0D12046FFF72CFE8146002808
:1039A00078D10AF1010ABAF1640FA6D14FF00709E4
:1039B0008CE74FF0100C01F0010E49080EEB4202AB
:1039C000D30344BF82F4883282F02102BCF1010C9F
:1039D000F1D1A3E75246A5E77246C0E7216B204626
:1039E000A1EB4511FEF746FF814600287FF46EAF3C
:1039F0004FF6FF783846FEF75BFC0190A16B30462E
:103A0000FEF7EAFD814600287FF460AFE36BE9B280
:103A1000019A4FF00D0CD6F80CE05A734FF00F02DC
:103A2000DFF8E0A0DA724A1E18730CFB02F284463B
:103A30009876D87640451AF8019B0CF1010C18BF16
:103A40003EF8120003EB090B18BF013203F809001E
:103A50004FEA1029002808BF4046BCF10D0F8BF833
:103A60000190E7D1404502D03EF812200AB941F05A
:103A700040011970012300212046F370FFF7D0FBAD
:103A8000814600287FF422AF013DB7D11BE04FF003
:103A900006091BE704287FF419AF84F84BB01BF02C
:103AA000020F20461BBF0C350D230125B5FBF3F596
:103AB00018BF01352946FFF711FC814600287FF425
:103AC00005AF013D8AD1A16B3046FEF785FD8146E9
:103AD00000287FF4FBAE01462022E06BFEF7AEFA31
:103AE000E36B03CF18605960BA7839889A721981EC
:103AF00094F84B30E26B03F0180313730123F37057
:103B0000E4E600BF8878000810B504460A46343061
:103B1000FEF7A4FB886004F13800FEF7A1FBC2E9C0
:103B2000040194F8213003F00203D3710023D36120
:103B300010BD000003284B8B04BF8A8A43EA02436E
:103B4000184670472DE9F04F0B7899B00546894625
:103B50002F2BD0F800B001D05C2B09D14A46137846
:103B6000914601322F2BFAD05C2BF8D0002301E0D4
:103B7000DBF81C300022AB60EA619BF80020042ACD
:103B80001ED1EBB1DBF82030294604A82B62DBF80C
:103B900024306B62DBF82830AB62FFF75DFC034634
:103BA000002840F04B81DBF8102002F13800FEF7CE
:103BB00055FBC5E9040392F8213003F00203EB71D1
:103BC00099F800301F2B00F2F8808023002128464E
:103BD00085F84B3019B0BDE8F04FFEF74BBE2F28EB
:103BE00000F075815C2800F072817F2808D80146BA
:103BF0009B480093FCF798FD009B002840F02B8128
:103C0000FF2F00F0288123F817400137D8E0022F5A
:103C100003D15A882E2A00F0E68003EB470206E023
:103C200032F8021D202901D02E2902D1013F002F98
:103C3000F6D14FF0000103EB470223F81710002FD5
:103C400000F00981002033F8106001460130202E79
:103C5000F9D009B92E2E02D144F00304E4B232F8AF
:103C6000020D2E2801D0013FF9D14FF020324FF044
:103C7000000A6A64D0462A64C5F847200822481C16
:103C800033F811600090002E00F0FA80202E04D04E
:103C90002E2E07D1B84200F0E98044F00304E4B2CC
:103CA0000099ECE7924580F0E4800099B94213D185
:103CB0000B2A08D1E0E00099B94204D044F0030493
:103CC000E4B200F2DD804FEA88080B224FF0080AC8
:103CD00000975FFA88F8E3E77F2E3ED944F00201AF
:103CE0003046CDE90232CBB240F25231019300F0BE
:103CF000EDFC10F0800F0646DDE9023214D000F032
:103D00007F0658498E5D46B131465748CDE90232AB
:103D1000FCF70AFDDDE9023208B301995F2641F0A4
:103D20000301C9B2019110E0FF28ECD9511E8A4568
:103D300004D344F003049246E4B2B1E705EB0A0170
:103D4000000A0AF1010A81F8400005EB0A01019C12
:103D50000AF1010A81F84060A2E70194D4E7A6F1D4
:103D6000410189B2192902D848F00208EDE7A6F10D
:103D7000610189B219299EBF203E48F00108B6B200
:103D8000E3E7002A08BF052058E05A0755D4AB796D
:103D9000DB0662D59BF80000042852D1AB682946A7
:103DA000EA792B622B69DBF8100023F0FF03134341
:103DB0006B62EB6CAB62FFF7A7FE2B680027DB683A
:103DC00019F8010B58B140F25231009300F09CFCFD
:103DD000044600283FD01F28009B3FF600AF042474
:103DE000012F7FF414AF1A882E2A7FF416AF002219
:103DF00005F13F0123F8172013469F4294BF20226C
:103E00002E2201330B2B01F8012FF6D144F02004B0
:103E1000E4B2284685F84B40FFF7ECFB95F84B30B1
:103E20000028B2D0042809D1990603F00402A8D5CD
:103E3000002AC2D0802385F84B30002019B0BDE89D
:103E4000F08F2B6B0BF14C01C3F308031944FFF700
:103E500071FEA860B1E70620F0E70520EEE700BF9D
:103E60009B77000808780008A47700089245FFF4C3
:103E70001FAF0B2A7FF41FAF44F003040B22E4B200
:103E800095F84030E52B04BF052385F84030082A1B
:103E900004BF4FEA88085FFA88F808F00C030C2B7F
:103EA00003D008F00303032B02D144F00204E4B270
:103EB000A007AED448F3000318F0040F03F010037A
:103EC00043EA0403DCB218BF44F00804A1E74A4601
:103ED0001478914601322F2CFAD05C2CF8D01F2C8C
:103EE0008CBF00240124A4007AE700BF1FB5CDE9F0
:103EF000001003A814460391FEF702FA002815DB10
:103F00000B4A52F820300BB100211970019B0BB104
:103F10000021197042F820302CB1002201A9684616
:103F2000FEF7C0FE0446204604B010BD0B24FAE79D
:103F3000003600202DE9F04F99B017460546019153
:103F4000002800F0428102F03F0A03A901A852466E
:103F5000FEF7A8FE0446002840F0E280039E4FF4DE
:103F60008C60049602F08AFC8046002800F02F81C5
:103F700000F50073F060019904A83361FFF7E2FDDA
:103F8000044620B99DF95B30002BB8BF062417F01A
:103F90001C0F00F08680002C47D0042C40F0BC8021
:103FA00004A8FFF7FFFB0446002840F0B5804AF064
:103FB000080A1AF0080F33787FD0042B3FD13469F8
:103FC00029462E602046FFF79FFD1E220021A01CDF
:103FD000FEF734F8306900211A222630FEF72EF859
:103FE000336920221A71346902F084FC01460122EF
:103FF00008342046FEF738F9336904A883F82120F5
:10400000FFF744FA0446002840F08680A96849B1C9
:1040100002462846FEF724FDAF680446013F77615B
:10402000002C79D14AF0400A47E09DF8163013F091
:10403000110F40F0C6807C07BBD508246CE002F06D
:1040400059FC0246014613980E30FEF70DF91398FD
:1040500011461630FEF708F913993078FFF76AFD1C
:10406000202300220746CB7230461399FEF7A8FAA8
:10407000139B00221A775A779A77DA770123F37025
:10408000002FCFD0394604A8D6F84890FEF7E8FCB8
:104090000446002840D149463046FEF79DFA0446C2
:1040A000BCE7002C38D19DF81630D80600F1878087
:1040B000B90702D5DA0700F18480B36C1399AB64B9
:1040C000E9643078042831D1069B29469DF81720F1
:1040D0002B62089B306923F0FF0313436B62179B2D
:1040E000AB62FFF711FDF3880024002205F15009AF
:1040F000AB800023214648462E6085F830A085F825
:1041000031406C64C5E90E234FF40072FDF796FF51
:104110001AF0200F15D10024404602F0BFFB0CB16D
:1041200000232B60204619B0BDE8F08FFFF702FD99
:104130000023A86001F11C00FEF790F86B61286174
:10414000D1E7D5E9047A57EA0A03E4D0B6F80AB011
:10415000A9684FEA4B2BBB4574EB0A03C5E90E7AFD
:1041600010D22846FEF7F0FAB7EB0B0701466AF1CA
:10417000000A01281FD9431C1FD0BB4574EB0A035A
:10418000EFD300242964002CC6D1C7F30803002B09
:10419000C1D03046FEF780F8A8B17F0A0123494616
:1041A00047EACA57C2196A64707802F017F8041E09
:1041B00018BF0124B0E70224E4E70124E2E7042465
:1041C000AAE70724A8E70224A6E70924AAE71124FE
:1041D000A8E700002DE9F04F9A4687B000238846F3
:1041E00005A90446CAF800301646FEF7A3F80546AE
:1041F00090BB94F831507DBB94F8303013F001033C
:10420000019300F0AB80D4E90432D4E90E011B1A0B
:1042100062EB0102B34272F1000238BF1E4604F1A4
:1042200050030293C6B1D4E90E01C0F30803002B7A
:1042300040F08580DDF81490430AB9F80A2043EA7B
:10424000C153013A1A401AD1014309D1A06801288B
:104250000DD8022584F83150284607B0BDE8F08F0C
:10426000216C20460392FEF76FFA039AEFE7431C96
:1042700004D10123019D84F83130EDE72064216CE5
:104280004846FEF709F80028E3D0B6F5007F02EBB8
:10429000000733D3B9F80A1002EB56204FEA562B29
:1042A000884299F8010088BFA1EB020B3A464146CB
:1042B0005B4601F093FF0028DBD194F93020002AFF
:1042C0000BDA606CC01B584507D24FF4007204F142
:1042D000500108EB4020FDF793FE4FEA4B27DAF838
:1042E0000030F61BB8443B44CAF80030D4E90E3223
:1042F000DB1942F10002C4E90E3293E7626CBA4264
:104300001CD094F9303004F1500199F80100002BD1
:104310000CDA0123039101F085FF0028A9D194F85C
:104320003030039903F07F0384F8303001233A469C
:1043300099F8010001F052FF00289AD16764A16B3F
:104340004046029BC1F30801C1F500771944B7420A
:1043500028BF37463A46FDF753FEC0E707257BE7FF
:1043600070B596B00E460022019002A901A8FEF792
:1043700099FC0446E0B94FF48C6002F07FFA0546E0
:10438000D8B1029B00F500720199D86002A81A61A9
:10439000FFF7D8FB044640B99DF95330002B0ADBE8
:1043A0001EB1314602A8FEF71DF8284602F076FA43
:1043B000204616B070BD0624F7E71124F8E7000088
:1043C0002DE9F041B8B00222019003A901A8FEF73F
:1043D00069FC044608BB039E4FF48C60109602F003
:1043E0004DFA0546002865D000F50073F06001998C
:1043F00010A83361FFF7A6FB044658B99DF88B302F
:104400009A0655D41B0653D49DF8468018F0010F28
:1044100007D00724284602F041FA204638B0BDE80C
:10442000F08134780496042C13D104A93069FFF785
:104430006BFB069F18F0100F11D110A8FEF776FF46
:1044400004460028E6D157BB3046FEF7DFFB0446A2
:10445000E0E71F992046FFF76DFB0746EAE7F3699F
:10446000BB42D6D0042C4FF0000124A824962697F6
:1044700001BFDDE90823CDE928239DF817308DF829
:104480009730FEF7F7F904460028C3D124A8FFF7B8
:104490002DF804460028BCD00428BBD1CDE7024645
:1044A000394604A8FEF7DCFA04460028B2D1CBE76F
:1044B0000624AFE71124B0E72DE9F041BCB0CDE907
:1044C00000106846FDF71CFF022203A901A8FEF7B1
:1044D000E9FB0446002840D1039E4FF48C601496FB
:1044E00002F0CCF90546002800F0ED8000F50073DD
:1044F00014AFF060019938463361FFF723FB04469F
:1045000040BB9DF89B3013F0A00F40F0D88033786B
:10451000DDF80080042B67D1336904AC03F1400C53
:104520001868083353F8041C2246634503C2144636
:10453000F6D15022394628A8FDF762FD414628A849
:10454000FFF700FB044600284BD12A9A169B9A429B
:1045500007D00824284602F0A1F920463CB0BDE867
:10456000F081349A209B9A42F3D128A8FFF71AF9D8
:1045700004460028EED133690DF1100C93F8018048
:1045800093F823E09C8C6246083303CABA4243F88E
:10459000080C43F8041C9446F5D1336928A883F825
:1045A0000180336983F823E0336983F82440240AC7
:1045B00083F8254032691379D9065CBF43F02003A4
:1045C0001371FEF763FF04460028C3D13846FEF797
:1045D000ADFE04460028BDD13046FEF717FB044669
:1045E000B8E70428B6D1C0E7239A04AB02F1200C47
:1045F0001068083252F8041C1C46624503C4234666
:10460000F6D15022394628A8FDF7FAFC414628A8E1
:10461000FFF798FA044600284DD12A9A169B9A4231
:1046200097D1349A209B9A4293D128A8FFF7BAF8E1
:10463000044600288ED137990DF11D030DF12D0090
:1046400001F10D0253F8044B834242F8044BF9D1B7
:1046500018884FF0010810809B7893709DF81B30EC
:10466000DA0658BF43F02003CB7286F80380CB7A7A
:10467000DB06ABD5169A2A9B9A42A7D03078FFF773
:1046800059FA01463046FDF707FE0146C8B13046EB
:10469000FDF7A2FF044600287FF45CAF96F86D306A
:1046A0002E2B93D12A9A06F16C013046FDF788FF34
:1046B00086F803808AE704287FF44CAFB5E7062428
:1046C00048E7022446E7112447E700007F2801D885
:1046D00080B27047B0F5803F11D240F25233994218
:1046E0000DD1084A002332F8021B814201D19BB24E
:1046F00002E00133802BF6D18033D8B2704700201E
:10470000704700BF487B00087F280DD940F2523324
:10471000994208D1FF2806D800F10040034B8038A9
:1047200033F8100070470020704700BF487B000836
:10473000B0F5803FF0B522D283B21F4A1F49B3F5CE
:10474000805F38BF0A46141D34F8042C2146AAB1F4
:10475000934213D334F8025C2E0AEFB252FA85F575
:10476000A84223DA082E09D8DFE806F0050A10135C
:104770001517191B1D00801A34F810301846F0BDAB
:104780009A1A02F001029A1A93B2F7E7103B9BB211
:10479000F4E7203BFBE7303BF9E71A3BF7E7083348
:1047A000F5E7503BF3E7A3F5E353F0E70434002EBD
:1047B000CAD101EB4702C6E798780008547900088F
:1047C00008B5074B074A196801F03D019960536825
:1047D0000BB190689847BDE8084002F087BA00BF67
:1047E000000002400436002008B5084B196889090A
:1047F00001F03D018A019A60054AD3680BB1106946
:104800009847BDE8084002F071BA00BF00000240BE
:104810000436002008B5084B1968090C01F03D0169
:104820000A049A60054A53690BB190699847BDE83C
:10483000084002F05BBA00BF0000024004360020CE
:1048400008B5084B1968890D01F03D018A059A6089
:10485000054AD3690BB1106A9847BDE8084002F0D9
:1048600045BA00BF000002400436002008B5074BDF
:10487000074A596801F03D01D960536A0BB1906A4B
:104880009847BDE8084002F031BA00BF000002407E
:104890000436002008B5084B5968890901F03D012C
:1048A0008A01DA60054AD36A0BB1106B9847BDE8FC
:1048B000084002F01BBA00BF00000240043600208E
:1048C00008B5084B5968090C01F03D010A04DA608B
:1048D000054A536B0BB1906B9847BDE8084002F056
:1048E00005BA00BF000002400436002008B5084B9E
:1048F0005968890D01F03D018A05DA60054AD36BDC
:104900000BB1106C9847BDE8084002F0EFB900BF4A
:10491000000002400436002008B5074B074A19681A
:1049200001F03D019960536C0BB1906C9847BDE864
:10493000084002F0DBB900BF00040240043600204A
:1049400008B5084B1968890901F03D018A019A6090
:10495000054AD36C0BB1106D9847BDE8084002F0D2
:10496000C5B900BF000402400436002008B5084B5A
:104970001968090C01F03D010A049A60054A536D5B
:104980000BB1906D9847BDE8084002F0AFB900BF89
:10499000000402400436002008B5084B1968890D50
:1049A00001F03D018A059A60054AD36D0BB1106E86
:1049B0009847BDE8084002F099B900BF00040240E2
:1049C0000436002008B5074B074A596801F03D013D
:1049D000D960536E0BB1906E9847BDE8084002F065
:1049E00085B900BF000402400436002008B5084B1A
:1049F0005968890901F03D018A01DA60054AD36EE0
:104A00000BB1106F9847BDE8084002F06FB900BFC6
:104A1000000402400436002008B5084B5968090C10
:104A200001F03D010A04DA60054A536F0BB1906F43
:104A30009847BDE8084002F059B900BF00040240A1
:104A40000436002008B5084B5968890D01F03D0176
:104A50008A05DA60054AD36F13B1D2F8800098470F
:104A6000BDE8084002F042B90004024004360020CC
:104A700000230C4A10B519460B4C42F8043B54F87D
:104A80002300016042F813100433402BF7D1074A8A
:104A90004FF0FF339360D360C2F80834C2F80C348F
:104AA00010BD00BF04360020487C00080000024012
:104AB00011282DE9F041884611D004D8102810D1D2
:104AC0000F24002003E0122807D10F2407202D4FC8
:104AD0004FF0010C3D68A04205D900204DE00724AD
:104AE000EFE70446F3E70CFA00F6354247D107EB4F
:104AF000C0043543C4E90123F3B23D6073B1224BD6
:104B0000D3F8D84044F00104C3F8D840D3F80041AA
:104B100044F00104C3F80041D3F8003116F47F4F8C
:104B20000ED0194BD3F8D84044F00204C3F8D84053
:104B3000D3F8004144F00204C3F80041D3F8003137
:104B40000501124C6359186820F01F00186018689E
:104B500010F00100FBD166194FF03D0C96F80CE007
:104B600071680CFA0EF70F601860212058611AB1B5
:104B70004146B07B00F054FC6019BDE8F081013083
:104B8000A9E700BF0436002000440258487C000812
:104B900010B5302484F31188FFF78AFF002383F3D4
:104BA000118810BD10B50446807B00F04FFC1649FB
:104BB000637B01229A400B6823EA0203DAB20B609E
:104BC00072B9124AD2F8D81021F00101C2F8D810F7
:104BD000D2F8001121F00101C2F80011D2F8002131
:104BE00013F47F4F0ED1094BD3F8D82022F00202E4
:104BF000C3F8D820D3F8002122F00202C3F8002124
:104C0000D3F8003110BD00BF043600200044025824
:104C100008B5302383F31188FFF7C4FF002383F323
:104C2000118808BD836CC26A8B42506806D9013B6B
:104C30004A0003EB4103B3FBF2F318447047000052
:104C400001F001038A0748BF43F002034A0748BF47
:104C500043F008030A0748BF43F00403CA0648BFED
:104C600043F010038A06426B48BF43F020031A4307
:104C70004263704710B5074C204600F063FF064BB7
:104C80000022C4E91023054BA364054BE363054BE5
:104C9000E36410BD8C3800200070005200B4C404DE
:104CA0008C36002088360020C36A0BB9104BC362D3
:104CB0000379012B11D10F4B98420ED10E4BD3F833
:104CC000D42042F48032C3F8D420D3F8FC2042F43C
:104CD0008032C3F8FC20D3F8FC30436C00221A6504
:104CE000DA621A605A605A624FF0FF329A63704774
:104CF000487D00088C380020004402580379012BBD
:104D00001BD0436C00221A65DA621A605A605A623C
:104D10004FF0FF329A63094B98420ED1084BD3F8FB
:104D2000D42022F48032C3F8D420D3F8FC2022F41B
:104D30008032C3F8FC20D3F8FC3070478C38002058
:104D40000044025810B5446C0649FFF76BFF6060E1
:104D5000236842F2107043F003032360BDE8104063
:104D600001F0AEB8801A060070B5456C0129074EF7
:104D70006C6808BF064904EA060418BF0549FFF736
:104D800051FF044344F480546C6070BD00ECFFFF9D
:104D900080F0FA0240787D01436C00225A601A606C
:104DA00070470000426C0129536823F4404304D04B
:104DB000022905D001B95360704743F48043FAE7F4
:104DC00043F40043F7E70000436C41F480519A60DC
:104DD000D9605A6B1206FCD580229A637047000096
:104DE00010B541F48851446CA260E160616B11F030
:104DF0004502FBD0A26311F0040203D0FFF720FFAD
:104E0000012010BD616910461960FAE710B541F440
:104E10008851446CA260E160616B11F04502FBD0E7
:104E2000A26311F0050203D0FFF70AFF012010BDB5
:104E3000616910461960FAE72DE9F0413023044614
:104E40000F46164683F31188436CDB6B23B14FF09A
:104E5000FF31403001F040F8606C00220265C2630F
:104E6000C262456B15F4807504D185F31188012069
:104E7000BDE8F0814FF0FF33836382F31188012F87
:104E800006D9334620460C21BDE8F041FFF7BEBFEE
:104E90001046EDE72DE9F041446C0F46002516461B
:104EA000616BA1632565E562FFF7CAFE012F06D994
:104EB00033462A460C21BDE8F041FFF7A7BFBDE805
:104EC000F081000010B541F49851446CA260E1609B
:104ED000616B11F04502FBD0A26311F03F0203D0D9
:104EE000FFF7AEFE012010BD216A10461960E1698E
:104EF0005960A16999606169D960F4E72DE9F341CE
:104F000004460191006D01A916461F4601F012FEEC
:104F100000284BD0636C4FF47A72A06C5D68DDF8AA
:104F20000480C5F3090501356D00B0FBF5F0B0FB59
:104F3000F2F050435862204600F0C2FD60BB636C43
:104F40004FF0FF32E56C3946C3F858804FF0010846
:104F50002046C3F850809A634FF49572DA6342F2A8
:104F600007029E62DA622B46089AFFF74FFF98B954
:104F70002A680F4B13407BB92A4641462046FFF76B
:104F80005BFF054640B932460199206D01F00CFEE9
:104F9000284602B0BDE8F08132460199206D01F04B
:104FA00003FEE26C01212046FFF774FF0125EFE7C5
:104FB00008E0FFFD2DE9F7431F46436C856C04466E
:104FC0005E68884601924FF47A72C6F3090601368C
:104FD0007600B5FBF6F5B5FBF2F555435D6200F0E2
:104FE0006FFD002847D14FEA472901A9206D4A46A5
:104FF00001F0A0FD00283ED0656C019BE66CAB651E
:1050000001232B654FF0FF33AB634FF49573EB63D4
:10501000236BC5F82890DB06334658BF4FEA482873
:10502000012F42461BD912212046FFF7EFFEC0B9DF
:105030003268124B1340A3B942F293033246394609
:105040002046EB62FFF7F8FE054650B94A46019943
:10505000206D01F0A9FD284603B0BDE8F0831121C1
:10506000E2E74A460199206D01F09EFDE26C394667
:105070002046FFF70FFF0125EDE700BF08E0FFFD29
:105080002DE9F3411F46436C856C04465E688846F3
:1050900001924FF47A72C6F3090601367600B5FB29
:1050A000F6F5B5FBF2F555435D6200F009FD002809
:1050B00043D17E0201A9206D324601F083FD002814
:1050C0003BD0656C019BAB6501232B654FF0FF3333
:1050D000AB634FF48D73EB63236BAE62DB06E66C60
:1050E00058BF4FEA4828012F334642461AD91921A2
:1050F0002046FFF78BFEB8B93268114B13409BB9BD
:1051000042F29103324639462046EB62FFF794FEA5
:10511000054648B90199206D01F092FD284602B07C
:10512000BDE8F0811821E3E70199206D01F088FDC9
:10513000E26C39462046FFF7ADFE0125EEE700BFE1
:1051400008E0FFFD12F0030F2DE9F04107460C4681
:1051500015461E4617D00E44B44202D10020BDE8C9
:10516000F0810123FA6B21463846FFF723FF002820
:10517000F5D128464FF40072F96B05F5007501343E
:10518000FCF73EFFE8E7BDE8F041FFF713BF000082
:1051900012F0030F2DE9F04107460C4615461E4656
:1051A00017D00E44B44202D10020BDE8F081294658
:1051B0004FF40072F86B05F50075FCF721FF012331
:1051C000FA6B21463846FFF75BFF0028EDD101342A
:1051D000E8E7BDE8F041FFF753BF0000002070474B
:1051E000302310B583F311880024436C40302146EE
:1051F000DC6300F07FFE84F3118810BD0268436811
:105200000A43026003B1184770470000024A13685E
:1052100043F0C00313607047007C004013B50E4C90
:10522000204600F0EFFC04F1140000234FF400725C
:105230000A49009400F080F9094B4FF400720949C3
:1052400004F13800009400F0F9F9074A074BC4E96B
:10525000172302B010BD00BFE03C0020E03A002060
:105260000D520008E0380020007C004000E1F50508
:10527000264B30B5002914BF0C461C46037C012B7D
:1052800011D1234B98420ED1224BD3F8E82042F0A3
:105290000042C3F8E820D3F8102142F00042C3F8DE
:1052A0001021D3F810312268036EC16D03EB520355
:1052B0008466B3FBF2F36268150442BF23F007056E
:1052C00003F0070343EA4503CB60A36843F04003C0
:1052D0004B60E36843F001038B6042F4967343F044
:1052E00001030B604FF0FF330B6251050AD512F03A
:1052F000102209D0B2F1805F14BFFF233F2380F852
:10530000643030BDFF23FAE77F23F8E7507D0008C3
:10531000E03C0020004402582DE9F047C66D0446E9
:105320003768F5692A07356219D045F30001C5F3DE
:10533000C00301F0200141EA0321AB074FF0300325
:1053400048BF41F04001680748BF41F0800183F346
:105350001188201DFFF752FF002383F31188EA050F
:105360000AD5302383F311884FF48061201DFFF7A5
:1053700045FF002383F311884FF030094FF0000AF6
:105380000BE089F31188736A204694F86410194081
:1053900000F052FC8AF31188F56915F02008F0D16D
:1053A0003B0616D54FF0300A04F13809280610D50F
:1053B0008AF31188484600F075F9002829DA082197
:1053C000201DFFF71BFF27F080033360002383F3CA
:1053D0001188790614D56A0612D5302383F3118813
:1053E000D4E913239A4208D1236C33B127F0400744
:1053F0001021201DFFF702FF3760002383F311887F
:10540000EB060BD5A26E136943B15069BDE8F047B6
:105410001847B06288F31188F569C7E7BDE8F087DF
:10542000090100F16043012203F56143C9B283F829
:10543000001300F01F039A4043099B0003F16043EF
:1054400003F56143C3F880211A60704700F01F0321
:1054500001229A40430900F160409B0000F5614041
:1054600003F1604303F56143C3F88020C3F8802152
:10547000002380F800337047F8B51546826804466B
:105480000B46AA4200D28568A1692669761AB54200
:105490000BD22A461846FCF7B3FDA2692A44A3683A
:1054A0002846A2615B1BA360F8BD0CD9AF1B184650
:1054B0003246FCF7A5FD3A46E1683044FCF7A0FD12
:1054C000E368DA19EBE72A461846FCF799FDE2682B
:1054D000E5E70000836893422DE9F04104460E465B
:1054E000154600D28568D4E904703F1ABD420CD23B
:1054F0002A463146FCF784FD62692A44A36828469F
:1055000062615B1BA360BDE8F0810ED9A5EB0708C3
:105510003A463146FCF774FD4246F119E068FCF763
:105520006FFDE36803EB0802E8E72A463146FCF723
:1055300067FDE268E2E7000010B5C1600024C361C6
:10554000029B84600362C0E905111144C0E90000B8
:10555000016110BD08B5D0E90532934201D18268DE
:1055600082B98268013282605A1C4261197000213E
:10557000D0E904329A4224BFC368436100F0D4FCEE
:10558000002008BD4FF0FF30FBE7000070B530236E
:1055900004460D4683F31188A668A6B1A368A269E4
:1055A000013BA360531CA36115782269934224BF79
:1055B000E368A361E3690BB120469847002383F3B6
:1055C0001188284607E02946204600F09DFC002867
:1055D000E2DA86F3118870BD2DE9F74F05460F46D4
:1055E00014469946D0F81CA04FF0300888F3118873
:1055F0004FF0000B164666B1324639462846FFF793
:105600003BFF034660B94946284600F07DFC002870
:10561000F2D0002383F31188A01B03B0BDE8F08F04
:10562000BAF1000F03D001902846D047019B8BF3BD
:105630001188F61A1F4488F31188DCE7C160C36142
:10564000009B82600362C0E905111144C0E90000BB
:1056500001617047F8B504460D461646302383F3C2
:105660001188A768A7B1A368013BA36063695A1CAE
:1056700062611D70D4E904329A4224BFE368636119
:10568000E3690BB120469847002080F3118807E0BA
:105690003146204600F038FC0028E2DA87F3118812
:1056A000F8BD0000D0E9052310B59A4201D1826807
:1056B0007AB982680021013282605A1C82611C78AA
:1056C00003699A4224BFC368836100F02DFC204621
:1056D00010BD4FF0FF30FBE72DE9F74F05460F46B1
:1056E00014469946D0F81CA04FF0300888F3118872
:1056F0004FF0000B164666B1324639462846FFF792
:10570000E9FE034660B94946284600F0FDFB002843
:10571000F2D0002383F31188A01B03B0BDE8F08F03
:10572000BAF1000F03D001902846D047019B8BF3BC
:105730001188F61A1F4488F31188DCE70379052BDA
:1057400005BF836A002001204B6004BF4FF4007343
:105750000B60704770B55D1E866A04460D44B54205
:1057600005D9436B43F080034363012070BD0625D8
:105770000571FFF7E7FC05232371F7E770B55D1EA0
:10578000866A04460D44B54205D9436B43F0800355
:105790004363012070BD07250571FFF7F9FC052360
:1057A0002371F7E738B505790446052D05D108239F
:1057B0000371FFF713FD257138BD0120FCE70000E0
:1057C0000323F0B5037185B00446FFF7BBFA00224E
:1057D00020461146FFF7F8FA4FF4D57203AB0821C3
:1057E0002046FFF713FB0246B8B901232363039B4E
:1057F00003F47063B3F5807F09D103AB37212046F2
:10580000FFF704FB18B9A54B039A1340A3B1204638
:105810000125FFF7C1FA0223ADE003AB00223721D7
:105820002046FFF7F3FA28B99C4A039B1A40002A46
:1058300000F0A58002232363236B03F00F03022BE8
:1058400040F0A7806425964E42F2107000F038FBBD
:1058500003AB324601212046FFF7C2FA0028D6D119
:10586000039B002B80F291805A0003D5236B43F0F9
:1058700010032363002204F1080302212046FFF7EE
:1058800021FB02460028C2D104F13803032120463F
:10589000FFF7BCFA0028BAD104F11805A26B092160
:1058A00020462B46FFF70EFB0028B0D102ABA26BBF
:1058B00007212046FFF7AAFA06460028A7D1236B46
:1058C00003F00F03022B40F08D807E227F212846BB
:1058D00001F058FC012840F28580E76B42F210701D
:1058E00000F0EEFA08234FF4007239462046009685
:1058F000FFF704FB00288AD1384601F08FFC236BA8
:10590000A06203F00F03022B70D103AB654A06219E
:105910002046FFF77BFA00286FD16049039B1940AE
:10592000B1FA81F149092046FFF71EFA02AB4FF4A4
:10593000007210212046FFF769FA054600287FF41F
:1059400066AF564E029B33427FF461AF236B13F078
:105950000E0F73D003F00F03022B7FF458AFE36AEE
:105960001978012900F08F80022900F09380002926
:1059700040F0928005232846237105B0F0BD114602
:1059800020462263FFF720FA56E7013D7FF45CAF23
:105990003DE7454D6426454A404F012B08BF15465B
:1059A00003AB002237212046FFF730FA00287FF4AE
:1059B0002EAF039B3B427FF42AAF03AB2A4629213B
:1059C0002046FFF70DFA00287FF421AF039B002B40
:1059D000FFF64AAF013E3FF41AAF42F2107000F0FA
:1059E0006FFADDE7284601F0EDFB88E77E227F2194
:1059F0002846E66B01F0C6FB08B9002193E70023B7
:105A000040223146204600930623FFF777FA00280C
:105A1000F3D1B3895BBA9B07EFD5254B40223146C2
:105A2000204600930623FFF769FA0028E5D1317C70
:105A300001F00F010F3918BF012174E7E36A1978EB
:105A4000002997D001297FF4E2AE2046FFF7AAF99A
:105A500003ABA26B37212046FFF7D8F900287FF46B
:105A6000D6AE039B33427FF4D2AE03AB02220621B3
:105A70002046FFF7CBF900287FF4C9AE039B3342E1
:105A80003FF478AFC3E60B4F2046FFF78BF903AB2B
:105A90003A46ECE7084FF7E7084FF5E708E0FFFD67
:105AA0000080FFC00001B903000010800080FF509B
:105AB000F1FFFF800001B7030002B7030000B70346
:105AC00037B504460C4D01ABA26B0D212046FFF704
:105AD0009DF978B9019B2B420BD1C3F34323042BCF
