:020000040800F2
:1000000000060020E1020008E3020008E302000805
:10001000E3020008E3020008E3020008E30200082C
:10002000E3020008E3020008E3020008453200088A
:10003000E3020008E3020008E3020008E30200080C
:10004000E3020008E3020008E3020008E3020008FC
:10005000E3020008E3020008E3020008E3020008EC
:10006000E3020008E3020008E3020008A912000806
:10007000D1120008FD1200082913000855130008CA
:100080007D130008A9130008E3020008E30200083A
:10009000E3020008E3020008E3020008E3020008AC
:1000A000E3020008E3020008E3020008E30200089C
:1000B000E3020008E3020008E3020008E30200088C
:1000C000E3020008E3020008E3020008E30200087C
:1000D000E3020008E3020008E3020008E30200086C
:1000E000E3020008E3020008E3020008E30200085C
:1000F000E3020008E3020008E3020008D513000849
:10010000E3020008E3020008154A0008E3020008C1
:10011000E3020008E3020008E3020008E30200082B
:10012000011400082914000855140008811400085F
:10013000AD140008E3020008E3020008E30200082F
:10014000E3020008E3020008E3020008E3020008FB
:10015000D5140008011500082D150008E302000859
:10016000E3020008E3020008E3020008E3020008DB
:10017000E3020008193E0008E3020008E302000859
:10018000E3020008E3020008E3020008014A000855
:10019000E3020008E3020008E3020008E3020008AB
:1001A000E3020008E3020008E3020008E30200089B
:1001B000E3020008E3020008E3020008E30200088B
:1001C000E3020008E3020008E3020008E30200087B
:1001D000E3020008053E0008E3020008E30200080D
:1001E000E3020008E3020008E3020008E30200085B
:1001F000E3020008E3020008E3020008E30200084B
:10020000E3020008E3020008E3020008E30200083A
:10021000E3020008E3020008E3020008E30200082A
:10022000E3020008E3020008E3020008E30200081A
:10023000E3020008E3020008E3020008E30200080A
:10024000E3020008E3020008E3020008E3020008FA
:10025000E3020008E3020008E3020008E3020008EA
:10026000E3020008E3020008E3020008E3020008DA
:10027000E3020008E3020008E3020008E3020008CA
:10028000E3020008E3020008E3020008E3020008BA
:10029000E3020008E3020008E3020008E3020008AA
:1002A000E3020008E3020008E3020008E30200089A
:1002B000E3020008E3020008E3020008E30200088A
:1002C000E3020008E3020008E3020008E30200087A
:1002D000E3020008E3020008E3020008E30200086A
:1002E00002E000F000F8FEE772B6374880F30888B5
:1002F000364880F3098836483649086040F20000E5
:10030000CCF200004EF63471CEF200010860BFF36B
:100310004F8FBFF36F8F40F20000C0F2F0004EF637
:100320008851CEF200010860BFF34F8FBFF36F8F8B
:100330004FF00000E1EE100A4EF63C71CEF20001E3
:100340000860062080F31488BFF36F8F02F0DCFF93
:1003500004F012F94FF055301F491B4A91423CBF3F
:1003600041F8040BFAE71D49184A91423CBF41F895
:10037000040BFAE71A491B4A1B4B9A423EBF51F83D
:10038000040B42F8040BF8E700201849184A914280
:100390003CBF41F8040BFAE702F0F4FF04F06EF9F9
:1003A000144C154DAC4203DA54F8041B8847F9E7A6
:1003B00000F0CEF8114C124DAC4203DA54F8041B95
:1003C0008847F9E702F0DCBF000600200022002089
:1003D0000000000808ED00E00000002000060020FA
:1003E000184F00080022002064220020682200200C
:1003F00098480020E0020008E0020008E00200083F
:10040000E00200082DE9F04F2DED108AC1F80CD064
:10041000D0F80CD0BDEC108ABDE8F08F002383F338
:1004200011882846A047002002F0C0F9FEE702F03C
:100430004BF900DFFEE7000080EA0102844612F07B
:10044000030F4FD111F0030F32D14DF8044D11F0CD
:10045000040F51F8043B0BD0A3F101329A4312F080
:10046000803F04BF4CF8043B51F8043B16D100BF59
:1004700051F8044BA3F101329A4312F0803FA4F1EA
:1004800001320BD14CF8043BA24312F0803F04BF71
:1004900051F8043B4CF8044BEAD023460CF8013BDE
:1004A00013F0FF0F4FEA3323F8D15DF8044B704788
:1004B00011F0010F06D011F8012B0CF8012B002AC6
:1004C00008BF704711F0020FBFD031F8022B12F0B5
:1004D000FF0F16BF2CF8022B8CF8002012F47F4F70
:1004E000B3D1704711F8012B0CF8012B002AF9D178
:1004F000704700BF032A30B415D941EA0004A407AD
:1005000084460B4604D0541E0FE0043A032A08D94F
:100510001946604653F8044B5CF8045BA542F4D0DE
:10052000F1E760461946541E7AB1431E013902199B
:1005300001E09A4209D013F8010F11F801CF60458C
:10054000F7D0A0EB0C0030BC7047002030BC7047E7
:1005500038B500F0C7FC00F07FFE02F033FE054620
:1005600002F066FE0446C0B90E4B9D4218D001331E
:100570009D4241F2883512BF044600250124002027
:1005800002F02AFE0CB100F073F800F003FE2846DA
:1005900000F01CF900F06CF8F9E700250124EEE703
:1005A0000546ECE7010007B008B500F069FCA0F1D2
:1005B00020035842584108BD07B5042101900DEBB6
:1005C000010000F079FC03B05DF804FB38B530237E
:1005D00083F31188174803680BB102F0B3F90023C5
:1005E000154A4FF47A71134802F0A2F9002383F3FD
:1005F0001188124C236813B12368013B23606368A0
:1006000013B16368013B63600D4D2B7833B96368A8
:100610007BB9022000F02EFD322363602B78032B80
:1006200007D163682BB9022000F024FD4FF47A73E0
:10063000636038BD78230020CD0500086C230020BE
:1006400074230020084B187003280CD8DFE800F052
:1006500008050208022000F003BD022000F0F6BCED
:10066000024B00225A607047742300206C23002044
:10067000F8B5504B504A1C461968013100F099807A
:1006800004339342F8D162684C4B9A4240F2918015
:100690004B4B9B6803F1006303F500339A4280F0F3
:1006A0008880002000F044FC0220FFF7CBFF454B80
:1006B0000021D3F8E820C3F8E810D3F81021C3F8DC
:1006C0001011D3F81021D3F8EC20C3F8EC10D3F8B4
:1006D0001421C3F81411D3F81421D3F8F020C3F86F
:1006E000F010D3F81821C3F81811D3F81821D3F853
:1006F000802042F00062C3F88020D3F8802022F0EE
:100700000062C3F88020D3F88020D3F8802042F024
:100710000072C3F88020D3F8802022F00072C3F862
:100720008020D3F8803072B64FF0E023C3F8084D34
:10073000D4E90004BFF34F8FBFF36F8F224AC2F892
:100740008410BFF34F8F536923F480335361BFF399
:100750004F8FD2F8803043F6E076C3F3C905C3F378
:100760004E335B0103EA060C29464CEA81770139D6
:10077000C2F87472F9D2203B13F1200FF2D1BFF30B
:100780004F8FBFF36F8FBFF34F8FBFF36F8F5369DF
:1007900023F4003353610023C2F85032BFF34F8F6C
:1007A000BFF36F8F302383F31188854680F3088869
:1007B0002047F8BD0000020820000208FFFF0108E2
:1007C000002200200044025800ED00E02DE9F04F27
:1007D00095B0DFF81C832022FF21019004A8D8F8EF
:1007E000086000F081FCB94A1378A3B90121B84828
:1007F00011700360302383F3118803680BB102F09A
:10080000A1F80023B34A4FF47A71B14802F090F88E
:10081000002383F31188019B13B1AF4B019A1A6037
:10082000AE4A1378032B03D000231370AA4A5360F7
:100830004FF0000A019DD3465446D146012000F0F6
:100840000FFC25B1A44B1B68002B00F02282002076
:1008500000F016FB071EF4DB012000F0F7FBA7F108
:1008600021031F2BEAD801A252F823F0ED0800085B
:1008700009090008930900083D0800083D08000820
:100880003D0800081F0A0008050C0008F50A0008CA
:10089000530B0008790B00089F0B00083D08000867
:1008A000B10B0008D50B00084D0C000873090008B7
:1008B0003D080008990C0008F908000873090008B1
:1008C0003D080008530B00083D0800083D080008DB
:1008D0003D0800083D0800083D0800083D080008E4
:1008E0003D0800083D080008930900080220FFF7B2
:1008F0005BFE002840F0E780019B02217848BAF1B6
:10090000000F08BF1D463EE04FF47A7000F0B8FAC1
:10091000071EF1DB0220FFF747FE0028ECD0013F65
:10092000052F00F2E381DFE807F003070A0D10311D
:100930000520FFF741FE14E0D8F80000F9E7D8F8E9
:100940000400F6E7D8F80800F3E74FF01C09484622
:1009500009F1040900F0EEFAFFF72EFEB9F12C0FB1
:10096000F5D101234FF00009BB404BEA03035FFAC6
:1009700083FB00F005FC24B10BF00B030B2B08BF2D
:1009800000250221574800F097FA57E7D8F80C00E5
:10099000CFE7002CB0D00BF00B030B2B61D1022062
:1009A000FFF702FE044600285BD001204FF0000A4A
:1009B00000F0BEFA0220FFF745FE1FFA8AF3184640
:1009C000029300F0C5FA029B054688B9434B012209
:1009D0002E4602201A7000F039FBD8F80830B342D6
:1009E00016D800263D4BA2461E703B4B5E60C0E70A
:1009F000A7F1400218460AF1010A5142514100F0A4
:100A0000B7FA05460028D8D1A24602213648BAE7EF
:100A1000304600F08FFA0130F6D10436DDE7002CC5
:100A20003FF46AAF0BF00B030B2B1AD10220FFF738
:100A300009FE322000F024FA071E12DB17F0030330
:100A40000FD1BA19D8F808108A420AD8B7F5807FB2
:100A500007D8264A9F4206DCC820FFF7A5FD0446BA
:100A600080B9012448E74FF47A70CDE9023200F0F2
:100A700007FA0028FFF640AF039A029B02F8010B29
:100A80000133E7E71F2E11D8C6F1200204AB26F090
:100A900003001649BA42184428BF3A46029200F0B1
:100AA00003FB029AFF21114800F01EFBBB10C7F3A5
:100AB00087020E493046029300F01EFB0028A4D0A6
:100AC000029B06EB8306044653E700BF6823002021
:100AD00078230020CD0500086C230020742300201B
:100AE000FC4A0008004B0008F84A00086822002071
:100AF000002200200220FFF757FD00283FF4FCAE43
:100B000000F054FA00283FF4F7AE00273B4612E00D
:100B10001F2F18D8049A013215D027F00302503243
:100B20006A4452F8400C0C90042218460CA900F0BC
:100B3000A5FB04370346D8F80820BA42E8D818467F
:100B4000FFF73AFD15E73846029300F0F3F9029BF0
:100B5000E9E7002364210CA80C9300F0A5F9002814
:100B60007FF4CAAE0220FFF71FFD00283FF4C4AE99
:100B70000C9800F011FAE3E7002364210CA80C9311
:100B800000F092F900287FF4B7AE0220FFF70CFDC9
:100B900000283FF4B1AE0C9800F000FAD0E7022034
:100BA000FFF702FD00283FF4A7AE00F00FFAC7E7F9
:100BB0000220FFF7F9FC00283FF49EAE0CA9142098
:100BC00000F00AFA0746FFF7F7FC39460CA800F0D8
:100BD00073F9CEE60220FFF7E7FC00283FF48CAE65
:100BE000444B0CAF03F1100C1868083353F8041C85
:100BF0003A46634503C21746F6D11020FFF7DCFCE6
:100C00001021E3E7322000F03BF9071EFFF674AE37
:100C1000BB077FF471AE07EB0903D8F808209342B5
:100C20003FF66AAE0220FFF7BFFC00283FF464AE37
:100C300027F003074F44B9453FF49BAE484609F1FE
:100C4000040900F077F9FFF7B7FCF4E74FF47A7086
:100C5000FFF7AAFC00283FF44FAE00F0A7F90028E8
:100C60003FF4D3AE049B01330CD0082204A900202A
:100C700000F042FA00283FF4C8AE2022FF2104A869
:100C800000F032FA1C48022100F016F91B4801F06E
:100C900093FD15B0BDE8F08F002C3FF42DAE0BF0A6
:100CA0000B030B2B7FF428AE002364210CA80C93BC
:100CB00000F0FAF8074600287FF41EAE0220FFF786
:100CC00073FC029000283FF417AE02210A4800F09E
:100CD000F3F841F2883001F06FFD0C9800F09AFAB9
:100CE0003D4600F04DFA029B1C46A7E54FF0000977
:100CF00002E600BF6C4A0008004B0008A086010015
:100D00002DE9F0474FF47A7706460D460024574305
:100D1000DFF84880DFF8489098F900305A1C01D07D
:100D2000A34211D159F824002A4631460368D3F86A
:100D300020A03B46D047854206D1074B01201C70BE
:100D4000BDE8F0870124E7E7002CFBD04FF4FA70F0
:100D500001F032FD0020F3E7C02300201022002024
:100D60001422002000232DE9F0471A460546884644
:100D70000120194600F080FC0446802002F0B2F900
:100D8000074668B364B33C4E28464FF0800A736947
:100D900043F0C0637361D6F8143143F0C063C6F802
:100DA000143102F01BF805EB080200FB05F34FF0CD
:100DB0003D0C00FB02FE4FF4D060734512D3204679
:100DC00000F09AFC384602F0C3F92B4B5A6942F006
:100DD000C0625A61D3F8142142F0C062C3F81421F2
:100DE000BDE8F08731694A012CD4D6F810114901C9
:100DF00028D4226803F1006191602168CF602168E6
:100E0000C1F804A021680860D4F80090D9F8001057
:100E100041F00101C9F80010D4F80090D9F8001091
:100E200021F01E01C9F80010D4F80090D9F8001084
:100E3000CA07FBD494F80C90803362680CFA09F16D
:100E40001160BAE70D4B9A6A42F400729A629A6A8C
:100E500042F400429A6261B60026012002F0A4F832
:100E6000B04503D8002002F09FF8A8E7A819013682
:100E700001F0CEFFF4E700BF0020005200ED00E0DB
:100E8000002307B5024601210DF107008DF8073058
:100E9000FFF736FF20B19DF8070003B05DF804FBB3
:100EA0004FF0FF30F9E700000A46042108B5FFF7CC
:100EB00027FF013808BD0000074B0A4630B41978F7
:100EC0000546064B53F8210029460368DC69044BAC
:100ED000A44630BC604700BFC0230020142200207D
:100EE000A086010070B5104C0026104D01F07AFF6D
:100EF000208028682388834208D901F06FFF2B687F
:100F000006440133B6F5003F2B60F2D3002520885C
:100F1000013801F063FF23880544013BB5F5802FBC
:100F20002380F4D370BD00BFB8230020BC23002071
:100F300002F03AB800F1006000F500300068704738
:100F400000F10060920000F5003001F0A9BF000040
:100F5000054B1A68054B1B889B1A834202D9104423
:100F600001F03CBF00207047BC230020B8230020C4
:100F700038B5084D0446286829B128682044BDE8E2
:100F8000384001F045BF204401F02EFF0028F4D086
:100F900038BD00BFBC2300200020704700F1FF5087
:100FA00000F58F10D0F8000870470000064991F84E
:100FB000243033B100230822086A81F82430FFF777
:100FC000BFBF0120704700BF90230020014B18686D
:100FD000704700BF0010005C194B1A4A70B51D68BD
:100FE000431E0420C5F30B040B442D0C013808D11B
:100FF0009942084610D30524134A013C15D1401AE2
:1010000070BD1688A6420ED152680846013A984231
:10101000F1D212F9014F1CB92C2200F8012BEAE79A
:1010200000F8014BF3E70832E0E71688AE4204D13E
:1010300098423CBF967800F8016B0432DDE700BFB0
:101040000010005C1C220020044B0008022803D181
:10105000024B4FF000529A61704700BF00080258DF
:10106000022803D1024B4FF400529A61704700BF2F
:1010700000080258022804D1024A536983F400533D
:10108000536170470008025870B504464FF47A76F1
:1010900004B970BD412C254628BF412506FB05F04B
:1010A000641B01F089FBF3E7002310B5934200D1E4
:1010B00010BDCC5CC4540133F8E70000013810B512
:1010C00010F9013F3BB191F900409C4203D11AB1A4
:1010D0000131013AF4E71AB191F90020981A10BDD4
:1010E0001046FCE7FFF7FEBF02440346934200D1DF
:1010F000704703F8011BF9E72DE9F8431F4D14462B
:101100000746884695F8242022B9DFF870906CB91C
:10111000012009E02B6A03EB82038342F5D0FFF73D
:1011200045FF0028F1D10020BDE8F88395F8243070
:101130002BB92022FF2148462F62FFF7D5FF95F8F3
:1011400024004146C0F1080205EB8000A24228BFFE
:101150002246D6B29200FFF7A7FF95F82430A41BD1
:1011600017441E449044E4B2F6B2082E85F8246079
:10117000CDD1FFF71BFF0028C9D1D4E79023002071
:10118000024B1A78024B1A70704700BFC023002030
:101190001022002038B51A4C1A4D204600F03CFEB3
:1011A0002946204600F064FE2D684FF47A70D5F889
:1011B0009020D2F8043843F00203C2F80438FFF755
:1011C00063FF1149284600F061FFD5F890200F4DCC
:1011D000D2F80438286823F002030D49A042C2F86F
:1011E00004384FF4E1330B6001D000F073FD686800
:1011F000A04204D00649BDE8384000F06BBD38BDC0
:10120000D02D0020944C00089C4C00081422002093
:10121000C4230020F8B50C4B05460C4E1F780C4B30
:1012200056F827209A420DD00A4C00211822204659
:10123000FFF75AFF214656F827002560BDE8F84021
:1012400000F048BDF8BD00BFC023002014220020DC
:10125000D02D0020C423002008B571B6054B198895
:10126000054B1888FFF77EFD02210E20FFF77AFD5F
:1012700061B608BDB8230020BC23002030B50A4465
:10128000084D914200D130BD11F8013B5840082370
:1012900040F30004013B2C4013F0FF0384EA5000AC
:1012A000F6D1EEE72083B8ED08B5074B074A196879
:1012B00001F03D01996053680BB190689847BDE813
:1012C000084001F0F7BF00BF00000240DC2300200F
:1012D00008B5084B1968890901F03D018A019A6037
:1012E000054AD3680BB110699847BDE8084001F082
:1012F000E1BF00BF00000240DC23002008B5084B1E
:101300001968090C01F03D010A049A60054A536905
:101310000BB190699847BDE8084001F0CBBF00BF12
:1013200000000240DC23002008B5084B1968890D35
:1013300001F03D018A059A60054AD3690BB1106A34
:101340009847BDE8084001F0B5BF00BF000002406B
:10135000DC23002008B5074B074A596801F03D011E
:10136000D960536A0BB1906A9847BDE8084001F014
:10137000A1BF00BF00000240DC23002008B5084BDD
:101380005968890901F03D018A01DA60054AD36A8A
:101390000BB1106B9847BDE8084001F08BBF00BF50
:1013A00000000240DC23002008B5084B5968090CF6
:1013B00001F03D010A04DA60054A536B0BB1906BF2
:1013C0009847BDE8084001F075BF00BF000002402B
:1013D000DC23002008B5084B5968890D01F03D0158
:1013E0008A05DA60054AD36B0BB1106C9847BDE8EB
:1013F000084001F05FBF00BF00000240DC23002076
:1014000008B5074B074A196801F03D019960536C14
:101410000BB1906C9847BDE8084001F04BBF00BF8E
:1014200000040240DC23002008B5084B1968890934
:1014300001F03D018A019A60054AD36C0BB1106D31
:101440009847BDE8084001F035BF00BF00040240E6
:10145000DC23002008B5084B1968090C01F03D0198
:101460000A049A60054A536D0BB1906D9847BDE828
:10147000084001F01FBF00BF00040240DC23002031
:1014800008B5084B1968890D01F03D018A059A607D
:10149000054AD36D0BB1106E9847BDE8084001F0C6
:1014A00009BF00BF00040240DC23002008B5074B41
:1014B000074A596801F03D01D960536E0BB1906E37
:1014C0009847BDE8084001F0F5BE00BF00040240A7
:1014D000DC23002008B5084B5968890901F03D015B
:1014E0008A01DA60054AD36E0BB1106F9847BDE8E8
:1014F000084001F0DFBE00BF00040240DC230020F2
:1015000008B5084B5968090C01F03D010A04DA607E
:10151000054A536F0BB1906F9847BDE8084001F042
:10152000C9BE00BF00040240DC23002008B5084B00
:101530005968890D01F03D018A05DA60054AD36FCB
:1015400013B1D2F880009847BDE8084001F0B2BE60
:1015500000040240DC23002000230C4A10B5194689
:101560000B4C42F8043B54F82300016042F813107E
:101570000433402BF7D1074A4FF0FF339360D36019
:10158000C2F80834C2F80C3410BD00BFDC230020C0
:10159000144B00080000024011282DE9F041884654
:1015A00011D004D8102810D10F24002003E01228F5
:1015B00007D10F2407202D4F4FF0010C3D68A042AA
:1015C00005D900204DE00724EFE70446F3E70CFAC5
:1015D00000F6354247D107EBC0043543C4E9012387
:1015E000F3B23D6073B1224BD3F8D84044F001040C
:1015F000C3F8D840D3F8004144F00104C3F80041D7
:10160000D3F8003116F47F4F0ED0194BD3F8D840E1
:1016100044F00204C3F8D840D3F8004144F0020477
:10162000C3F80041D3F800310501124C6359186822
:1016300020F01F001860186810F00100FBD1661937
:101640004FF03D0C96F80CE071680CFA0EF70F6045
:101650001860212058611AB14146B07B00F068F94A
:101660006019BDE8F0810130A9E700BFDC2300204C
:1016700000440258144B000810B5302484F311883C
:10168000FFF78AFF002383F3118810BD10B50446CD
:10169000807B00F063F91649637B01229A400B6856
:1016A00023EA0203DAB20B6072B9124AD2F8D810F8
:1016B00021F00101C2F8D810D2F8001121F0010187
:1016C000C2F80011D2F8002113F47F4F0ED1094B5C
:1016D000D3F8D82022F00202C3F8D820D3F8002192
:1016E00022F00202C3F80021D3F8003110BD00BF80
:1016F000DC2300200044025808B5302383F311880E
:10170000FFF7C4FF002383F3118808BD0268436814
:101710000A43026003B1184770470000024A136889
:1017200043F0C00313607047007C004013B50E4CBB
:10173000204600F0C3FA04F1140000234FF40072B5
:101740000A49009400F080F9094B4FF400720949EE
:1017500004F13800009400F0F9F9074A074BC4E996
:10176000172302B010BD00BF6028002060260020B3
:101770001D17000860240020007C004000E1F505F2
:10178000264B30B5002914BF0C461C46037C012BA8
:1017900011D1234B98420ED1224BD3F8E82042F0CE
:1017A0000042C3F8E820D3F8102142F00042C3F809
:1017B0001021D3F810312268036EC16D03EB520380
:1017C0008466B3FBF2F36268150442BF23F0070599
:1017D00003F0070343EA4503CB60A36843F04003EB
:1017E0004B60E36843F001038B6042F4967343F06F
:1017F00001030B604FF0FF330B6251050AD512F065
:10180000102209D0B2F1805F14BFFF233F2380F87C
:10181000643030BDFF23FAE77F23F8E7144C00085B
:1018200060280020004402582DE9F047C66D0446A8
:101830003768F5692A07356219D045F30001C5F309
:10184000C00301F0200141EA0321AB074FF0300350
:1018500048BF41F04001680748BF41F0800183F371
:101860001188201DFFF752FF002383F31188EA053A
:101870000AD5302383F311884FF48061201DFFF7D0
:1018800045FF002383F311884FF030094FF0000A21
:101890000BE089F31188736A204694F864101940AC
:1018A00000F026FA8AF31188F56915F02008F0D1C6
:1018B0003B0616D54FF0300A04F13809280610D53A
:1018C0008AF31188484600F075F9002829DA0821C2
:1018D000201DFFF71BFF27F080033360002383F3F5
:1018E0001188790614D56A0612D5302383F311883E
:1018F000D4E913239A4208D1236C33B127F040076F
:101900001021201DFFF702FF3760002383F31188A9
:10191000EB060BD5A26E136943B15069BDE8F047E1
:101920001847B06288F31188F569C7E7BDE8F0870A
:10193000090100F16043012203F56143C9B283F854
:10194000001300F01F039A4043099B0003F160431A
:1019500003F56143C3F880211A60704700F01F034C
:1019600001229A40430900F160409B0000F561406C
:1019700003F1604303F56143C3F88020C3F880217D
:10198000002380F800337047F8B515468268044696
:101990000B46AA4200D28568A1692669761AB5422B
:1019A0000BD22A461846FFF77FFBA2692A44A36898
:1019B0002846A2615B1BA360F8BD0CD9AF1B18467B
:1019C0003246FFF771FB3A46E1683044FFF76CFBA3
:1019D000E368DA19EBE72A461846FFF765FBE26889
:1019E000E5E70000836893422DE9F04104460E4686
:1019F000154600D28568D4E904703F1ABD420CD266
:101A00002A463146FFF750FB62692A44A3682846FC
:101A100062615B1BA360BDE8F0810ED9A5EB0708EE
:101A20003A463146FFF740FB4246F119E068FFF7BE
:101A30003BFBE36803EB0802E8E72A463146FFF781
:101A400033FBE268E2E7000010B5C1600024C36127
:101A5000029B84600362C0E905111144C0E90000E3
:101A6000016110BD08B5D0E90532934201D1826809
:101A700082B98268013282605A1C42611970002169
:101A8000D0E904329A4224BFC368436100F0B0FE3B
:101A9000002008BD4FF0FF30FBE7000070B5302399
:101AA00004460D4683F31188A668A6B1A368A2690F
:101AB000013BA360531CA36115782269934224BFA4
:101AC000E368A361E3690BB120469847002383F3E1
:101AD0001188284607E02946204600F079FE0028B4
:101AE000E2DA86F3118870BD2DE9F74F05460F46FF
:101AF00014469946D0F81CA04FF0300888F311889E
:101B00004FF0000B164666B1324639462846FFF7BD
:101B10003BFF034660B94946284600F059FE0028BD
:101B2000F2D0002383F31188A01B03B0BDE8F08F2F
:101B3000BAF1000F03D001902846D047019B8BF3E8
:101B40001188F61A1F4488F31188DCE7C160C3616D
:101B5000009B82600362C0E905111144C0E90000E6
:101B600001617047F8B504460D461646302383F3ED
:101B70001188A768A7B1A368013BA36063695A1CD9
:101B800062611D70D4E904329A4224BFE368636144
:101B9000E3690BB120469847002080F3118807E0E5
:101BA0003146204600F014FE0028E2DA87F311885F
:101BB000F8BD0000D0E9052310B59A4201D1826832
:101BC0007AB982680021013282605A1C82611C78D5
:101BD00003699A4224BFC368836100F009FE20466E
:101BE00010BD4FF0FF30FBE72DE9F74F05460F46DC
:101BF00014469946D0F81CA04FF0300888F311889D
:101C00004FF0000B164666B1324639462846FFF7BC
:101C1000E9FE034660B94946284600F0D9FD002890
:101C2000F2D0002383F31188A01B03B0BDE8F08F2E
:101C3000BAF1000F03D001902846D047019B8BF3E7
:101C40001188F61A1F4488F31188DCE7026843689C
:101C50000A43026003B11847704700001430FFF7D1
:101C600043BF00004FF0FF331430FFF73DBF0000CB
:101C70003830FFF7B9BF00004FF0FF333830FFF7BF
:101C8000B3BF00001430FFF709BF00004FF0FF3171
:101C90001430FFF703BF00003830FFF763BF0000C8
:101CA0004FF0FF323830FFF75DBF0000012914BF4D
:101CB0006FF0130000207047FFF738BD044B03603E
:101CC00000234360C0E9023301230374704700BF5F
:101CD0002C4C000810B53023044683F31188FFF71D
:101CE0004FFD02230020237480F3118810BD0000F3
:101CF00038B5C36904460D461BB904210844FFF7F3
:101D0000A5FF294604F11400FFF7ACFE002806DA0F
:101D1000201D4FF40061BDE83840FFF797BF38BD84
:101D2000026843680A43026003B118477047000025
:101D300013B5406B00F58054D4F8A4381A681178B4
:101D4000042914D1017C022911D1197901231289A6
:101D50008B4013420BD101A94C3002F089F9D4F821
:101D6000A4480246019B2179206800F0DFF902B007
:101D700010BD0000143002F011B900004FF0FF3325
:101D8000143002F00BB900004C3002F0DDB9000055
:101D90004FF0FF334C3002F0D7B90000143002F09E
:101DA000DFB800004FF0FF31143002F0D9B8000066
:101DB0004C3002F0A9B900004FF0FF324C3002F075
:101DC000A3B900000020704710B500F58054D4F886
:101DD000A4381A681178042917D1017C022914D17A
:101DE0005979012352898B4013420ED1143002F0ED
:101DF00071F8024648B1D4F8A4084FF44073417911
:101E00000068BDE8104000F07FB910BD406BFFF7DF
:101E1000DBBF0000704700007FB5124B0125042690
:101E2000044603600023057400F1840243602946E0
:101E3000C0E902330C4B0290143001934FF440730D
:101E4000009602F023F8094B04F69442294604F167
:101E50004C000294CDE900634FF4407302F0E4F8C3
:101E600004B070BD544C00080D1E0008311D000860
:101E70000A68302383F311880B790B3342F823006F
:101E80004B79133342F823008B7913B10B3342F8AB
:101E9000230000F58053C3F8A41802230374002024
:101EA00080F311887047000038B5037F044613B1F2
:101EB00090F85430ABB90125201D0221FFF730FF07
:101EC00004F114006FF00101257700F09DFC04F18E
:101ED0004C0084F854506FF00101BDE8384000F028
:101EE00093BC38BD10B5012104460430FFF718FF3C
:101EF0000023237784F8543010BD000038B5044621
:101F00000025143001F0DAFF04F14C00257702F0CF
:101F1000A3F8201D84F854500121FFF701FF20464B
:101F2000BDE83840FFF750BF90F88020034602F02C
:101F30006002202A14D190F881200020212A02D8A2
:101F40001F2A03D87047222A07D07047054A5A67CC
:101F500007229A67D86701207047C3E91D00F9E797
:101F6000002070473422002037B500F58055D5F8A1
:101F7000A4381A68117804291AD1017C022917D1D2
:101F80001979012312898B40134211D100F14C04BD
:101F9000204602F01FF958B101A9204602F068F866
:101FA000D5F8A4480246019B2179206800F0BEF8CC
:101FB00003B030BD01F10B03F7B550F823600446C0
:101FC0000D46F6B1302383F3118804EB8507301DED
:101FD00008214C36FFF7A4FEFB685B691B6813B150
:101FE000304602F053F801A9304602F041F80246AB
:101FF00048B1019B2946204600F098F8002383F35E
:10200000118803B0F0BDFB685A691268002AF5D048
:102010001B8A013B1340F1D104F18002EAE7000082
:10202000133138B550F82140ECB1302383F31188D7
:1020300004F58053D3F8A4281368527903EB820384
:10204000DB689B695D6845B104216018FFF768FE95
:10205000294604F1140001F047FF2046FFF7B4FEC3
:10206000002383F3118838BD7047000001F020BAC7
:1020700001234022002110B5044600F8303BFFF751
:1020800033F80023C4E9013310BD000010B530233C
:10209000044683F311882422416000210C30FFF7AD
:1020A00023F8204601F026FA02230020237080F353
:1020B000118810BD70B500EB8103054650690E46CE
:1020C0001446DA6018B110220021FFF70DF8A0695C
:1020D00018B110220021FFF707F831462846BDE865
:1020E000704001F00DBB000083682022002103F046
:1020F000011310B5044683601030FEF7F5FF20464B
:10210000BDE8104001F086BBF0B4012500EB81046E
:1021100047898D40E4683D43A469458123600023DD
:10212000A2606360F0BC01F0A3BB0000F0B4012525
:1021300000EB810407898D40E4683D4364690581B3
:1021400023600023A2606360F0BC01F019BC0000B2
:1021500070B5022300250446242203702946C0F8E6
:1021600088500C3040F8045CFEF7BEFF204684F82F
:10217000705001F059FA63681B6823B12946204664
:10218000BDE87040184770BD0378052B10B50446B4
:102190000AD080F88C300523037043681B680BB1AC
:1021A000042198470023A36010BD00000178052991
:1021B00006D190F88C20436802701B6803B1184761
:1021C0007047000070B590F87030044613B10023DA
:1021D00080F8703004F18002204601F03FFB636814
:1021E0009B68B3B994F8803013F0600535D00021B6
:1021F000204601F027FE0021204601F017FE63680B
:102200001B6813B1062120469847062384F87030D6
:1022100070BD204698470028E4D0B4F88630A26FFD
:102220009A4288BFA36794F98030A56F002B4FF0C6
:10223000300380F20381002D00F0F280092284F83F
:10224000702083F3118800212046D4E91D23FFF775
:102250006DFF002383F31188DAE794F8812003F0FF
:102260007F0343EA022340F20232934200F0C5802A
:1022700021D8B3F5807F48D00DD8012B3FD0022B59
:1022800000F09380002BB2D104F188026267022231
:10229000A267E367C1E7B3F5817F00F09B80B3F5E8
:1022A000407FA4D194F88230012BA0D1B4F88830BB
:1022B00043F0020332E0B3F5006F4DD017D8B3F509
:1022C000A06F31D0A3F5C063012B90D8636820467E
:1022D00094F882205E6894F88310B4F88430B04794
:1022E000002884D0436863670368A3671AE0B3F5E6
:1022F000106F36D040F6024293427FF478AF5C4BC9
:1023000063670223A3670023C3E794F88230012B9D
:102310007FF46DAFB4F8883023F00203A4F888305E
:10232000C4E91D55E56778E7B4F88030B3F5A06FD0
:102330000ED194F88230204684F88A3001F0D2F928
:1023400063681B6813B1012120469847032323705B
:102350000023C4E91D339CE704F18B036367012369
:10236000C3E72378042B10D1302383F31188204650
:10237000FFF7BAFE85F311880321636884F88B5058
:1023800021701B680BB12046984794F88230002BCF
:10239000DED084F88B300423237063681B68002B25
:1023A000D6D0022120469847D2E794F884302046C0
:1023B0001D0603F00F010AD501F042FA012804D0EE
:1023C00002287FF414AF2B4B9AE72B4B98E701F0D0
:1023D00029FAF3E794F88230002B7FF408AF94F8E1
:1023E000843013F00F01B3D01A06204602D501F055
:1023F00041FDADE701F032FDAAE794F88230002BF1
:102400007FF4F5AE94F8843013F00F01A0D01B06D2
:10241000204602D501F016FD9AE701F007FD97E787
:10242000142284F8702083F311882B462A4629460B
:102430002046FFF769FE85F31188E9E65DB11522B4
:1024400084F8702083F3118800212046D4E91D23ED
:10245000FFF75AFEFDE60B2284F8702083F3118803
:102460002B462A4629462046FFF760FEE3E700BFD9
:10247000844C0008804C00087C4C000838B590F86B
:1024800070300446002B3ED0063BDAB20F2A34D817
:102490000F2B32D8DFE803F03731310822323131E7
:1024A0003131313131313737856FB0F886309D4267
:1024B00014D2C3681B8AB5FBF3F203FB12556DB946
:1024C000302383F311882B462A462946FFF72EFE38
:1024D00085F311880A2384F870300EE0142384F801
:1024E0007030302383F31188002320461A461946A2
:1024F000FFF70AFE002383F3118838BDC36F03B1D1
:1025000098470023E7E70021204601F09BFC0021CB
:10251000204601F08BFC63681B6813B1062120463E
:1025200098470623D7E7000010B590F870300446AE
:10253000142B29D017D8062B05D001D81BB110BDFC
:10254000093B022BFBD80021204601F07BFC002137
:10255000204601F06BFC63681B6813B1062120461E
:102560009847062319E0152BE9D10B2380F870302A
:10257000302383F3118800231A461946FFF7D6FD4E
:10258000002383F31188DAE7C3689B695B68002B3B
:10259000D5D1C36F03B19847002384F87030CEE7DC
:1025A00000238268037503691B6899689142FBD216
:1025B0005A68036042601060586070470023826868
:1025C000037503691B6899689142FBD85A680360D8
:1025D000426010605860704708B50846302383F3A6
:1025E00011880A7D0023052A06D8DFE802F00B05D2
:1025F0000503120E826913604FF0FF338361FFF70A
:10260000CFFF002383F3118808BD826993680133EB
:102610009360D0E9003213605A60EDE7FFF7C0BF66
:10262000054BD96808751868026853601A60012262
:10263000D8600275FDF7E6BEE02A00200C4B30B5ED
:10264000DD684B1C87B004460FD02B46094A68460C
:1026500000F06EF92046FFF7E3FF009B13B16846D8
:1026600000F070F9A86907B030BDFFF7D9FFF9E7AE
:10267000E02A0020D925000838B50C4D04468161B8
:10268000EB6881689A68914203D8BDE83840FFF74B
:1026900087BF1846FFF792FF01230146EC602046F2
:1026A0002375BDE83840FDF7ADBE00BFE02A00202D
:1026B000044B1A68DB6890689B68984294BF0020BE
:1026C00001207047E02A0020084B10B51C68D8682C
:1026D000226853601A600122DC602275FFF76EFFEA
:1026E00001462046BDE81040FDF78CBEE02A0020E0
:1026F00038B50123084C00252370656001F0A6FD64
:1027000001F0CCFD0549064801F0A2FE022323702A
:1027100085F3118838BD00BF382B0020884C000895
:10272000E02A002000F044B9034A516853685B1A5C
:102730009842FBD8704700BF001000E08B60022376
:10274000086108468B8270478368A3F1840243F8CE
:10275000142C026943F8442C426943F8402C094A7E
:1027600043F8242CC268A3F1200043F8182C02225D
:1027700003F80C2C002203F80B2C034A43F8102C0E
:10278000704700BF1D040008E02A002008B5FFF7CD
:10279000DBFFBDE80840FFF741BF0000024BDB68EC
:1027A00098610F20FFF73CBFE02A0020302383F31D
:1027B0001188FFF7F3BF000008B50146302383F30B
:1027C00011880820FFF73AFF002383F3118808BD22
:1027D000064BDB6839B1426818605A601360436089
:1027E0000420FFF72BBF4FF0FF307047E02A002096
:1027F00003460068834205D002681A605360816115
:10280000FFF70CBF7047000038B504460D4620683E
:10281000844200D138BD036823605C608561FFF7A6
:10282000FDFEF4E7036810B59C68A2420CD85C6812
:102830000B608A604C60216059609968891A9960C0
:102840004FF0FF33836010BD121B1B68ECE70000E4
:102850000A2938BF0A2170B504460D460A266019B8
:1028600001F0EEFC01F0D6FC041BA54203D8751C58
:1028700004462E46F3E70A2E04D90120BDE8704035
:1028800001F026BE70BD0000F8B5144B14460A27AF
:102890000D46D9610A2C826003F1100238BF0A2468
:1028A00042601A69026050601861081901F0B8FCB2
:1028B00001F0B0FC431B0646A34206D37C1C28193A
:1028C0002746354601F0BCFCF2E70A2F04D9012067
:1028D000BDE8F84001F0FCBDF8BD00BFE02A0020D3
:1028E00070B50D46064601F095FC0F490B4653F8AE
:1028F000102F9A4206D12A4601463046BDE8704064
:10290000FFF7C2BFCB69C41A93682C1928BF2C46A5
:10291000A34202D92946FFF79BFF224631460348CE
:10292000BDE87040FFF77EBFE02A0020F02A0020BB
:10293000C0E90323002310B45DF8044B4361FFF7A3
:10294000CFBF000010B5194C236998420DD08168A3
:10295000D0E9003213605A609A680A449A600023F2
:1029600003604FF0FF33A36110BD0268234643F8B4
:10297000102F53600022026022699A4203D1BDE801
:10298000104001F057BC936881680B44936001F0DC
:1029900041FC2269E1699268441AA242E4D91144D7
:1029A000BDE81040091AFFF753BF00BFE02A00201E
:1029B0002DE9F047DFF8B88008F110072B4ED8F862
:1029C000105001F027FCD8F81C40AA68011B8A426D
:1029D0003DD81444D5E90032C8F81C4013605A6051
:1029E00000232B609946D8F81020B24201D101F0A3
:1029F00021FC89F31188D5E9033128469847302313
:102A000083F311886B69002BD9D001F003FC6A694C
:102A1000A0EB040982464A450DD2022001F058FD80
:102A20000022D8F81030B34208D151462846BDE8FC
:102A3000F047FFF729BF2244121AF2E712EB090907
:102A40002946384638BF4A46FFF7ECFEB6E7D8F8C5
:102A50001010B14208D01444C8F81C00211AA96013
:102A6000BDE8F047FFF7F4BEBDE8F087F02A00208C
:102A7000E02A002000207047FEE7000070470000B9
:102A80004FF0FF307047000002290CD0032904D01A
:102A90000129074818BF00207047032A05D80548B8
:102AA00000EBC2007047044870470020704700BF29
:102AB000444D00083C220020F84C000870B59AB044
:102AC00005460846144601A900F0BEF801A8FEF725
:102AD00009FB431C0022C6B25B001046C5E9003466
:102AE00023700323023404F8013C01ABD1B2023459
:102AF0008E4201D81AB070BD13F8011B013204F8E0
:102B0000010C04F8021CF1E708B5302383F31188A7
:102B10000348FFF729FA002383F3118808BD00BF9B
:102B2000D02D002090F8803003F01F02012A07D139
:102B300090F881200B2A03D10023C0E91D3315E052
:102B400003F06003202B08D1B0F884302BB990F843
:102B50008120212A03D81F2A04D8FFF7E5B9222AA9
:102B6000EBD0FAE7034A426707228267C367012076
:102B7000704700BF5C22002010B50446052916D816
:102B8000DFE801F016150316161D302383F31188B4
:102B90000E4A0121FFF78EFA20460D4A0221FFF767
:102BA00089FA0C48FFF7AAF9002383F3118810BDB6
:102BB000302383F311880748FFF776F9F4E73023D1
:102BC00083F311880348FFF78DF9EDE7D04C000837
:102BD000AC4C0008D02D002038B50B4D0B4C2A46CC
:102BE0000B492046FFF76AFF05F1CA0204F108000D
:102BF0000849FFF763FF05F5CA7204F110000649A2
:102C0000BDE83840FFF75ABF702B00204422002057
:102C1000AB4A0008B54A0008C04A000870B504462F
:102C200008460D46FEF75EFAC6B220460134037828
:102C30000BB9184670BD32462946FEF73FFA002808
:102C4000F3D10120F6E700002DE9F04105460C46DE
:102C5000FEF748FA2B49C6B22846FFF7DFFF08B156
:102C60000436F6B228492846FFF7D8FF08B11036D7
:102C7000F6B2632E07D8234FDFF88C802E7846B942
:102C80002670BDE8F08129462046BDE8F041FDF7F9
:102C9000D3BB252E31D1072239462846FEF70EFA3E
:102CA00078B91A4B07350B341A6844F80B2C5A685C
:102CB00044F8072C1A899B7A24F8032C04F8013C69
:102CC000DCE7082241462846FEF7F8F9A8B9A21C1D
:102CD0000F4B1048104E197802320909415C02F876
:102CE000041C13F8011B01F00F01B342415C02F810
:102CF000031CF0D118340835C0E7013504F8016B26
:102D0000BCE700BFC94A0008C04A0008D14A000811
:102D100000E8F11FDD4A00080CE8F11FBFF34F8FF8
:102D2000044B1A695107FCD1D3F810215207F8D18E
:102D3000704700BF0020005208B50D4B1B78ABB99F
:102D4000FFF7ECFF0B4BDA68D10704D50A4A5A604B
:102D500002F188325A60D3F80C21D20706D5064A10
:102D6000C3F8042102F18832C3F8042108BD00BF72
:102D700078460020002000522301674508B5114B1A
:102D80001B78F3B9104B1A69510703D5DA6842F082
:102D90004002DA60D3F81021520705D5D3F80C2190
:102DA00042F04002C3F80C21FFF7B8FF064BDA6887
:102DB00042F00102DA60D3F80C2142F00102C3F8BC
:102DC0000C2108BD78460020002000520F289ABF31
:102DD00000F5806040040020704700004FF4003090
:102DE00070470000102070470F2808B50ED8FFF775
:102DF000EDFF0368013309D100F50033043083424D
:102E000001D1012008BD02680132F7D00020F9E7A6
:102E10000F2838B505463FD8FFF780FF1F4CFFF756
:102E20008BFF4FF0FF3307286361C4F814311DD8BE
:102E30002361FFF773FF030243F02403E360E368B9
:102E400043F08003E36023695A07FCD42846FFF768
:102E500065FFFFF7BBFF4FF4003100F0CBF92846C8
:102E6000FFF78CFFBDE83840FFF7BEBFC4F8103154
:102E7000FFF754FFA0F108031B0243F02403C4F83A
:102E80000C31D4F80C3143F08003C4F80C31D4F881
:102E900010315B07FBD4D9E7002038BD0020005279
:102EA0002DE9F84F04460D46104644EA0203DB06BE
:102EB00002D00020BDE8F88F20F01F00DFF8E0A06E
:102EC000DFF8E0B0FFF738FF05EB0008454503D118
:102ED0000120FFF753FFEDE7202229462046FDF7AA
:102EE00009FB10B920342035F0E723680133E0D125
:102EF000234604F120020433934244D104F1784381
:102F0000234E2448B3F5801F234B28BF9946A3F5D1
:102F100082732EBF5846D1461E46FFF7FFFE4FF084
:102F2000FF33A4EB050C05F11C010360336843F08B
:102F3000020333602B1FD9F8007017F00507FAD190
:102F400053F8042F8B424CF80320F4D1BFF34F8F7A
:102F5000FFF7E4FE4FF0FF330360336823F0020312
:102F60003360BFF34F8F0D4BC3F85C42BFF34F8FFD
:102F7000BFF36F8F202229462046FDF7BBFA0028B9
:102F8000B0D03846A5E719680131B4D091E700BF49
:102F90000C210052142000521021005200ED00E0DC
:102FA000102000521421005210B5084C237828B18B
:102FB0001BB9FFF7C1FE0123237010BD002BFCD00D
:102FC0002070BDE81040FFF7D9BE00BF7846002052
:102FD0002DE9F74F0D468246002878D011F00D07F5
:102FE0000CBF0826202611F0080300933BD0431E97
:102FF00003426CD106460AF11F0121F01F0A4FF06F
:103000000109DFF8DC8005F0040305EA090BBBF1D8
:10301000000F38D0D8F81420D20734D409F10109B0
:1030200008F10C08B9F1060FF1D187B9294D3246E4
:103030005146E81901F054F9044600BB1837782FBF
:10304000F5D13246514601F04BF90446B8B9324643
:103050005146214801F044F90446002832D1204667
:1030600003B0BDE8F08F002FC5D10029C7D10146BC
:103070003246284601F034F904460028BFD05246B3
:103080000021204620E01BB1D8F814205407C5D5F4
:10309000A80703D5D8F814209107BFD5009A1AB114
:1030A000D8F814201207B9D5019318200B4B3246DB
:1030B000514600FB093001F013F9019B044600283A
:1030C000ACD0DCE752460021FEF70EF8C7E700243B
:1030D000C5E700BFAC4600207C4600209446002097
:1030E000604D00080121FFF773BF0000F8B5002311
:1030F0001A461A600433B3F5806FFAD1114D0124DA
:103100001827114E07FB046001342A6955F80C1F7B
:1031100001F0D2F8062CF5D137254FF4C0542046E3
:10312000FFF7E0FF014628B122460848BDE8F84015
:1031300001F0C2B8C4EBC404013D4FEAD404EED19F
:10314000F8BD00BF604D0008944600207C4600207A
:1031500008B101F039B970470244074BD2B210B53B
:10316000904200D110BD441C00B253F8200041F839
:10317000040BE0B2F4E700BF504000580E4B30B5EE
:103180001C6F240405D41C6F1C671C6F44F400449E
:103190001C670A4C02442368D2B243F48073236054
:1031A000074B904200D130BD441C51F8045B00B283
:1031B00043F82050E0B2F4E70044025800480258B7
:1031C0005040005807B5012201A90020FFF7C4FFB5
:1031D000019803B05DF804FB13B50446FFF7F2FF56
:1031E000A04205D0012201A900200194FFF7C6FFEB
:1031F00002B010BD0144BFF34F8F064B884204D389
:10320000BFF34F8FBFF36F8F7047C3F85C0220305E
:10321000F4E700BF00ED00E0034B1A681AB9034A57
:10322000D2F8D0241A60704724470020004002588A
:1032300008B5FFF7F1FF024B1868C0F3806008BDC6
:1032400024470020EFF30983054968334A6B22F0D5
:1032500001024A6383F30988002383F311887047CE
:1032600000EF00E0302080F3118862B60D4B0E4A6B
:10327000D96821F4E0610904090C0A430B49DA60BA
:10328000D3F8FC2042F08072C3F8FC20084AC2F850
:10329000B01F116841F0010111602022DA7783F834
:1032A0002200704700ED00E00003FA0555CEACC5E2
:1032B000001000E0302310B583F311880E4B5B68DB
:1032C00013F4006314D0F1EE103AEFF309844FF0D9
:1032D0008073683CE361094BDB6B236684F30988E8
:1032E000FFF7E6F910B1064BA36110BD054BFBE7F4
:1032F00083F31188F9E700BF00ED00E000EF00E084
:103300002F0400083204000870B5BFF34F8FBFF3DD
:103310006F8F1A4A0021C2F85012BFF34F8FBFF3CC
:103320006F8F536943F400335361BFF34F8FBFF383
:103330006F8FC2F88410BFF34F8FD2F8803043F6FE
:10334000E074C3F3C900C3F34E335B0103EA040620
:10335000014646EA81750139C2F86052F9D2203B34
:1033600013F1200FF2D1BFF34F8F536943F4803331
:103370005361BFF34F8FBFF36F8F70BD00ED00E05F
:10338000FEE70000214B2248224A70B5904237D315
:10339000214BC11EDA1C121A22F003028B4238BFE5
:1033A00000220021FDF7A0FE1C4A0023C2F8843051
:1033B000BFF34F8FD2F8803043F6E074C3F3C900F7
:1033C000C3F34E335B0103EA0406014646EA817506
:1033D0000139C2F86C52F9D2203B13F1200FF2D11F
:1033E000BFF34F8FBFF36F8FBFF34F8FBFF36F8F5D
:1033F0000023C2F85032BFF34F8FBFF36F8F70BD01
:1034000053F8041B40F8041BC0E700BF7C4F0008C2
:1034100098480020984800209848002000ED00E0DF
:10342000074BD3F8D82022EA0002C3F8D820D3F8FB
:10343000002122EA0002C3F80021D3F800317047CE
:103440000044025870B5D0E9244300224FF0FF3504
:103450009E6804EB42135101D3F80009002805DAF5
:10346000D3F8000940F08040C3F80009D3F8000BFE
:10347000002805DAD3F8000B40F08040C3F8000BB9
:1034800001326318B242C3F80859C3F8085BE0D9A7
:103490004FF00113C4F81C3870BD0000890141F0E1
:1034A0002001016103699B06FCD41220FFF73CB99F
:1034B00010B50A4C2046FEF7DBFD094BC4F89030EE
:1034C000084BC4F89430084C2046FEF7D1FD074B5A
:1034D000C4F89030064BC4F8943010BDDC4700208F
:1034E00000000840B44D00084047002000000440A0
:1034F000A84D000870B503780546012B5CD1434BFD
:10350000D0F89040984258D1414B0E216520D3F815
:10351000D82042F00062C3F8D820D3F8002142F04E
:103520000062C3F80021D3F80021D3F8802042F0D4
:103530000062C3F88020D3F8802022F00062C3F834
:103540008020D3F88030FEF7F3F9324BE360324B42
:10355000C4F800380023D5F89060C4F8003EC023BA
:1035600023604FF40413A3633369002BFCDA0123B7
:103570000C203361FFF7D8F83369DB07FCD4122045
:10358000FFF7D2F83369002BFCDA00262846A66044
:10359000FFF758FF6B68C4F81068DB68C4F814685C
:1035A000C4F81C6883BB1D4BA3614FF0FF336361FC
:1035B000A36843F00103A36070BD194B9842C9D1C1
:1035C000134B4FF080600E21D3F8D82042F00072E8
:1035D000C3F8D820D3F8002142F00072C3F80021CC
:1035E000D3F80021D3F8802042F00072C3F8802085
:1035F000D3F8802022F00072C3F88020D3F8803006
:10360000FFF70EFF4D209EE7064BCDE7DC4700207D
:10361000004402584014004003002002003C30C027
:1036200040470020083C30C0F8B5D0F8904005462F
:1036300000214FF000662046FFF730FFD5F89410C8
:1036400000234FF001128F684FF0FF30C4F8343878
:10365000C4F81C2804EB431201339F42C2F80069EE
:10366000C2F8006BC2F80809C2F8080BF2D20B6866
:10367000D5F89020C5F8983063621023136116695D
:1036800016F01006FBD11220FFF74EF8D4F80038E0
:1036900023F4FE63C4F80038A36943F4402343F0E5
:1036A0001003A3610923C4F81038C4F814380B4B75
:1036B000EB604FF0C043C4F8103B094BC4F8003B2B
:1036C000C4F81069C4F80039D5F8983003F1100235
:1036D00043F48013C5F89820A362F8BDC04D0008DC
:1036E00040800010D0F8902090F88A10D2F800386E
:1036F00023F4FE6343EA0113C2F800387047000068
:103700002DE9F84300EB81030C460FFA81F9D0F85C
:103710009050D9680022804660010E6806F00306CA
:10372000731E022B05EB441398BFB604C3F8102B8D
:1037300004F110024FF0010394BF06F18056334E9E
:1037400003FA02F38A6998BF06F50046002A39D0C9
:103750004F8A04F1580237435201AF50D5F81C2864
:1037600013430022C5F81C382B180127C3F8102971
:10377000A7404A69631E92B30A8A4033898B920834
:10378000012905EB830388BF4A43D8F898105018E5
:1037900041EA0241C8F89800284659602146FFF7DF
:1037A0007DFE08EB8900C3681B8A43EA84534834D2
:1037B000334364012B51D5F81C383B43C5F81C3802
:1037C000BDE8F88305EB4917D7F8002B22F4004237
:1037D000C7F8002BD5F81C2822EA0303C1E704F13F
:1037E0003F030B4A2146284605EB83035A60FFF747
:1037F00055FE05EB4913D3F8002922F40042C3F823
:103800000029D5F81C3823EA0703D7E70080001009
:1038100000040002D0F894201268C0F89820FFF746
:1038200011BE00005831D0F8903049015B5813F4B4
:10383000004004D013F4001F14BF01200220704781
:103840004831D0F8903049015B5813F4004004D05F
:1038500013F4001F14BF01200220704700EB810009
:10386000C368196A0B6813604B68536070470000A7
:1038700000EB810330B5DD68AA691368D36019B91C
:10388000402B84BF402313606B8A1468D0F89020CB
:103890001C4402EB4110013C09B2B4FBF3F4634356
:1038A000033323F0030343EAC44343F0C043C0F8A7
:1038B000103B2B6803F00303012B0ED1D2F808381C
:1038C00002EB411013F4807FD0F8003B14BF43F0AB
:1038D000805343F00053C0F8003B02EB4112D2F892
:1038E000003B43F00443C2F8003B30BD2DE9F041FA
:1038F000D0F8906005460C4606EB4113D3F8087BE0
:103900003A07C3F8087B08D5D6F814381B0704D546
:1039100000EB8103DB685B689847FA071FD5D6F890
:103920001438DB071BD505EB8403D9688B69C4B950
:10393000488A5A68B2FBF0F600FB16228AB918686A
:10394000DA6890420DD2121AC3E90024302383F3BF
:10395000118821462846FFF78BFF84F31188BDE8C4
:10396000F08101226B89A24023EA02036B81CB68BC
:10397000002BF4D021462846BDE8F041184700004E
:1039800000EB81034A0170B5DD68D0F890306C69B6
:103990002668E6604EBB1A444FF40020C2F81009B6
:1039A0002A6802F00302012A0AB20ED1D3F80808ED
:1039B00003EB421410F4807FD4F8000914BF40F0E8
:1039C000805040F00050C4F8000903EB4212D2F8D6
:1039D000000940F00440C2F800090122D3F834087D
:1039E0008A400243C3F8342870BD19B9402E84BF01
:1039F0004020206020681A442E8A8419013CB4FBC0
:103A0000F6F440EAC44040F00050C7E72DE9F8431F
:103A1000D0F8906005460C464F0106EB4113D3F8F1
:103A2000088918F0010FC3F808891CD0D6F810389F
:103A3000DB0718D500EB8103D3F80CC0DCF8143099
:103A4000D3F800E0DA68964530D2A2EB0E024FF0D0
:103A500000091A60C3F80490302383F31188FFF73C
:103A60008FFF89F3118818F0800F1DD0D6F83438F5
:103A70000126A640334217D005EB84030134D5F864
:103A80009050D3F80CC0E4B22F44DCF8142005EBBE
:103A90000434D2F800E05168714513D3D5F83438B6
:103AA00023EA0603C5F83438BDE8F8830122038908
:103AB0008A4023EA02030381DCF80830002BD2D0CD
:103AC0009847D0E7AEEB0103BCF81000834228BF53
:103AD0000346D7F8180980B2B3EB800FE4D890689A
:103AE000A0F1040959F8048FC4F80080A0EB09087C
:103AF0009844B8F1040FF5D8184419449060516007
:103B0000C9E700002DE9F047D0F8905004466E69EF
:103B1000AB691E4016F480586E6103D0BDE8F047D3
:103B2000FEF716BB002E12DAD5F8003E9B0705D033
:103B3000D5F8003E23F00303C5F8003ED5F804385D
:103B4000204623F00103C5F80438FEF72FFB3705A4
:103B500005D52046FFF776FC2046FEF715FBB0049E
:103B60000CD5D5F8083813F0060FEB6823F4705322
:103B70000CBF43F4105343F4A053EB6031071BD543
:103B80006368DB681BB9AB6923F00803AB6123787A
:103B9000052B0CD1D5F8003E9A0705D0D5F8003E8C
:103BA00023F00303C5F8003E2046FEF7FFFA6368E2
:103BB000DB680BB120469847F30234D50021D4F8D6
:103BC00090900F4609EB4713D3F8002902F44022E6
:103BD000B2F5802F1FD1D3F80029002A1BDAD3F8C1
:103BE000002942F09042C3F80029D3F80029002AA6
:103BF000FBDBD4F89000FFF751FC01222389BA4087
:103C000023EA0203238104EB8703DB689B6813B17B
:103C10003946204698470137D4F89430FFB29B6864
:103C20009F423946CED9B70226D5D4F890900027C6
:103C30004FF0010A09EB4712D2F8003B03F440238E
:103C4000B3F5802F11D1D2F8003B002B0DDA638938
:103C50000AFA07F223EA0203638104EB8703DB68B5
:103C6000DB6813B13946204698470137D4F89430C1
:103C7000FFB29B689F42DDD9F00618D5D4F89000BA
:103C8000026AC2F30A1702F00F0302F4F012B2F54F
:103C9000802F00F08D80B2F5402F08D104EB830314
:103CA000002200F58050DB681B6A974273D1300315
:103CB000D5F8185835D5E90303D500212046FFF77C
:103CC00015FEAA0303D501212046FFF70FFE6B0363
:103CD00003D502212046FFF709FE2F0303D5032158
:103CE0002046FFF703FEE80203D504212046FFF734
:103CF000FDFDA90203D505212046FFF7F7FD6A0265
:103D000003D506212046FFF7F1FD2B0203D507213D
:103D10002046FFF7EBFDEF0103D508212046FFF712
:103D2000E5FD70036BD5E90703D500212046FFF7B9
:103D30006DFEAA0703D501212046FFF767FE6B073A
:103D400003D502212046FFF761FE2F0703D503218B
:103D50002046FFF75BFEEE0603D504212046FFF761
:103D600055FEA80603D505212046FFF74FFE69063C
:103D700003D506212046FFF749FE2A0603D5072171
:103D80002046FFF743FEEB0539D520460821BDE864
:103D9000F047FFF73BBE910701D1D0F80080072A1A
:103DA00002F101029CBF03F8018B4FEA18287CE75F
:103DB00004EB830300F58050DA68D2F818C0DCF811
:103DC0000820DCE9001CA1EB0C0C00218F4208D17B
:103DD000DB689B699A683A449A605A683A445A6028
:103DE00065E711F0030F01D1D0F800808C4501F197
:103DF000010184BF02F8018B4FEA1828E6E7BDE80D
:103E0000F087000008B50348FFF77CFEBDE80840D6
:103E1000FFF750BADC47002008B50348FFF772FEF1
:103E2000BDE80840FFF746BA40470020D0F8903080
:103E300003EB4111D1F8003B43F40013C1F8003B00
:103E400070470000D0F8903003EB4111D1F80039F1
:103E500043F40013C1F8003970470000D0F89030E7
:103E600003EB4111D1F8003B23F40013C1F8003BF0
:103E700070470000D0F8903003EB4111D1F80039C1
:103E800023F40013C1F800397047000030B5043343
:103E9000039C0172002104FB0325C160C0E90653A5
:103EA000049B0363059BC0E90000C0E90422C0E94C
:103EB0000842C0E90A11436330BD00000022416A94
:103EC000C260C0E90411C0E90A226FF00101FEF7E7
:103ED0009BBC0000D0E90432934201D1C2680AB908
:103EE000181D704700207047036919600021C268DF
:103EF0000132C260C269134482699342036124BFE4
:103F0000436A0361FEF774BC38B504460D46E368A6
:103F10003BB162690020131D1268A3621344E3627F
:103F200007E0237A33B929462046FEF751FC0028E2
:103F3000EDDA38BD6FF00100FBE70000C368C2692D
:103F4000013BC3604369134482699342436124BFC8
:103F5000436A436100238362036B03B118477047D0
:103F600070B53023044683F31188866A3EB9FFF7A3
:103F7000CBFF054618B186F31188284670BDA36AA9
:103F8000E26A13F8015B9342A36202D32046FFF773
:103F9000D5FF002383F31188EFE700002DE9F84FE8
:103FA00004460F4691469A464FF0300888F3118830
:103FB0000026B346A56A4DB951462046FFF7A4FF37
:103FC00020B185F311883046BDE8F88FD4E90A1591
:103FD000A9EB06036D1A9D4228BF1D46402D1AD934
:103FE0003B4601F1400251F8040B914243F8040BA7
:103FF000F9D1A36A403740364033E26AA3629A425D
:1040000002D82046FFF79AFF8BF311884E45DAD28B
:1040100088F31188CEE738462A46FDF745F8A36AAB
:104020002F442E442B44E8E710B5029C0433017260
:1040300003FB0421C460C0E906130023C0E90A336E
:10404000039B0363049BC0E90000C0E90422C0E9AC
:104050000842436310BD0000026A6FF00101C260B4
:10406000426AC0E904220022C0E90A22FEF7CCBB62
:104070000346D0E90420824201D1DB681BB950F825
:10408000043B0B60704700231846FAE7C368002121
:10409000C2690133C3604369134482699342436137
:1040A00024BF436A4361FEF7A3BB000038B5044652
:1040B0000D46E3683BB1236900201A1DA262E26944
:1040C0001344E36207E0237A33B929462046FEF71A
:1040D0007FFB0028EDDA38BD6FF00100FBE7000040
:1040E00003691960C268013AC260C26913448269F7
:1040F0009342036124BF436A036100238362036B1D
:1041000003B118477047000070B530230D460446D0
:10411000114683F31188866A2EB9FFF7C7FF10B1E5
:1041200086F3118870BDA36A1D70A36AE26A013329
:104130009342A36204D3E16920460439FFF7D0FF1C
:10414000002080F31188EDE72DE9F84F05460C4675
:1041500091469A464FF0300888F311880027BB46F5
:10416000AE6A4EB951462846FFF7A0FF20B186F34C
:1041700011883846BDE8F88FD5E90A06A9EB070390
:10418000361A9E4228BF1E46402E1AD904F140031B
:1041900054F8042B9C4240F8042BF9D1AB6A403709
:1041A0004033EA6AAB629A4204D8E9692846043986
:1041B000FFF796FF8BF311884F45DAD288F3118809
:1041C000CEE721463246FCF76FFFAB6A34443744F2
:1041D0003344E6E7D0E9042103468A4216D1C06899
:1041E000A8B1986A98B10438801A10D010600120E4
:1041F000D9680139D960D9690A4499698A421A6132
:1042000024BF5A6A1A6100229A62704700207047E0
:1042100000F060BA014B586A704700BF000C0040C4
:10422000034B002258631A610222DA60704700BF14
:10423000000C0040014B0022DA607047000C004087
:10424000014B5863704700BF000C0040024B034A0B
:104250001A60034A5A607047784800209848002046
:1042600000000220074B494210B55C68201A084044
:104270001968821A8A4203D3A24201D85A6010BD3B
:104280000020FCE77848002008B5302383F311882C
:10429000FFF7E8FF002383F3118808BD04480121DC
:1042A000044B03600023C0E901330C3000F018B95F
:1042B0008048002089420008CB1D083A23F00703FC
:1042C000591A521A012110B4D2080024C0E900433F
:1042D00084600C301C605A605DF8044B00F000B93B
:1042E0002DE9F84F374BCD1D0F46002814BF8046EF
:1042F0009846082A4FEAD50538BF082208F10C0A6B
:104300009146504600F008F908F1040209F107014E
:10431000C9F1000C146874B9504600F007F9D8F8D8
:104320000030CBB308224946E8009847044698B3CA
:1043300040E9028730E06618D4F804E006EA0C068B
:104340000EF10103A6F1080004EBC303834237D941
:104350009E1BB5EBE60F4FEAE60B31D884421ED226
:1043600004F10803AB45A0EB03034FEAE3036360EA
:104370000BD9691CABEB050B00EBC1020BF1FF3352
:104380005360236840F8313022600446476050464D
:1043900044F8088B00F0CAF82046BDE8F88FAE4517
:1043A00021680AD0013504EBC50044F8351000F14E
:1043B00008015B1A0146DB10436020461160E4E708
:1043C0002246A7E780480020F8B550F8043C044690
:1043D00050F8085CA0F1080607332F1D0C35DB08E8
:1043E00040F8043C284600F097F83B469F421A6884
:1043F00001D0B34228D20AB1964225D244F8082C03
:1044000054F8042C1E60013254F8081C06EBC2005C
:10441000814206D1486810440A6844F8040C44F804
:10442000082C59684A1C03EBC202964207D154F883
:10443000042C01320A445A6054F8082C1A602846A9
:10444000BDE8F84000F072B81346CFE7FEE7000081
:1044500070B5002504461A4B86B085620E4601638E
:104460005860FEF7FFFE04F11003A560E562C4E9A1
:1044700004334FF0FF33C4E90044C4E90635FFF7C5
:10448000C9FE2B46024604F134012046C4E9082344
:1044900080230C4A2565FEF751F901230A4AE060A2
:1044A00000920375684672680192B268CDE90223F2
:1044B000064BCDE90435FEF769F906B070BD00BFC3
:1044C000382B0020EE4A0008F34A00084D4400084B
:1044D000024AD36A0343D362704700BFE02A002038
:1044E000C0E90000816070478368013B002B10B574
:1044F00083600CDA074BDC684368A061206063606E
:104500001C6044600520FEF78BF8A06910BD0020F8
:10451000FCE700BFE02A002008B5302383F31188B0
:10452000FFF7E2FF002383F3118808BD08B53022AE
:10453000034682F3118882680132002A826006DC19
:104540000068002102681A605360FEF795F80023A6
:1045500083F3118808BD00004B6843608B6883605B
:10456000CB68C3600B6943614B6903628B6943622B
:104570000B6803607047000008B53B4B40F2FF71C9
:104580003A48D3F888200A43C3F88820D3F8882013
:104590006FF30A02C3F88820D3F88820D3F8E0200C
:1045A0000A43C3F8E020D3F808210A43C3F80821DE
:1045B0002F4AD3F808311146FFF7CEFF00F580608F
:1045C00002F11C01FFF7C8FF00F5806002F138011D
:1045D000FFF7C2FF00F5806002F15401FFF7BCFF56
:1045E00000F5806002F17001FFF7B6FF00F5806012
:1045F00002F18C01FFF7B0FF00F5806002F1A80125
:10460000FFF7AAFF00F5806002F1C401FFF7A4FFE5
:1046100000F5806002F1E001FFF79EFF00F5806089
:1046200002F1FC01FFF798FF02F58C7100F5806044
:10463000FFF792FF00F01AF90E4BD3F8902242F0E8
:104640000102C3F89022D3F8942242F00102C3F889
:1046500094220522C3F898204FF06052C3F89C20A2
:10466000054AC3F8A02008BD0044025800000258C3
:10467000E44D000800ED00E01F00080308B500F05D
:10468000E1F9FEF735F8104BD3F8DC2042F0400298
:10469000C3F8DC20D3F8042122F04002C3F804213F
:1046A000D3F80431094B1A6842F008021A601A68FC
:1046B00042F004021A60FEF7AFFDFEF717FDBDE8F9
:1046C0000840FEF789BA00BF0044025800180248AB
:1046D00070470000114BD3F8E82042F00802C3F8FD
:1046E000E820D3F8102142F00802C3F810210C4A48
:1046F000D3F81031D36B43F00803D363C722094BBF
:104700009A624FF0FF32DA6200229A615A63DA60ED
:104710005A6001225A611A60704700BF0044025873
:104720000010005C000C0040094A08B51169D3680C
:104730000B40D9B29B076FEA0101116107D5302305
:1047400083F31188FDF7EEFF002383F3118808BD82
:10475000000C0040064BD3F8DC200243C3F8DC20F9
:10476000D3F804211043C3F80401D3F8043170478F
:104770000044025808B53C4B4FF0FF31D3F880207D
:1047800062F00042C3F88020D3F8802002F000429B
:10479000C3F88020D3F88020D3F88420C3F8841095
:1047A000D3F884200022C3F88420D3F88400D86F83
:1047B00040F0FF4040F4FF0040F4DF4040F07F0055
:1047C000D867D86F20F0FF4020F4FF0020F4DF40CE
:1047D00020F07F00D867D86FD3F888006FEA405088
:1047E0006FEA5050C3F88800D3F88800C0F30A007D
:1047F000C3F88800D3F88800D3F89000C3F890106D
:10480000D3F89000C3F89020D3F89000D3F8940028
:10481000C3F89410D3F89400C3F89420D3F894000C
:10482000D3F89800C3F89810D3F89800C3F89820EC
:10483000D3F89800D3F88C00C3F88C10D3F88C0010
:10484000C3F88C20D3F88C00D3F89C00C3F89C10DC
:10485000D3F89C10C3F89C20D3F89C30FCF77CFE66
:10486000BDE8084000F0DEB80044025808B5012257
:10487000534BC3F80821534BD3F8F42042F0020203
:10488000C3F8F420D3F81C2142F00202C3F81C2123
:104890000222D3F81C314C4BDA605A689104FCD5E3
:1048A0004A4A1A6001229A60494ADA6000221A6173
:1048B0004FF440429A61444B9A699204FCD51A68BD
:1048C00042F480721A603F4B1A6F12F4407F04D09A
:1048D0004FF480321A6700221A671A6842F0010208
:1048E0001A60384B1A685007FCD500221A611A6901
:1048F00012F03802FBD1012119604FF0804159605C
:104900005A67344ADA62344A1A611A6842F48032C9
:104910001A602C4B1A689103FCD51A6842F4805235
:104920001A601A689204FCD52C4A2D499A6200221A
:104930005A63196301F57C01DA6301F5E771996344
:104940005A64284A1A64284ADA621A6842F0A8525D
:104950001A601C4B1A6802F02852B2F1285FF9D194
:1049600048229A614FF48862DA6140221A621F4A33
:10497000DA641F4A1A651F4A5A651F4A9A6532232C
:104980001E4A1360136803F00F03022BFAD10D4A7D
:10499000136943F003031361136903F03803182B01
:1049A000FAD14FF00050FFF7D5FE4FF08040FFF7EF
:1049B000D1FE4FF00040BDE80840FFF7CBBE00BF7E
:1049C00000800051004402580048025800C000F026
:1049D000020000010000FF01008890083220600002
:1049E00063020901470E0508DD0BBF01200000200E
:1049F000000001100910E000000101100020005229
:104A000008B50348FCF710FFBDE80840FEF752BCAC
:104A10006028002008B5FFF787FEBDE80840FEF7D4
:104A200049BC000008B509217A20FCF781FF072165
:104A30003220FCF77DFF0C215320BDE80840FCF735
:104A400077BF000008B5FFF795FE00F00DF8FDF701
:104A500033F9FDF70BFBFDF7DDF9FFF739FEBDE894
:104A60000840FFF7D5BB0000704700006162663563
:104A70003431633835633634326261350053544D16
:104A8000333248373F3F3F0053544D33324837337A
:104A9000782F3732780053544D3332483734332F20
:104AA0003735332F3735300063300041726475502D
:104AB000696C6F740025424F415244252D424C00D1
:104AC0002553455249414C250025424F415244252A
:104AD000004954574C2D465056315F310030313229
:104AE00033343536373839414243444546006D61E9
:104AF000696E0069646C65001211000012130000F9
:104B00001210000001105A00031059000120580033
:104B10000320560010000240080002400008024036
:104B200000000B0028000240080002400408024078
:104B300006010C0040000240080002400808024044
:104B400010020D0058000240080002400C0802400C
:104B500016030E00700002400C00024010080240D4
:104B600000040F00880002400C00024014080240BC
:104B700006051000A00002400C0002401808024088
:104B800010061100B80002400C0002401C08024050
:104B900016072F00100402400804024020080240BB
:104BA000000838002804024008040240240802409B
:104BB0000609390040040240080402402808024067
:104BC000100A3A0058040240080402402C0802402F
:104BD000160B3B00700402400C04024030080240F7
:104BE000000C3C00880402400C04024034080240DF
:104BF000060D4400A00402400C04024038080240A4
:104C0000100E4500B80402400C0402403C0802406B
:104C1000160F460000960000000000000000000093
:104C20000000000000000000000000000000000084
:104C3000791C0008651C0008A11C00088D1C0008D8
:104C4000991C0008851C0008711C00085D1C0008E8
:104C5000AD1C000800000000911D00087D1D00082B
:104C6000B91D0008A51D0008B11D00089D1D000804
:104C7000891D0008751D0008C51D00080100000001
:104C80000000000000000000A84A0008D028002012
:104C9000E02A0020DC47002001010200792B0008F7
:104CA000892A0008252B0008092B000803000000B2
:104CB0000000000069200008000000001000000053
:104CC000402B002000000000010000000000000058
:104CD0000200000000000000B51F000821200008AD
:104CE00040004000602B0020502B002002000000FC
:104CF000000000000403090443000000004D000808
:104D000009024300020100C032090400000102024E
:104D10000100052400100105240100010424020201
:104D20000524060001070582030800FF09040100AD
:104D3000020A000000070501024000000705810289
:104D400040000000120000004C4D0008120110014C
:104D50000200004009124157000201020301000055
:104D600000000020000002000200000000000030EF
:104D700000000400080000000000002400000800FB
:104D8000040000000004000000FC0000020000001D
:104D9000000004300080000008000000000000381F
:104DA00000000100010000000001000000100000F0
:104DB0000800000080000000400100000800000022
:104DC00000000000C52100087D24000829250008F6
:104DD0004000400030470020304700200100000024
:104DE000284700200000802A00020000AAAAAAAAE0
:104DF00000000024FFFF00000000000000A00A00E7
:104E00000000000000000000AAAAAAAA00000000FA
:104E1000FFFF000000000000000000000000000490
:104E200000000000AAAAAAAA00000000FFFF0000DC
:104E30000000000000000000400100000000000031
:104E4000AAAAAAAA40010000FFFF0000000000007B
:104E5000000000000A00100000000000AAAAAAAA90
:104E600005001000FFFF00008800000000000000A7
:104E70000000000000000000AAAAAAAA000000008A
:104E8000FFFF000000000000000000000000000024
:104E900000000000AAAAAAAA00000000FFFF00006C
:104EA0000000000000000000000000000000000002
:104EB000AAAAAAAA00000000FFFF0000000000004C
:104EC000000000000000000000000000AAAAAAAA3A
:104ED00000000000FFFF00000000000000000000D4
:104EE0000000000000000000AAAAAAAA000000001A
:104EF000FFFF0000000000000000000000000000B4
:104F000000000000AAAAAAAA00000000FFFF0000FB
:104F10000000000000000000DB1B0000000000009B
:104F200000001A0000000000FF000000D02D00204B
:104F300060280020000000007D4A00088304000073
:104F4000884A000850040000964A000800960000B5
:104F50000000080004000000F44C000800000000FD
:104F60000000000000000000000000000000000041
:0C4F700000000000009600000000080097
:00000001FF
